:100000000C9485050C94A2050C94A2050C94DC3389
:100010000C94A2050C94A2050C94A2050C94A205C4
:100020000C94A2050C94A2050C94DA250C948F2450
:100030000C9478270C94A2050C94A2050C94A205AC
:100040000C94A2050C94A2050C94A2050C94A20594
:100050000C94A2050C940F270C94A2050C94A205F5
:100060000C94A2050C94A2050C94A2050C94A20574
:100070000C94A2050C94A2050C94A2050C94A20564
:100080000C94A2050C94A2050C94A2050C94A20554
:100090000C94A2050C94A2050C94A2050C94A20544
:1000A0000C94A2050C94A2050C94A205A609A6091D
:1000B000D809D8094A0A660A020C020C710A4F0BC9
:1000C000600B600B681C731CAC1CFD1C471D9E1D47
:1000D000811E251F281F102C372CCF2D372CCF2DFC
:1000E0007F2CA22CCF2D912DA42D00DA0281FFD9D7
:1000F000F1DB20A4A62EAF00A0C000A1C800AED5A1
:1001000080A81FD300408D1420003F3F3F202000D7
:1001100041646A20200053796D2020004E617620D2
:100120002000416C706861002020202020002043C6
:10013000415020000A0A0A0A0A0A0A0A0A000A0AA0
:100140000A005370005620005320004820004D6FD5
:100150000057494E0A004D41430A00486579202066
:10016000426F6221205F5F5F5F5F008081828384D6
:1001700085868788898A8B8C8D8E8F9091929394B7
:10018000A0A1A2A3A4A5A6A7A8A9AAABACADAEAFF7
:10019000B0B1B2B3B4C0C1C2C3C4C5C6C7C8C9CA6E
:1001A000CBCCCDCECFD0D1D2D3D400000101010130
:1001B0000101010101020202020202020202030322
:1001C00003030303030304040404040404050505F2
:1001D00005050606060606070707070708080808B4
:1001E000090909090A0A0A0B0B0B0C0C0C0D0D0D61
:1001F0000E0E0E0F0F0F10101111111212131314F7
:1002000014151516161717181819191A1A1B1B1C6E
:100210001D1D1E1E1F2020212222232424252626C8
:10022000272829292A2B2C2D2D2E2F3031323233FD
:100230003435363738393A3B3C3D3E3F4041424306
:100240004445464748494A4C4D4E4F5051535455EA
:100250005658595A5B5D5E5F616264656668696B9A
:100260006C6D6F7072737577787A7B7D7E80828318
:100270008587888A8C8E8F91939596989A9C9EA05C
:10028000A2A3A5A7A9ABADAFB1B3B5B7BABCBEC069
:10029000C2C4C6C9CBCDCFD1D4D6D8DBDDDFE2E432
:1002A000E7E9EBEEF0F3F5F8FAFDFF35001E001F6D
:1002B00000200021002200290014001A0008001567
:1002C0000017002B0004001600070009000A00E1D7
:1002D000001D001B00060019000500E300E200E01D
:1002E00000A75D2800A8003500270026002500246F
:1002F0000023002A00130012000C0018001C003418
:100300000033000F000E000D000B00E50038003731
:1003100000360010001100E700E600E400A85D2CA4
:1003200000AE000100010001000100010001000118
:1003300000490046006500000000000100E200E006
:1003400000E1000000390001007A007B007C007DA4
:100350000000000100010001000100010001000196
:1003600000010001000100010001002A00AE5DABA8
:100370005D5200AA5D4B002A004C004F0051005016
:10038000004E0001000000AD5D0000AC5D0000010A
:10039000000100010001000100010001003A003BE2
:1003A000003C003D003E0035001E001F00200021E3
:1003B00000220001001E021F02200221022202016F
:1003C000002E002D002E022F02300201000100013C
:1003D00000010001000100440043004200410040D0
:1003E000003F00450027002600250024002300319F
:1003F00002270226022502240223020100310033D3
:1004000002330030002F0001000100010001000153
:1004100000010000000000000000000000000000DB
:100420005CCC5CCA5CC85CC65CC45C0000CD5CCBC8
:100430005CC95CC75CC55C015D0000000000000099
:1004400000000001000100010001000100000000A7
:10045000000000000000000000000000000000009C
:100460000000000000000000000000A900A800AA91
:1004700000000000000000AB00AE00AC0000000176
:10048000000100010001000100000007087F0807CB
:10049000003E5B4F5B3E003E6B4F6B3E001C3E7C64
:1004A0003E1C00183C7E3C18001C577D571C001C4D
:1004B0005E7F5E1C0000183C180000FFE7C3E7FFEA
:1004C00000001824180000FFE7DBE7FF0030483A7F
:1004D000060E00262979292600407F0505070040E1
:1004E0007F05253F005A3CE73C5A007F3E1C1C0814
:1004F00000081C1C3E7F0014227F2214005F5F0056
:100500005F5F0006097F017F00006689956A0060D1
:10051000606060600094A2FFA2940008047E04085A
:100520000010207E20100008082A1C0800081C2A41
:100530000808001E10101010000C1E0C1E0C0030BD
:10054000383E383000060E3E0E0600000000000067
:100550000000005F000000000700070000147F1487
:100560007F1400242A7F2A120023130864620036B5
:100570004956205000000807030000001C224100DB
:10058000000041221C00002A1C7F1C2A0008083E93
:100590000808000080703000000808080808000003
:1005A00000606000002010080402003E5149453EF2
:1005B0000000427F400000724949494600214149FC
:1005C0004D33001814127F10002745454539003C73
:1005D0004A49493100412111090700364949493644
:1005E00000464949291E0000001400000000403464
:1005F0000000000008142241001414141414000018
:1006000041221408000201590906003E415D594E7D
:10061000007C1211127C007F49494936003E41415D
:100620004122007F4141413E007F49494941007FCD
:1006300009090901003E41415173007F0808087F04
:100640000000417F4100002040413F01007F08142D
:100650002241007F40404040007F021C027F007F1B
:100660000408107F003E4141413E007F0909090610
:10067000003E4151215E007F091929460026494963
:1006800049320003017F0103003F4040403F001F0B
:100690002040201F003F4038403F0063140814638F
:1006A000000304780403006159494D4300007F4171
:1006B000414100020408102000004141417F000434
:1006C00002010204004040404040000003070800CF
:1006D000002054547840007F284444380038444473
:1006E000442800384444287F0038545454180000EB
:1006F000087E09020018A4A49C78007F08040478EE
:100700000000447D4000002040403D00007F102854
:1007100044000000417F4000007C04780478007CA5
:100720000804047800384444443800FC1824241891
:100730000018242418FC007C0804040800485454C1
:1007400054240004043F4424003C4040207C001C0E
:100750002040201C003C4030403C004428102844ED
:10076000004C9090907C004464544C440000083647
:100770004100000000770000000041360800000240
:1007800001020402003C2623263C00000000000079
:1007900000404040F0F8F8FF38FFF8F83FF8F8FF65
:1007A00038FFF8F8F040404000000000000080C032
:1007B000C0C0800000C0C08000000080C0C000C079
:1007C000C0000080C0C00000000000C0C0C0C0C0A9
:1007D00000C0C00000000000000000000000000099
:1007E0000000000000000000000000000000000009
:1007F00000000000000000000000000000000000F9
:1008000000000000000000000000C0F0F8FC3E1EE8
:1008100006010000007F4141417F007F4141417F4F
:10082000000080C0E07E5B4F5BFEC00000C000DCCB
:10083000D7DEDEDED7DC00C00000000000000000D4
:1008400000000000000000000000000000000000A8
:1008500000494949FFFFFFFFE0DFBFBF00BFBFDF27
:10086000E0FFFFFFFF49494900000000001F3F6013
:1008700060E0BF1F007F7F071E381E077F7F007F5D
:100880007F0E1F3B716000000000007F7F0C0C0C8E
:10089000007E7E007F7E0303007F7E03037E7E0357
:1008A000037F7E000F3E703C063C703E0F00327BA3
:1008B00049493F7E007F7E0303001E3F69696F2622
:1008C00000000000000000000000030F1F3F3C7804
:1008D00070600000007F4141417F007F4141417FC6
:1008E00000307B7F7830202030787F3B0003000F82
:1008F0007F0F0F0F7F0F00030000000000000000BB
:1009000000000000000000000000000000000000E7
:1009100000010101070F0F7F0F7F0F0F7E0F0F7F69
:100920000F7F0F0F07010101000000000000000011
:1009300000000101000000000000000000000000B5
:1009400000000000000000000000000000000000A7
:100950000000000000000000000000000000000097
:100960000000000000000000000000000000000087
:100970000000000000000000000000000000000077
:100980000000000000000000000000000000000067
:100990000000000000000000000000000000000057
:1009A0000000000000000000000000000000000047
:1009B0000000000000000000000000000000000037
:1009C000000000000000000000000000AF00AE05C5
:1009D000010902A10185020901A1000509190129E6
:1009E00008150025019508750181020501093009E6
:1009F000311581257F9502750881060938158125F5
:100A00007F950175088106050C0A38021581257F3E
:100A1000950175088106C0C005010980A101850303
:100A200019012AB700150126B7009501751081003C
:100A3000C0050C0901A101850419012AA0021501B4
:100A400026A002950175108100C005010906A101CB
:100A5000050719E029E715002501950875018102B0
:100A60009501750881010507190029FF150026FF6A
:100A70000095067508810005081901290595057579
:100A8000019102950175039101C009023B00020129
:100A900000A0FA090400000103010100092111016D
:100AA000000122400007058103080001090401003C
:100AB0000103000000092111010001227B0007054C
:100AC0008203200001120100020000000832FC87AE
:100AD00002010001020001160353006F0066006C62
:100AE0000065002000430068006F006300000014F0
:100AF0000342007200690061006E0020004C006F2C
:100B00000077000000040309040011241FBECFEF8A
:100B1000DAE0DEBFCDBF12E0A0E0B1E0E8E9FBE63D
:100B200002C005900D92A83AB107D9F727E0A8EACC
:100B3000B2E001C01D92AF38B207E1F70E94C30CCA
:100B40000C94CA350C9400008F929F92AF92BF9282
:100B5000CF92DF92EF92FF920F931F93CF93DF9389
:100B6000CDB7DEB72A970FB6F894DEBF0FBECDBF64
:100B7000FC010081D18083819481892B39F01FEFA2
:100B8000D11206C091E00F3F19F403C091E001C0FB
:100B900090E090FDE5C67F0185E0DE0116960190AC
:100BA0000D928A95E1F7F70122818E819F812223A0
:100BB00049F00E94B720182F682F8E819F810E94D4
:100BC0001A2303C00E94ED22182F2CE3129FF0017C
:100BD000112436E0D39EE00DF11D1124E00FF11D2C
:100BE000EE0FFF1FE555FD4F05911491083A8DE575
:100BF000180709F440C0B8F40C37110509F4BBC05C
:100C000048F40A37110509F4ECC00B37110509F453
:100C1000D6C0F9C00D37110509F4BFC0073AEDE59C
:100C20001E07E9F0F0C00B3AFDE51F0709F459C0B3
:100C300048F4093A3DE5130741F10A3A8DE51807F2
:100C400081F1E1C00D3A9DE5190709F474C008F47B
:100C500064C00E3AFDE51F0709F47BC0D4C0F7015C
:100C60008281882311F081E00BC081E00E94502333
:100C70000E946F29ECC2F7018281882321F082E073
:100C80000E94AF23F5CF82E0F1CFF7018281882364
:100C900021F083E00E94AF23DAC283E00E94502358
:100CA000D6C2F70192818091D702992369F080FF23
:100CB00002C084E001C081E00E94D6150E94EC23AE
:100CC00080E50E94CB31C3C280FF02C084E001C036
:100CD00081E00E94D6150E94E52380E50E949331B1
:100CE000B6C2F70192818091D702992359F080FF13
:100CF00002C084E001C081E00E94D6150E94EC236E
:100D00008FE4DFCF80FF02C084E001C081E00E9459
:100D1000D6150E94E5238FE4E1CFF70192818091FF
:100D2000D702992321F080FDC6CF8AE4CACF80FD87
:100D3000CFCF8AE4D3CFF70192818091D702992354
:100D400021F080FDD8CF8DE4BCCF80FDDFCF8DE4D6
:100D5000C5CFF7018281882339F081E00E94D61542
:100D60000E94EC238AE2ADCF81E00E94D6150E945A
:100D7000E5238AE2B3CFF7018281882339F081E04D
:100D80000E94D6150E94EC2386E09BCF81E00E9452
:100D9000D6150E94E52386E0A1CFF7018281882342
:100DA00039F081E00E94D6150E94EC2389E189CFB9
:100DB00081E00E94D6150E94E52389E18FCFF701DB
:100DC0008281882339F081E00E94D6150E94EC23AD
:100DD0008BE177CF81E00E94D6150E94E5238BE15D
:100DE0007DCFF7018281882339F081E00E94D615FA
:100DF0000E94EC238DE165CF81E00E94D6150E9410
:100E0000E5238DE16BCF043F2CE5120799F406E250
:100E100021EE40EE64EF7CE509C0083DECE51E07DD
:100E200011F506E221EE41EE68ED7CE5C7010E9476
:100E3000F7270DC2053F3CE5130708F05EC1093DE9
:100E40008CE5180731F407E225EE45EE69ED7CE507
:100E5000EDCF0A3D9CE5190701F708E221E045EED8
:100E60006AED7CE5E3CFF7018281882309F47AC13A
:100E700010927F060430FDE51F0758F40B3F2CE568
:100E8000120780F4C80182509C45449708F054C171
:100E900009C002363DE5130729F0063A8DE518072B
:100EA00009F04AC10E940B189093D7028093D60292
:100EB00001319CE5190709F4C6C008F042C00930A9
:100EC000FCE51F0709F49BC000F505303CE513075E
:100ED00009F485C078F403309CE5190709F478C05B
:100EE00008F07AC002301C4509F0F7C08091D602A4
:100EF0008160F1C007302CE5120709F478C008F0D2
:100F00007AC08091D6028061E6C00D308CE518076A
:100F100009F487C058F40B30ECE51E0709F479C0DA
:100F200008F07BC08091D60288606FC00F302CE53E
:100F3000120709F480C008F082C08091D602877F32
:100F4000CAC00E3F8CE5180709F471C000F50531E1
:100F5000ECE51E0709F485C068F403312CE512079F
:100F600009F475C008F095C00E94DA238091D6027A
:100F70008F77B1C00C3F8CE51807A9F108F054C079
:100F80000B3F1C4509F0A9C08091D70240C0023038
:100F9000FDE51F0709F489C058F401153DE5130765
:100FA00009F45AC008F069C08091D70282602FC04E
:100FB00002369DE5190709F47EC0063AEDE51E07E5
:100FC00009F483C003301D4509F087C060E06EC09E
:100FD0008091D60282607FC08091D60216C0809137
:100FE000D602886078C08091D70282604FC080911D
:100FF000D602806270C08091D60280646CC00E946C
:10100000DA238091D602806866C0846064C0816003
:101010003DC08091D6028E7F5EC08091D6028D7FCA
:101020005AC08091D60216C08091D70218C0809114
:10103000D7028D7F2BC08091D6028F7E4CC08091CD
:10104000D6028F7D48C08091D6028F7B44C08091AC
:10105000D602877F8B7F3FC08091D7028D7F8E7FA6
:1010600015C08091D60282FB222720F991E09227B9
:1010700090FB82F990FB83F92EC08091D702982FC4
:10108000909591708E7F892B90FB81F98093D70288
:1010900024C00E94DA238091D60287FB222720F900
:1010A00091E0922790FB87F916C061E08EE090E016
:1010B0000E94483512C08091D60284FB222720F975
:1010C00091E0922790FB84F906C08091D602982F78
:1010D000909590FB80F98093D6026091D602109192
:1010E000D70284E090E00E944835612F82E290E0D0
:1010F0000E9448350E94DA23AAC0063FFCE51F077C
:1011000031F406E221EE42EE66EF7CE58FCE063F3B
:101110002CE5120730F407E225EE44EE65EF7CE59E
:1011200085CE073F3CE5130709F09DCE07E225EE8B
:1011300046EE67EF7CE57ACE06318CE5180761F55F
:10114000809166048A7A91E009F490E09093AA0273
:10115000882311F065E301C069E284EF93E00E9407
:10116000A12717C00631FCE51F0709F057C0809181
:10117000AA02882309F483C385E3E4EFF3E02AEFAE
:1011800033E09281891301C0128231962E173F07F6
:10119000C1F70E94EA1F5BC00B359DE51907C1F13D
:1011A00058F40115FCE51F07B9F00F3D1C4509F087
:1011B00071C00E94721F4BC00C353DE5130751F101
:1011C0000D351D4509F066C08091D70282FB882746
:1011D00080F991E089271FC00E94DA239FEFE4E3A2
:1011E000FCE09150E040F040E1F700C0000087E7EC
:1011F00097E790930108809300089AE088E10FB682
:10120000F894A895809360000FBE90936000FFCF84
:1012100081E001C080E00E9492233CC0809166047E
:1012200082720B3C2CE5120709F488C308F429C329
:101230000F3C3CE5130709F48FC308F451C3073D85
:101240002CE5120708F456C30E351D4519F580919B
:101250005C04877009F484C3F7018281882309F450
:101260007FC38091D70282FD7BC382E02A960FB6AE
:10127000F894DEBF0FBECDBFDF91CF911F910F91CC
:10128000FF90EF90DF90CF90BF90AF909F908F90A6
:101290000C947523F70182810081D180882359F055
:1012A000802F9D2D0E94B720182F682F802F9D2DF5
:1012B0000E941A2305C0802F9D2D0E94ED22182F19
:1012C0002CE3129FF001112436E0D39EE00DF11DB6
:1012D0001124E00FF11DEE0FFF1FE555FD4F859125
:1012E00094910E9419168C01982EF701D280A58046
:1012F000A2943FE0A32280915C048770B9F0DD20C6
:10130000A9F0812F807F803421F080E2800F883027
:1013100068F08091D70282FD09C082E00E947523A7
:1013200080915C048770CC24C3948111C12CB12EB0
:10133000B2949FE0B9228B2D90E08C30910508F09B
:1013400061C2FC01EA5AFF4F0C94AE35812F807FB9
:101350001F70882311F01295107FDD20B9F0112342
:1013600009F438C280E2800F883010F0911006C076
:1013700080916604182B1093660405C08091650463
:10138000182B109365040E94EA1F24C2802F0E942C
:101390009331112309F436C2005E083078F19920A8
:1013A00069F110958091650418231093650429C094
:1013B000812F807F1F70803211F01295107F99204D
:1013C00021F0F1E09F16D9F149C08091D70282FF48
:1013D0001BC0DD2069F0112339F080916604182BC1
:1013E000109366040E94EA1F80E00E94CB310AC27B
:1013F00080E00E949331112309F404C2812F0E94DE
:10140000E31F0E94EA1FFEC1DD2081F08091670486
:10141000AA2051F001E0A01207C0182B181709F4F8
:10142000F1C110936704EEC1812B10C0AA2021F0F6
:1014300021E0A21609F4E6C10E94DD1F27C0DD20CD
:1014400041F035E03A1508F4DDC1812F0E94EC230C
:10145000D9C184E08A1508F4D5C118C0DD2049F04F
:10146000AA2099F3F701858180FFB4C18F7085832D
:10147000ECCFAA2059F0093309F0BBC1FFEF17EEFA
:1014800023E0F15010402040E1F7B7C1812F0E94C6
:10149000E523B8C1812F86958695837019F0813038
:1014A00059F0B0C1DD2019F0C801937002C080E08E
:1014B00090E00E94D127ACC1DD2019F0C8019370E3
:1014C00002C080E090E00E94BB27A2C1802FDD20F7
:1014D00019F00E94383102C00E947F300E94481FDC
:1014E00097C1812F837009F069C0D1108FC1902FEF
:1014F000929596959770990F990F802F8F70882EDF
:10150000912CA12CB12C092E04C0880C991CAA1C6A
:10151000BB1C0A94D2F704FF12C04FE050E060E019
:1015200070E004C0440F551F661F771F9A95D2F7CD
:10153000DB01CA0180959095A095B09503C080E02D
:1015400090E0DC0116951695412F4370423019F159
:10155000C8F4009168041091690420916A043091E4
:101560006B04413059F088299929AA29BB29BC016B
:10157000CD0160237123822393230AC0802A912AFC
:10158000A22AB32ABC01CD01682979298A299B297D
:101590000E94D0233BC188299929AA29BB290091FF
:1015A00068041091690420916A0430916B04BC01B5
:1015B000CD016027712782279327EACFDD2019F01C
:1015C000812F817001C08695882309F41FC1902F57
:1015D000929596959770990F990F802F8F70882EFE
:1015E000912CA12CB12C092E04C0880C991CAA1C8A
:1015F000BB1C0A94D2F704FF12C04FE050E060E039
:1016000070E004C0440F551F661F771F9A95D2F7EC
:10161000DB01CA0180959095A095B09503C080E04C
:1016200090E0DC0116951695412F43704230D9F0B9
:1016300068F50091D5061091D6062091D706309115
:10164000D806413059F088299929AA29BB29BC011B
:10165000CD0160237123822393231EC0802A912A07
:10166000A22AB32A13C088299929AA29BB29009143
:10167000D5061091D6062091D7063091D806BC0128
:10168000CD01602771278227932706C0BC01CD01B9
:10169000682979298A299B290E944623B7C01F708F
:1016A000DD2039F0812F0E94AF23802F0E94EC2390
:1016B000ADC0802F0E94E523812F0E945023A6C039
:1016C000802F92EF991609F443C0991538F0E0EF96
:1016D0009E1659F0F1EF9F16B1F177C023EF9216E5
:1016E000F1F134EF931659F170C0DD2019F184E067
:1016F0008A1508F487C01F7181E090E0A0E0B0E097
:10170000AC01BD0104C0440F551F661F771F1A9519
:10171000D2F78091D5069091D606A091D706B091C8
:10172000D8068A019B01082719272A273B27C901C8
:10173000B80129C025E02A1508F464C0DCCF8091E7
:10174000D70282FF23C0DD2029F0812F8F7130C0A6
:10175000DD20D9F3812F8F710E94502353C0DD20EB
:1017600079F01F7181E090E0A0E0B0E0BC01CD0114
:1017700004C0660F771F881F991F1A95D2F703C000
:1017800060E070E0CB010E9446233CC0DD2099F070
:101790001F71812F0E94AF238091D70282FD07C065
:1017A00038E0139FC0011124836080935C04812F73
:1017B0000E94AF2327C081E00E94752381E08A1533
:1017C00008F582E00E9475231DC0DD2029F0AA20C3
:1017D00009F4BBCF802F09CEAA2009F4BBCF8933EF
:1017E00041F49FEFE7EEF3E09150E040F040E1F785
:1017F00004C08FE39CE90197F1F700C00000802F3F
:101800000E94933188EF8B0D843010F40E94E727FB
:10181000CC20A9F080915C0480FD11C0F7011282F8
:101820008595859585950E94AF23C7010E94A405E3
:1018300080915C048595859585950E94502385E06F
:10184000F701DE01119601900D928A95E1F78981E9
:101850009A810E94ED229A810CE3809FF00111246D
:1018600016E0919FE00DF11D11248981E80FF11D13
:10187000EE0FFF1FE555FD4F8591949171C089E2F0
:101880007CCC063C9CE5190709F444C0B8F4043C40
:10189000FCE51F07A9F1C8F5033C1C4509F0FACC8B
:1018A0009091CF0681E089278093CF061092560150
:1018B0008091CE0681608093CE06C9CC083C9CE521
:1018C000190791F160F1093CFCE51F0791F10A3C11
:1018D0001C4509F0DFCC4EE55EE26AE67EE237C0E9
:1018E0000D3CECE51E0779F1A8F547EF5DE265E0F8
:1018F0007EE22DC0013D1C4508F0A9CC83E02DC03F
:1019000040EA5EE269EA7EE222C049EA5EE260EA1B
:101910007EE21DC04EE85EE267E97EE218C047E95C
:101920005EE26EE87EE213C046E75EE262E87EE2D7
:101930000EC042E85EE266E77EE209C04AE65EE289
:101940006EE57EE204C045E05EE267EF7DE20E9464
:10195000FB2E7DCC81E001C082E00E94A62977CCDD
:101960002A960FB6F894DEBF0FBECDBFDF91CF91A0
:101970001F910F91FF90EF90DF90CF90BF90AF90AD
:101980009F908F900895CF93DF93CDB7DEB7629786
:101990000FB6F894DEBF0FBECDBF84B7877F84BF7C
:1019A0000FB6F894A89580916000886180936000DC
:1019B000109260000FBE90E080E80FB6F89480931C
:1019C0006100909361000FBE85B7806885BF85B7C1
:1019D000806885BF8BE793E19093A9028093A8026A
:1019E0000E94D3240E9479258091E2008460809334
:1019F000E200789480919B068823A1F01091E90081
:101A00001F709091EC00892F817090FD80E8182B59
:101A10001092E9008091E80083FD0E942A2B1F703C
:101A20001093E90082E084BD93E095BD9AEF97BDE5
:101A300080936E001092AB021092AC021092AD0235
:101A40001092AE020E943615809300010E94361556
:101A500081110E94963380910001809100018111D3
:101A600002C095E001C090E09093BA0285E0891B26
:101A70008093B9020FE511E044E6E42E41E0F42E34
:101A8000D8018D918D018F3F11F00E945915E016FC
:101A9000F106B1F704E611E03AE6E32E31E0F32E69
:101AA000F80181918F018F3F11F00E945915E016C6
:101AB000F106B1F78AE0ECEBF2E0DF01282F1D928E
:101AC0002A95E9F7EFEAF2E0DF011D928A95E9F73E
:101AD00080E090E00E943235893E9E4F11F00E94D6
:101AE000721F82E090E00E942A358093C6020E9415
:101AF0000B189093D7028093D60283E090E00E9467
:101B00002A35682F70E080E090E00E94D023109288
:101B1000A506EEEBF6E08EEC96E02FEF3FEF21937B
:101B200031938E179F07D9F710924403EDE5F3E048
:101B30008DE693E02FEF3FEF219331938E179F07B0
:101B4000D9F780E090E00E943235893E9E4F21F027
:101B50000E94721F0E94A61A46E050E06CE170E0FD
:101B60008FEC96E00E941A351092CE068091CF0637
:101B70008C7F11F40E94A61A0E943615811183E011
:101B80008093F80280FD02C080E801C080E280936B
:101B90006C040E942A326DE070E08DEF90E00E94AC
:101BA000BF29892B09F043C08091F80263E070E0FF
:101BB00081FD3AC08AEF90E00E94BF29892BB9F5D8
:101BC0006DE070E08AEE90E00E94BF29892B79F5E4
:101BD0000E946027DC01CB01805A9541AF4FBF4F77
:101BE0008093770690937806A0937906B0937A064F
:101BF000EFE6F4E080E092E0DF019C011D922150CD
:101C00003040E1F7F0937606E09375068FEF9FEF93
:101C100090936E0480936D0481E080937C068093A2
:101C20007B061092F90203C087EF90E0C5CF809148
:101C30000001811106C084EF80930E0185EF80932F
:101C40000D0180910E01E82FE295EF70F0E041A1C7
:101C5000282F2F7081E090E0BC0102C0660F771F33
:101C60002A95E2F79B01362F3095342331A332A118
:101C7000232B22A320910D01E22FE295EF70F0E0DB
:101C800031A12F7001C0880F2A95EAF7982F9095FF
:101C9000932391A392A1892B82A38FE891E00197CE
:101CA000F1F700C0000020910E01E22FE295EF70E5
:101CB000F0E080A190E02F7002C0959587952A955D
:101CC000E2F7817090910D01E92FE295EF70F0E05D
:101CD00020A130E09F7002C0359527959A95E2F7D4
:101CE00020FD02C090E001C092E0892B8093D502D4
:101CF0009091000181E098279093D402891B8093F2
:101D0000BB020E943615811102C00E94993381E006
:101D100091E0909383068093820622242394312CB1
:101D200080919B06853009F049C000E112E1809165
:101D30009B06853009F03EC080919B06843041F1BE
:101D40000E946B1B0E94852810928606A8E1B0E0D5
:101D5000E0E40FB6F894A895A09360000FBEE0935E
:101D6000600083B7817F846083BF83B7816083BF56
:101D70007894889583B78E7F83BF0FB6F894A89523
:101D800080916000886180936000109260000FBEB7
:101D900080919A06882309F4CACF0E941C18ECEBA4
:101DA000F2E08191811187C426EC32E02E173F07C3
:101DB000C1F7BDCF0E94DA230E94E7270E941C18BA
:101DC000B82E81110E946027ECEBF2E0A7ECB2E0A4
:101DD000E12CF12CAE2C11918D91812709F449C190
:101DE000D12C01E0982F902309F43EC10E943615B2
:101DF0001023882399F0DF82A88681E0111101C0A9
:101E000080E089870E946C278160782F9B878A8772
:101E10004F81588569858B850E94012FF701E95311
:101E2000FD4F808108270083112369F086E08E9D95
:101E3000F0018F9DF00D1124E354FE4FED0DF11DC7
:101E400080818F3F11F4712C03C0C82E77247394C6
:101E5000072D10E080914403B801680F711D6930AF
:101E60007105ACF188E090E04C01801A910AB8014C
:101E70006F5F7F4F6C5B7C4FA40185E493E00E9411
:101E8000C135B801675F7F4F6C5B7C4FA4018DE467
:101E900093E00E94C135A401440F551FB801660F9D
:101EA000771F675E7F4F6C5B7C4F8DE593E00E94F0
:101EB000C135B8016F5E7F4F6C5B7C4FA40185E537
:101EC00093E00E94C13588E0871980934403809194
:101ED000440390E0AC2DB0E09D01220F331F27504A
:101EE0003E4FAA0FBB1FBD0166507E4F41E0480F19
:101EF0009715A8F490E0FC01EC5BFC4FD9015C91D4
:101F00005183DB015C915187C18A880F991FFC01C5
:101F1000EC5BFC4F128E118E91E0842FE7CF809303
:101F200044038091CF068C7F883109F0BAC0AFEFAF
:101F3000AA0D61E06A0D5FEF5D0D41E04D0D5D158D
:101F400080F486E08E9DF0018F9DF00D1124EC54FD
:101F5000FC4FE50FF11D208130E1230F08F42FEF36
:101F600020832D2D30E076E07E9DC0017F9D900D79
:101F700011248C549C4FFC01E20FF31F708110E27E
:101F8000710F08F47FEF7083463049F0FC01E40FD5
:101F9000F11D708110E1710F08F47FEF70836A30DA
:101FA00079F170E05D1580F486E0869FF001879FEF
:101FB000F00D1124EC54FC4FE50FF11D10810DE0E4
:101FC000100F08F41FEF1083E6E0E69FC001E79FC3
:101FD000900D11248C549C4FFC01E20FF31F608183
:101FE00070E1670F08F46FEF6083463049F0FC0141
:101FF000E40FF11D60817DE0670F08F46FEF6083EF
:10200000AA1508F04EC0B0E05D1580F486E08A9F06
:10201000F0018B9FF00D1124EC54FC4FE50FF11DE6
:1020200050816DE0560F08F45FEF508386E08A9F81
:10203000F0018B9FF00D1124CF018C549C4FFC01BB
:10204000E20FF31F208130E1230F08F42FEF2083EC
:10205000463039F1FC01E40FF11D20813DE0230FF2
:1020600008F42FEF20831DC0D394000F26E0D21276
:10207000B9CE3FEFE31AF30A4AE0E416F10409F09F
:10208000A9CE8FEF8C878D871E860E946C2781607A
:10209000782F988B8F874C855D856E8588890E9407
:1020A000012F0E9436150E946B1BE091D5025E2F16
:1020B000550F550F20910E01E22FE295EF70F0E0E1
:1020C00080A190E02F7002C0959587952A95E2F740
:1020D0008170992740910D01E42FE295EF70F0E0B7
:1020E00020A130E04F7002C0359527954A95E2F760
:1020F000F901E170FF2720FF02C0E2E0F0E0E82BE9
:10210000F92BE52BE093D5021091D402EF70F0E0AB
:10211000E659FE4F90818091D302890F8093D302BC
:10212000823074F0E12FF0E0EF52FD4F80818F5F3D
:10213000808360E0812F0E946630DD24D39401C04B
:10214000D12C8091D3028F3F6CF4E12FF0E0EF525D
:10215000FD4F80818150808361E0812F0E94663035
:10216000DD24D3948091D302082E000C990B62E0F9
:1021700070E00E9478358093D302D1100E94B3178B
:1021800080917C06882309F4A4C18091FA02909181
:10219000FB020E945127C29708F49BC00E946C2743
:1021A0009093FB028093FA028FE694E09093760678
:1021B000809375060E94361560E0882309F485C077
:1021C0008BE591E00E946A296091D5067091D60650
:1021D0008091D7069091D8060E94A92F8330F1F5FF
:1021E0001091CF0616951695A090D006E090D106D6
:1021F000F090D2060091D3068091D70260E080FF74
:1022000003C086E591E002C081E591E00E946A2961
:102210008BE591E00E948D2981E00E94B32E612F11
:102220008EE491E00E94F92F6A2D8BE491E00E94E8
:10223000F92F6E2D88E491E00E94F92F6F2D85E42F
:1022400091E00E94F92F602F82E491E00E94F92F23
:1022500060E08EE391E00E94582912C060E084E3C0
:1022600091E00E9458290E94E72781FF04C061E0A5
:102270008EE291E003C060E088E291E00E946A296A
:102280006091D5067091D6068091D7069091D806B8
:102290000E94A92F813069F040F0823071F08330C4
:1022A00081F460E080E191E012C060E082E291E0C0
:1022B0000EC060E08CE191E00AC060E086E191E050
:1022C00006C060E08AE091E002C08BE691E00E94E7
:1022D000582980917C06882309F4E0C020916D0480
:1022E00030916E042115310509F4D8C08091F902AE
:1022F0008111D4C0482E512C7101082E02C0EE0C61
:10230000FF1C0A94E2F7A9014E215F21452B11F42D
:102310008F5FF0CF9091F802920175E0220F331F8A
:102320007A95E1F790FD12C08295880F80768093B0
:102330001101220F232F221F330B319520931401FB
:10234000815E809312011092150112C055E03695FE
:1023500027955A95E1F7220F220F220F20931101A2
:1023600010921401295F2093120183E080931501DC
:1023700024E630E047E050E06FE071E088E70E943B
:10238000E132892B09F08AC08091F80280FD23C0D8
:10239000C20145E0880F991F4A95E1F7AC01415908
:1023A0005B4F04E610E020E230E060E488E70E9442
:1023B0000833892B09F072C00E949F28E094F094A2
:1023C00080916D0490916E04E822F922F0926E04DF
:1023D000E0926D0463C080E2E8EDF2E0DF011D925F
:1023E0008A95E9F735E0440C551C3A95E1F7EEE79C
:1023F000F1E0FA8BE98B4AE751E0A989BA898D911E
:10240000BA8BA98BFA019191AF018201090F111DBD
:1024100001591B4F90E088529D4FFC0127E0922EFE
:102420009F01281B390B722C01C0770C2A95EAF703
:10243000B801812CDB01AD90BD01A720292D281901
:102440002770622E022E000C330BBA2D01C0BB0F79
:102450006A94EAF76B2E319521953109277033275D
:1024600001C0A6942A95EAF76A28A0806A286082AB
:10247000839428E08212DECF9A9431963FEF931234
:10248000CFCF69897A896258714009F0B6CF04E6E6
:1024900010E020E230E048ED52E087CF80917B06EB
:1024A0008823B9F00E946027009177061091780682
:1024B0002091790630917A06DC01CB01801B910BCB
:1024C000A20BB30B8F3F9F4FAF4FBF4710F40E943B
:1024D0008528B11001C0D1100E949F2886E0EEE34C
:1024E000F3E0DE01119601900D928A95E1F70091DB
:1024F000400310914103F0904203E0904303109297
:1025000040031092410310924203109243030111C1
:1025100003C0112309F451C080913C0390913D0305
:102520000E9451279C0190918D07992309F4D9C0ED
:102530002531310508F441C09F3F19F09F5F90930A
:102540008D07002361F00E941831101614F09FEFE0
:1025500001C091E0899F802D1124809340031123B5
:1025600061F00E941831111614F09FEF01C091E044
:10257000899F802D112480934103309140033323A0
:10258000E1F0209141032223C1F045EB3403C00167
:102590001124992319F09093400303C081E08093A4
:1025A000400365EB2603C0011124992319F0909391
:1025B000410303C081E080934103F11003C0EE208A
:1025C00009F451C080913A0390913B030E94512736
:1025D0009C0190918C07992309F488C0213531051D
:1025E00008F441C09F3F19F09F5F90938C07FF2034
:1025F00061F00E94F6301F1414F09FEF01C091E0CB
:10260000899F802D112480934203EE2061F00E9467
:10261000F6301E1414F09FEF01C091E0899F802DC9
:10262000112480934303309142033323E1F020913E
:1026300043032223C1F075EB3703C0011124992312
:1026400019F09093420303C081E08093420335EB7D
:102650002303C0011124992319F09093430303C06D
:1026600081E0809343038091400381110BC08091EE
:102670004103811107C080914203811103C0809101
:10268000430381110E94481F0B831C83FD82EE824D
:1026900086E0FE013196AEE3B3E001900D928A959B
:1026A000E1F70E94E7279091FC02891709F438CBE3
:1026B0008093FC0235CB09BD19BD09B400FEFDCFE6
:1026C0008091D8008F7D8093D8008091E000826057
:1026D0008093E0008091E00081FDFCCF0E94DA232E
:1026E00026CB2B30310508F029CF67CF2B303105B1
:1026F00008F07ACFB8CF80E00895AF92BF92CF9222
:10270000DF92EF92FF920F931F93CF93DF937C01A1
:102710005B016A01809139038A3018F001E010E012
:1027200002C00AE010E0C1E0D0E0F894B501C701B2
:10273000F60109957894811115C021960C171D0793
:1027400094F0CC9F9001CD9F300D300D112480E08E
:1027500090E045E34A95F1F7000001968217930750
:10276000C1F7E3CF81E0DF91CF911F910F91FF90EF
:10277000EF90DF90CF90BF90AF900895CF92DF920F
:10278000EF92FF920F931F93CF93DF93C82F7B019C
:10279000D42F6901FB0160817181828193810E9444
:1027A0003527643671058105910510F4DD2339F173
:1027B0000C2E000CDD0B01151105A9F0FE0183E0C4
:1027C000EE0FFF1F8A95E1F7EA5EFE4F818192814D
:1027D000875E9C4F408150E00417150708F4A8015C
:1027E000B6010E94C135CE010E948234882341F097
:1027F0000E946027F701608371838283938381E065
:10280000DF91CF911F910F91FF90EF90DF90CF90CC
:1028100008950F931F93CF93DF93CDB7DEB727971C
:102820000FB6F894DEBF0FBECDBF86E0EFECF6E04A
:10283000DE01119601900D928A95E1F71F8247E023
:1028400050E06AE273E0CE0101960E94B43541E0A7
:10285000892B09F440E007E010E09E012F5F3F4F15
:1028600065E373E086E00E94BE1327960FB6F894E6
:10287000DEBF0FBECDBFDF91CF911F910F910895A5
:102880000F931F93CF93DF93EC0145E050E06FE18E
:1028900073E00E94B43541E0892B09F440E005E083
:1028A00010E09E0161E173E082E00E94BE13DF91BF
:1028B000CF911F910F9108956F927F928F929F9267
:1028C000AF92BF92CF92DF92EF92FF920F931F933E
:1028D000CF93DF931F92CDB7DEB7C62E4A015901C1
:1028E000682E880F7708C3010E948234882309F478
:1028F00066C0C30123E0880F991F2A95E1F7FC0108
:10290000EA5EFE4F438150E04115510511F041E070
:1029100050E0FC01EA5EFE4F64817581675E7C4F8A
:10292000CE0101960E94C135F401608171818281DE
:1029300093810E943527643671058105910538F42D
:10294000B701C8010E94E42E99818917D1F10C2C9E
:10295000000CDD08C6010E948234782E8823E1F045
:10296000E114F104C9F0960183E0220F331F8A9528
:10297000E1F7F901EA5EFE4F438150E0E416F50607
:1029800008F4A701F901EA5EFE4F64817581675E74
:102990007C4FC5010E94C135B701C8010E94E42ED9
:1029A00091E02981281390E0D92ED72089F00E9448
:1029B0006027F401608371838283938309C0D12CE3
:1029C00002C0DD24D394A701B801C5010E94C1351E
:1029D0008D2D0F90DF91CF911F910F91FF90EF9070
:1029E000DF90CF90BF90AF909F908F907F906F902F
:1029F0000895CF92DF92EF92FF920F931F93CF93A0
:102A0000DF9300D000D01F92CDB7DEB76B0185E019
:102A1000E82EF12C0AE113E09E012F5F3F4F4DE0BD
:102A200053E061E080E00E945C14882349F095E067
:102A3000FE013196A8E0B3E001900D929A95E1F77E
:102A400095E0E8E0F3E0D60101900D929A95E1F768
:102A50000F900F900F900F900F90DF91CF911F91DB
:102A60000F91FF90EF90DF90CF9008958091070332
:102A7000811118C088EC9091E30097FD0AC0EFE344
:102A8000FCE93197F1F700C000008150A1F782E026
:102A900001C081E080930703823021F40E94D32497
:102AA00010929B0681E090910703913009F080E03D
:102AB0000895F894E82FE295EF70F0E031A1282F07
:102AC0002F7081E090E001C0880F2A95EAF7982FD7
:102AD0009095932391A392A1892B82A37894089532
:102AE0000F931F930E943615882321F01F910F9199
:102AF0000C9460270E9460270091AB021091AC02F9
:102B00002091AD023091AE02600F711F821F931FA2
:102B10001F910F910895CF93DF9300D000D0CDB7D0
:102B2000DEB760913103709132038091330390914D
:102B300034030E943527643671058105910570F1D3
:102B40000E947015DC01CB010296A11DB11D898385
:102B50009A83AB83BC8380913F0190914001875E53
:102B60009C4F40913E0150E04530510510F044E04B
:102B700050E0BE016F5F7F4F0E94C13585E090E05D
:102B80000E948234882359F00E94602760933103A9
:102B900070933203809333039093340381E00F905A
:102BA0000F900F900F90DF91CF9108959091D602E2
:102BB00092FF0DC0282F2871283019F4877F846078
:102BC00006C0282F2471243011F48B7F886093FF76
:102BD0000DC0282F2871283119F4877E846106C022
:102BE000282F2471243111F48B7E88612091D70223
:102BF00020FF0DC0382F3871383019F4877F81607D
:102C000006C0382F3171313011F48E7F886021FF7A
:102C10000DC0282F2871283119F4877E816106C0E4
:102C2000282F2171213111F48E7E886194FD877ED9
:102C30000895CF93DF938238910569F1B0F4813321
:102C4000910509F46FC048F48932910509F465C013
:102C50008A32910509F46BC08AC08533910509F465
:102C600057C089339105B9F082C0833E910571F157
:102C700038F4803E9105B1F0823E910511F177C0A4
:102C8000863E9105B9F1873E9105C9F1843E9105D3
:102C900009F06DC024C02091D60220FD53C021FD53
:102CA00051C065C08091D60280FD46C08091D70298
:102CB00080FF48C08091D60284FD50C183EE90E031
:102CC0004FC18091D60282FF3AC0F4CF8091D602E4
:102CD00082FD35C08091D70280FD34C0EBCF80915A
:102CE000D70281FF35C08091D60284FD37C187EEBF
:102CF00090E036C18091D60283FF27C0F4CF809147
:102D0000D60283FD22C08091D70281FD21C0EBCF86
:102D10008091D60285FD1FC021C08091D60285FD1D
:102D20001DC019C08091D60286FD1BC01DC08091B8
:102D3000D60286FD19C015C089E390E011C182EE6C
:102D400090E00EC180EE90E00BC186EE90E008C1ED
:102D500084EE90E005C189E290E002C185E390E055
:102D6000FFC08AE290E0FCC081E390E0F9C08115E9
:102D700031E5930708F069C0811540E59407F0F04C
:102D80009C0174E0369527957A95E1F7922F937020
:102D9000482F437021E030E002C0220F331F4A95D4
:102DA000E2F73C68392B982F9F709695969540E2F4
:102DB000949FC0011124822B932BD2C0883E910591
:102DC00068F5803E910508F0CBC0883A9105B8F4CB
:102DD000853A910548F0855AE82FF0E0EE57FE4F0E
:102DE000808190E09064BCC08130910509F4B3C04B
:102DF00008F4B4C08430910508F4B0C0B1C08F3B72
:102E0000910508F0ABC0885AE82FF0E0EE0FFF1FE5
:102E1000EB57FE4F808191819464A2C0811520E21E
:102E2000920758F4811531E0930708F099C08D3E60
:102E3000910508F493C0906593C0811540E4940710
:102E400008F48CC09F70906A8BC0811525E59207AD
:102E500008F042C0811534E5930728F0982F8827A1
:102E6000846F906A7DC0811543E59407B0F09C01A2
:102E70002370332741E050E002C0440F551F2A95CC
:102E8000E2F7282F2695269580E2289F90011124AD
:102E9000CA01822B932B9A6863C0811522E59207A1
:102EA00028F4982F8827816F906A5AC09C0123705C
:102EB000332741E050E002C0440F551F2A95E2F746
:102EC000282F2695269580E2289F90011124CA017B
:102ED000822B932B9C6844C0EC01811539E5930744
:102EE000A8F48115984528F09C2F8827806F906A58
:102EF00037C0C11586E5D80788F58C2F0E94D615F6
:102F00008F7190E0982F882790622AC081152AE55A
:102F1000920790F48C2F8F700E94D61594E0D6956E
:102F2000C7959A95E1F7CF70D0E0DC2FCC27D06918
:102F30009E01282BC90114C090568115904270F44F
:102F40008D2F8F710E94D615282F2F71CE019927B2
:102F50009062922B05C081E090E002C080E090E09A
:102F6000DF91CF9108950C946027CF92DF92EF927A
:102F7000FF920F931F93CF93DF931F92CDB7DEB7CE
:102F8000EE24E394F12C05E213E09E012F5F3F4F06
:102F900045E153E064E083E00E945C14C82E88237E
:102FA00079F1D090BB028D2D90E09C012F523D4FC6
:102FB00079011981F9018081181B012F80E0101619
:102FC0005CF40150F70180818F5F808360E08D2D7C
:102FD0000E94663081E0F3CF912F17FD90E0191B1E
:102FE000112359F01F5FF70180818150808361E0D8
:102FF0008D2D0E94663081E0F3CF81110E94B317BE
:103000008C2D0F90DF91CF911F910F91FF90EF903A
:10301000DF90CF900895CF9384E090E00E942A350E
:10302000C82F82E290E00E942A352C2F30E0A901BF
:10303000582BCA01CF9108955F926F927F928F9221
:103040009F92AF92BF92CF92DF92EF92FF920F9337
:103050001F93CF93DF93CDB7DEB72F970FB6F894BA
:10306000DEBF0FBECDBF9E012F5F3F4F79018AE0CB
:10307000D9011D928A95E9F70FE511E0690184E60F
:10308000682E81E0782EAA24A394B12C2AE6822E01
:1030900021E0922EF80180818F3F09F440C0F8941E
:1030A000E82FE295EF70F0E021A18F70A50102C03A
:1030B000440F551F8A95E2F7CA01922F982B91A3CE
:1030C00092A18095892382A3789400C0E4E6F1E080
:1030D000512C31E021912F3F89F0A22FA295AF70A2
:1030E000B0E090968C9190E02F7002C095958795F6
:1030F0002A95E2F780FD02C0832F01C080E0582AA4
:10310000330F8E169F0631F7D8018C918F3F11F047
:103110000E945915B0EABA95F1F7F60150820F5F97
:103120001F4FFFEFCF1ADF0A6016710609F0B2CF0A
:103130004AE050E0B7018FEA92E00E94B4358C017A
:10314000892B41F08AE0F701AFEAB2E001900D92DD
:103150008A95E1F7F090BA020115110549F081E076
:103160008093FF020E946C279093FE028093FD02E1
:103170008091FF028823B9F08091FD029091FE02B8
:103180000E945127059778F0AFEAB2E0EF2DF0E00A
:10319000E454FD4F84EB92E02D9121938A179B0715
:1031A000D9F71092FF020115110509F0EDC00E9438
:1031B0003615E091BA029E01255F3F4F79018823C1
:1031C00009F46DC085E0D9011D928A95E9F70E2FAB
:1031D00010E004541D4F809139038A3048F449EFC0
:1031E00054E1B701C8010E947D13882359F10AC038
:1031F00080910003909101030E945127843F9140E8
:1032000070F732C040E454E1B701C8010E947D1359
:103210008823C1F045EB57E1B701C8010E947D1337
:10322000882381F04BE855E1B701C8010E947D1366
:10323000882341F049E054E1B701C8010E947D13A1
:103240008111A5C0809139038F3F19F08F5F809362
:103250003903809139038A3008F49BC00E946C279F
:10326000909301038093000380910603811102C0B3
:1032700000E0A0C085E0F70111928A95E9F710926D
:103280000603A091B902B0E0A454BD4F85E0FE0151
:103290003B9601900D928A95E1F701E08BC0F0E03A
:1032A000E454FD4FC090B9028C2D90E09C01245451
:1032B0003D4F6901F89485E0AAE1B3E001900D92D9
:1032C0008A95E1F765E070E08AE193E00E94E42EE0
:1032D000809319037894F89485E0EFE1F3E0D60148
:1032E00001900D928A95E1F77894F894E091D402D8
:1032F000F0E0EF52FD4F80818B878093250361E0E2
:1033000070E0C7010E94E42E809324037894F8941F
:10331000C0902603D0902703E0902803F090290363
:103320008091020390910303A0910403B0910503DF
:10333000C816D906EA06FB06D1F0C0920203D09265
:103340000303E0920403F09205030E9436158111F5
:103350000EC00E946027C61AD70AE80AF90AC0926E
:10336000AB02D092AC02E092AD02F092AE02789441
:10337000F89486E0EAE2F3E0AFECB6E001900D925B
:103380008A95E1F7789416C001E010E013C010921E
:1033900039038091B90290E045E050E0B7018454D0
:1033A0009D4F0E94B43521E020930603892B09F03C
:1033B00068CF5ECF802F2F960FB6F894DEBF0FBE7A
:1033C000CDBFDF91CF911F910F91FF90EF90DF90D4
:1033D000CF90BF90AF909F908F907F906F905F90B5
:1033E0000895EF92FF920F939701201B31092F3F11
:1033F000310519F010F02FEF30E0322F3095482FC3
:10340000430F08F44FEF842F620F0F91FF90EF905E
:103410000895EF92FF920F93972F093438F4B70174
:10342000601B71096F3F710519F010F06FEF70E0CC
:10343000485F5F4F4131510540F0A901485F5F4F40
:103440004131510510F06FEF70E06095482F460F45
:1034500008F44FEF842F37FF02C02D5F3F4F3595A3
:103460002795359527956091D006620F792F0F919A
:10347000FF90EF9008950F931F93522F10E0F801E3
:10348000EE0FFF1FE354FE4FE5ADF0E0B0979F0154
:103490005203D001539FB00D1124000F111FF801EA
:1034A000E750FE4F008110E00057110940039001E2
:1034B000419F300D11242A0F3B1F37FF02C02158B6
:1034C0003F4F220F232F221F330B620F1F910F91AB
:1034D0000895482F982F46FD9095E92FEF739F7020
:1034E00046FD9F5FE295EF70EE0FF0E0EB54FE4F6C
:1034F0002181299F802D212D112482958F70229565
:10350000207F822B3081982F930F892F47FD819543
:10351000805808950C94132EFF920F931F93CF930E
:10352000DF93182F062FF42EC0E0D0E02F2D402F70
:10353000612FCE010E948A1A2196CA33D105B1F7B4
:10354000DF91CF911F910F91FF900895EFECF6E07E
:1035500089E080838091580190915901A0915A018E
:1035600081839283A3838FE784838FEF858346E0F3
:1035700050E06CE170E0CF010E9438351092CE0629
:10358000089520E030E0869F212D969F200D311D6B
:103590001124C9010895CF93C82F0E94361588239E
:1035A00021F081E0CD3128F003C081E0CA3308F07A
:1035B00080E0CF910895CF92DF92EF92FF920F9328
:1035C0001F93CF93DF93F62E472FE82FF0E0711172
:1035D00006C0E555FE4F8491782F682F73C0272FC2
:1035E00030E0E555FE4FE491FE2F0E2F10E056E03F
:1035F000659FC0011124CFEFD0E0BE010E94FD34D1
:103600005BEA5603C001579F900D11248F0D911D49
:103610008F0D911D982F990F980F7E01E21AF30AD2
:10362000E09ED001E19EB00DF09EB00D11248B2FD5
:10363000499FA0011124452F55277E01E41AF50A60
:10364000E09EA001E19E500DF09E500D11246E01F0
:10365000C91AD108C29E7001C39EF00CD29EF00C14
:1036600011242F2D3327C21BD30BC09F9001C19F64
:10367000300DD09F300D1124932F6230710591F0E1
:1036800048F461157105E1F061307105B9F49E2FC0
:10369000E52F16C06430710569F040F066307105A1
:1036A00079F00CC09E2FEB2F832F0AC0EB2F8F2FAA
:1036B000952F06C09B2F8E2FE32F02C09B2F852FA7
:1036C0007E2F692FDF91CF911F910F91FF90EF9087
:1036D000DF90CF9008953F924F925F926F927F92CA
:1036E0008F929F92AF92BF92CF92DF92EF92FF9212
:1036F0000F931F93CF93DF9380906D0390906E0391
:10370000A0906F03B09070030E943615882339F0A3
:10371000C501B4010E9435276B017C0108C00E94DD
:1037200070156B017C01C818D908EA08FB080E94D3
:1037300070154B015C0160936D0370936E03809371
:103740006F0390937003A0914403E4E4F3E08A2FA5
:1037500090E04FEF5FEF60E070E04C195D096E099B
:103760007F09A91799F0218D328D2901612C712CC7
:10377000441555056605770510F4815004C02C0DDD
:103780003D1D328F218F9F5F3296EBCF8093440394
:103790008091CF06982F937021F0682E66946694DE
:1037A00001C0612C909156019130E1F030F09230DF
:1037B000E1F1933009F444C059C31092530180924F
:1037C000F0039092F103A092F203B092F30389E226
:1037D000E4E4F3E0A5EAB6E001900D928A95E1F702
:1037E00081E02BC09091510169120CC0837090E070
:1037F0004091500150E021E08417950709F420E042
:10380000822F01C081E08170809355018091D406A0
:1038100090915401981709F441C08093540140E0FD
:1038200060E080E00E948C1A39C060925101837080
:10383000809350010E94382E83E08093560116C376
:103840008091CE06882351F046E050E06CE170E0B4
:103850008FEC96E00E9438351092CE06C090F003AF
:10386000D090F103E090F203F090F3030E9436153C
:10387000882329F0C701B6010E94352706C00E949F
:1038800070156C197D098E099F09603171058105DC
:10389000910508F4EBC210925601E8C2862D90E023
:1038A0008930910580F0809153018F5F809353019F
:1038B00082E080935601809155018111D7C2662024
:1038C00009F4BACFD3C2FC01EE59FF4F0C94AE35C8
:1038D00080915501882309F4C0C240E060E080E097
:1038E0000E948C1ABAC280915301CCE08C9FC02DEB
:1038F0001124DCE0DC0FDB3308F0DAE30E9436153C
:10390000882319F0DE3108F0DDE10E9436158111BF
:1039100003C0CD3108F4CDE16091D0067091D1069D
:103920008091D2060E94DB1A162F072FF82ECD1792
:1039300008F000C1EC2FF0E0DF01A359BD4F8C91DE
:1039400090915401982331F02F2D412F602FCF01FA
:103950000E948A1ACF5FEBCFC09153018CE0C89FC1
:10396000C02D1124DCE0DC0FDB3308F0DAE30E9429
:103970003615882319F0DE3108F0DDE10E94361596
:10398000811103C0CD3108F4CDE10091D006109132
:10399000D106F090D2066091D3066695669566953D
:1039A0008091F0039091F1030E94C11A0E94691A5C
:1039B000805887FD8195880F282F3F2D239F212D2B
:1039C0001124822FB8010E94DB1A162F072FF82E20
:1039D000CD1708F0AFC0EC2FF0E0DF01A359BD4FC9
:1039E0008C9190915401982331F02F2D412F602F0D
:1039F000CF010E948A1ACF5FEBCFC09153018CE0B8
:103A0000C89FC02D1124DCE0DC0FDB3308F0DAE3C3
:103A10000E943615882319F0DE3108F0DDE10E949E
:103A20003615811103C0CD3108F4CDE16091D30684
:103A30006695669521E0620F08F46FEF8091F003C0
:103A40009091F1030E94C11AF82ECD1708F072C0B0
:103A50000C2F10E0F801E359FD4F90818091540143
:103A6000892399F07091D106F801EE0FFF1FE750FE
:103A7000FE4F60816F198091D2060E94DB1A462F9B
:103A8000282F672FC8010E948A1ACF5FDECFC0910E
:103A900053018CE0C89FC02D1124DCE0DC0FDB3328
:103AA00008F0DAE30E943615882319F0DE3108F0B9
:103AB000DDE10E943615811103C0CD3108F4CDE15E
:103AC0006091D306669566958091F0039091F1031D
:103AD0000E94C11A182F80E4810F0E94691AE0E841
:103AE000FE2EF80E812F0E94691AF0E8BF2EB80E44
:103AF000CD1700F5CC2ED12CF601E359FD4F908166
:103B0000809154018923A1F06091D0067091D10673
:103B10008091D206E12E0C2F2B2D4F2D0E943B1AA7
:103B20000E94DB1A462F282F672FC6010E948A1A8F
:103B3000CF5FDECF8D2F0E94CB1A90C14091AD0395
:103B40005091AE036091AF037091B0038091F00388
:103B50009091F103A091F203B091F30384179507BC
:103B6000A607B70708F479C180915501882329F089
:103B700040E060E080E00E948C1A6091D006709175
:103B8000D1068091D2060E94DB1A962E872E782EBF
:103B9000C1E7D3E00DEB11E075E0C72E78E0D72E3A
:103BA00058017E0152E0552ED7018C91882331F0C7
:103BB000F5018081272D492D682D05C0D5018C91F7
:103BC00020E040E060E090E00E948A1AF7018181E5
:103BD000D7018D937D015A94BFEFAB1ABB0A5110E8
:103BE000E3CF58017E0165E0562EF70185818823D9
:103BF00039F0D50115968C91272D492D682D05C0DA
:103C0000F501858120E040E060E090E00E948A1AA2
:103C1000D70114968C91149715968C935A94B1E011
:103C2000EB1AF108E1E0AE1AB108F3E05F12DDCF64
:103C30008B81882339F0D80113968C91272D492D3B
:103C4000682D05C0F801838120E040E060E090E04D
:103C50000E948A1A8A81882339F0D80112968C91A1
:103C6000272D492D682D05C0F801828120E040E014
:103C700060E090E00E948A1A20914E0130914F013D
:103C80002C9DC0012D9D900D3C9D900D1124875EB3
:103C9000994C90934F0180934E01890F837091E06E
:103CA00009F090E09A839B8326960A5F1F4FF3E00A
:103CB000CD3ADF0709F074CF2091D30630E1230F0E
:103CC00008F42FEF60E1822F90E00E94C11ABC013E
:103CD00088EB9BE00E94FD348091F0039091F1030A
:103CE000A091F203B091F303860F971FA11DB11DA0
:103CF0008093AD039093AE03A093AF03B093B00352
:103D0000ACC080915301CCE08C9FC02D11244CE0BD
:103D1000542E5C0E2CE3251510F43CE3532E8091B9
:103D20005501882361F040E060E080E00E948C1A39
:103D30008CE3E4EBF3E0DF011D928A95E9F78091D3
:103D40005301811115C08091B2039091B3030E9479
:103D5000512721E08931910508F420E02093B10337
:103D6000499730F00E946C279093B3038093B2037D
:103D7000D0E0A52CB12C8AE0882E912C96E0492E1B
:103D80002AEA322ECA15DB050CF05AC0CE01B40166
:103D90000E9478358B016C014C9CC0014D9C900DAC
:103DA0001124FC01EC54FC4FE60FF71F7080835484
:103DB0009E4FFC01E60FF71F80818F3F59F1E82EDF
:103DC000F12CF701E359FD4F908180915401892333
:103DD00009F1372D25E5321B08F430E07091D1064A
:103DE000232D472D240F08F42FEF4091D20682E0B7
:103DF000289F200D11242E5F249F212D1124632D37
:103E0000631B822F0E94DB1A462F282F672FC701C2
:103E10000E948A1A8091B103882381F0272D31E016
:103E2000231B08F420E04C9CC0014D9C900D1124F4
:103E30008C549C4FFC01E00FF11F20832196A2CFF0
:103E400081E04BE3451550F408C089E09AE102C0D7
:103E500081EF99E10E94E82901C080E0909153012F
:103E60009F5F90935301882309F422CDDF91CF9176
:103E70001F910F91FF90EF90DF90CF90BF90AF9088
:103E80009F908F907F906F905F904F903F9008959C
:103E90000E946C2720914003211104C0209141030E
:103EA000222321F090933D0380933C032091420311
:103EB000211104C020914303222321F090933B035E
:103EC00080933A03E0918206F0918306309749F09F
:103ED00082E080933E030480F581E02D8EE393E041
:103EE0000994089569EE7EEF80E090E00E946635C7
:103EF00060E082E090E00E94483560E083E090E07E
:103F00000E944835109268041092690410926A0465
:103F100010926B0460E084E090E00E94483560E01D
:103F200082E290E00E94483560E085E090E00E94E7
:103F3000483560E086E090E00E9448356FEF87E00A
:103F400090E00E94483540E050E0BA0188E090E0FF
:103F50000E945A3560E08DE090E00E94483540E0D4
:103F600050E0BA0188E190E00E945A3560E087E1B4
:103F700090E00E94483540E050E0BA018CE190E0CA
:103F80000E945A3560E070E080E290E00E94663561
:103F900040E050E0BA0188E190E00E945A3540E0EC
:103FA00050E0BA018FE090E00E945A3540E050E0C6
:103FB000BA0183E190E00C945A3580916704811135
:103FC00010926704089580959091660489238093E8
:103FD000660408959091660480916504982B9093EF
:103FE000F40380916704882389F0892B8093F4037C
:103FF000E6EFF3E097E080E0915029F02191222351
:10400000D9F38F5FF9CF81110E94DD1F48E050E0A6
:104010006DE574E084EF93E00E94B435892BA9F03C
:1040200088E0E4EFF3E0ADE5B4E001900D928A950D
:10403000E1F7E0918206F0918306309731F002803B
:10404000F381E02D84EF93E00994089580E090E0FF
:104050000E94D12780E090E00E94BB271092650467
:104060000E94EA1FEEE3F3E086E0DF011D928A95ED
:10407000E9F710928D0710928C0710928E070C941E
:10408000481F80915B0490912A04891719F08F5F73
:104090008770FBCF08950F931F93CF93DF93809189
:1040A000290482958F7009F05DC0809126048823D1
:1040B00009F458C080915B0410912A046091240493
:1040C00070912504C0912704D091280491E06F3F9E
:1040D00009F090E0292F06E0811709F443C02097EA
:1040E00021F07F3F21F030E003C031E001C0322FEA
:1040F00090E030FD34C0089FF001099FF00D1124BD
:10410000DF01A55DBB4F11963C911197371327C076
:104110003C91361324C012963C91129731111FC066
:1041200013964D915C9114974C1B5D0B44365105D1
:10413000B0F4809129048F70806180932904E05D40
:10414000FB4F80818F708061808384E294E00E94C5
:10415000A405DF91CF911F910F910C9441200196FE
:104160008770BACFDF91CF911F910F9108958F92F1
:104170009F92AF92BF92DF92EF92FF920F931F93A5
:10418000CF93DF938090D5069090D606A090D70667
:10419000B090D806409168045091690460916A0417
:1041A00070916B04842A952AA62AB72ACFE1D0E021
:1041B00026E0929F700111249CE3D92E082F10E075
:1041C000D501C4010C2E04C0B695A7959795879587
:1041D0000A94D2F780FD04C0219790F780E014C0C4
:1041E000DC9EF001DD9EF00D1124EE0DFF1DE00FB1
:1041F000F11FEE0FFF1FE555FD4F859194910E9431
:104200001916019749F38C2FDF91CF911F910F91D0
:10421000FF90EF90DF90BF90AF909F908F900895A8
:10422000CF93DF93EC010E94B7202CE3829FC00163
:104230001124FC0126E0D29FE00DF11D1124EC0FAA
:10424000F11DEE0FFF1FE555FD4F859194910E94E2
:104250001916DF91CF910895FC01808191810E9410
:10426000102192959F70963079F010F4925001C011
:104270009A50923068F4803F69F018F4883E40F418
:1042800009C0843F29F406C0883E20F0813F11F028
:1042900080E0089581E008959F92AF92BF92CF92FF
:1042A000DF92EF92FF920F931F93CF93DF93CDB7DF
:1042B000DEB761970FB6F894DEBF0FBECDBF8C019D
:1042C00085E0F801DE011D9601900D928A95E1F7D7
:1042D000F801E28090912404609125044091270424
:1042E000509128044115510531F06F3F31F481E0C0
:1042F0009F3F19F403C081E001C080E0F82FF17006
:104300009F2E80FD1AC1F80130812181C380D480A5
:1043100084E2A82E84E0B82EF0902604F601E41B77
:10432000F50BFF2009F4C6C080912904E436F1059D
:1043300008F091C0482F407F09F050C0621311C0AF
:1043400093130FC0FE2CE1100CC08F70806180931E
:104350002904C5010E94A40580912904F8018583E0
:1043600029C1CD2831F02F3F31F481E03F3F19F4CE
:1043700003C081E001C080E080FD03C081E08E25A4
:1043800002C080E090E0F82FF170FF2E80FF1CC08B
:1043900080915B0440912A0456E0841709F4E8C038
:1043A00090E0589FF001599FF00D1124E55DFB4FFF
:1043B0006181261306C06081631303C06281E61227
:1043C00003C001968770E9CFFE2CEE2009F4F2C0FD
:1043D0008091290481608093290449C0621306C03A
:1043E000931304C0E11002C0F80186C0C8010E9406
:1043F0002C21882351F1EE2041F120912904822FB4
:1044000082958F7090E0029774F0809124049091CF
:10441000250498878F831986DB86CA862C87CE0170
:1044200007960E94A40586E0F801A4E2B4E001909A
:104430000D928A95E1F70E944B200AC06217C9F0DD
:10444000C8010E942C2181111EC0C8010E94A40530
:10445000FF24F394AFC0482F407F81F784E294E0BB
:104460000E94A40586E0F50111928A95E9F7F12CE6
:10447000A1C09313E5CFE110E3CFF8018583C80114
:104480000E94A40554C0EE2001F320912904822F3C
:1044900082958F7090E0029734F28091240490917D
:1044A00025049A8389831B82DD82CC822E83CE01F0
:1044B0000196B7CFE436F105D0F5FE2CEE2029F2B7
:1044C000621327C0931325C02091290420FD18C032
:1044D000822F82958F70482F50E04115510581F051
:1044E000F80125834F30510541F08F5F982F929549
:1044F000907F822F8F70892B8583C8010E94A4052D
:1045000086E0F801A4E2B4E001900D928A95E1F70B
:1045100051C0C8010E942C21811185CF80912904AE
:10452000816080932904C8010E94A40543C086E0ED
:10453000F50111928A95E9F73DC0EE2009F485CF87
:10454000C8010E942C21F82E882309F47ECF86E032
:10455000F801A4E2B4E001900D928A95E1F7809110
:104560002404909125040E9410210E944B2022C017
:104570003D872E878D859E850E941021292F2295AB
:104580002F70223028F49F7039F0811105C00BC0C4
:10459000243028F49F7049F4805E883020F0C801F0
:1045A0000E94A4059F2CF92C05C0F8019581907FED
:1045B00099F7F9CF8F2D61960FB6F894DEBF0FBE35
:1045C000CDBFDF91CF911F910F91FF90EF90DF90C2
:1045D000CF90BF90AF909F900895292F220F920FF8
:1045E000990F890F682F669566956695982F977035
:1045F00085E0689FB001112440E050E080E0FB01BD
:10460000E40FF51FE450FC4F208130E0092E02C07A
:10461000369527950A94E2F721703327042E01C0BE
:10462000220F0A94EAF7822B4F5F5F4F4530510506
:1046300031F70895292F220F920F990F890FE82F34
:10464000E695E695E695877051E001C0550F8A958D
:10465000EAF785E0E89FF0011124E450FC4F20E0E8
:1046600030E070E04081CB01022E02C09695879524
:104670000A94E2F7817081958427852384278193AA
:104680002F5F3F4F2530310569F708956093D506B8
:104690007093D6068093D7069093D8060C94262064
:1046A0000F931F9341E050E060E070E004C0440FBE
:1046B000551F661F771F8A95D2F7409550956095D4
:1046C00070958091D5069091D606A091D706B091AD
:1046D000D8068A019B01082319232A233B23C901F9
:1046E000B8011F910F910C94462320915C04809592
:1046F000822380935C04982F977099F430E0482FC0
:10470000082E000C550B2417350759F09091D7024D
:1047100092FD07C08595859585950E94502310923E
:104720005C040895CF93C091D702C2FB992790F9FA
:10473000981799F080FBC2F9C093D7026091D60216
:1047400084E090E00E9448356C2F82E290E00E9465
:10475000483582E0CF910C947523CF9108950F9343
:104760001F9341E050E060E070E004C0440F551F2B
:10477000661F771F8A95D2F78091D5069091D6064D
:10478000A091D706B091D8068A019B01082B192B5E
:104790002A2B3B2BC901B8011F910F910C94462382
:1047A000609368047093690480936A0490936B0427
:1047B0000C9426201092660486E0E6EFF3E0DF0119
:1047C0001D928A95E9F70C942620882321F00E94F7
:1047D000E31F0C94EA1F0895882339F09091660432
:1047E000892B809366040C94EA1F08951F93CF933E
:1047F000DF93182FEB010E94CB31209741F08FE916
:104800009FE00197F1F700C000002197F6CF812FBC
:10481000DF91CF911F910C94933108958091900670
:10482000089580938B0670938D0660938C0680911B
:104830009B06843001F582E08093E9008FEF909130
:10484000E800815095FD06C095ED9A95F1F70000BE
:104850008111F5CF8091E80085FF0DC040E050E068
:1048600063E070E08BE896E00E94FE2A8091E80009
:104870008E778093E8000895BC0184E00C941124A5
:10488000BC0183E00C94112422E02093E9002FEF77
:104890003091E800215035FD06C035ED3A95F1F72D
:1048A00000002111F5CF2091E80025FF0BC040E06A
:1048B00050E066E070E00E94FE2A8091E8008E776A
:1048C0008093E8000895CF93DF9321E02093E900DF
:1048D0002FEF3091E800215035FD06C035ED3A95B7
:1048E000F1F700002111F5CF2091E80025FF14C059
:1048F000EC0140E050E068E070E00E94FE2A809108
:10490000E8008E778093E80088E0FE01A1E9B6E038
:1049100001900D928A95E1F7DF91CF9108951F9252
:104920000F920FB60F9211242F933F934F935F93E3
:104930006F937F938F939F93AF93BF93CF93DF93A7
:10494000EF93FF93C091E900CF708091EC00D82FD6
:10495000D17080FDD0E81092E9008091F000877F4F
:104960008093F00078940E942A2B1092E9008091A5
:10497000F00088608093F000CD2BCF70C093E900E9
:10498000FF91EF91DF91CF91BF91AF919F918F9167
:104990007F916F915F914F913F912F910F900FBE3B
:1049A0000F901F901895E8EDF0E080818E7F808356
:1049B0001092E2001092DA001092E100A0EEB0E056
:1049C0008C9181608C9380818F77808319BCA7ED57
:1049D000B0E08C918E7F8C9380818F7E808310924B
:1049E0008E0608952091E4003091E50095E640910F
:1049F000EC00842F817040FF23C08091E80080FD8F
:104A00001DC080919B06882399F0853099F0809194
:104A1000EB0085FD11C04091E4005091E5002417A2
:104A2000350729F3915011F09A01E1CF84E0089500
:104A300082E0089583E0089581E0089580E008957C
:104A40004091E80042FFDDCF089580919D0687FFE9
:104A500011C08091E80082FD05C080919B06811104
:104A6000F8CF11C08091E8008B770BC080919B0636
:104A7000882349F08091E80080FFF8CF8091E8001A
:104A80008E778093E8000895982F973068F590937B
:104A9000E900981739F07091EC002091ED005091E9
:104AA000F00003C0242F762F50E021FD02C09F5F4D
:104AB000ECCF3091EB003E7F3093EB003091ED0076
:104AC0003D7F3093ED003091EB0031603093EB008F
:104AD0007093EC002093ED005093F0002091EE00D5
:104AE00027FDE5CF80E008958F708093E90081E095
:104AF0000895CF92DF92EF92FF920F931F93CF937F
:104B0000DF93C8EDD0E088818F7E8883E7EDF0E009
:104B100080818160808384E082BF81E080938E0603
:104B200088818E7F888302EE10E0F8011082109257
:104B3000DA0081EEC82ED12CF601108288818F77A1
:104B4000888388818068888388818F7D888319BC69
:104B500010929B0610929C0610929A06109299064B
:104B600090EEE92EF12CF70180818B7F8083888184
:104B70008160888342E060E080E00E944425F60185
:104B800080818E7F8083F801808181608083808135
:104B900088608083F70180818E7F80838881806137
:104BA0008883DF91CF911F910F91FF90EF90DF905D
:104BB000CF9008951F920F920FB60F9211242F934A
:104BC0003F934F935F936F937F938F939F93AF9395
:104BD000BF93EF93FF938091E10082FF09C0809122
:104BE000E20082FF05C08091E1008B7F8093E100AD
:104BF0008091DA0080FF2AC08091D80080FF26C013
:104C00008091DA008E7F8093DA008091D90080FF56
:104C100018C080E189BD82E189BD09B400FEFDCFE5
:104C200081E080939B0680918E0681110FC00E94C7
:104C3000D3240E9479258091E20084608093E20071
:104C400005C019BC10929B0610928E068091E1005F
:104C500080FF17C08091E20080FF13C08091E200C6
:104C60008E7F8093E2008091E20080618093E20079
:104C70008091D80080628093D80019BC85E0809331
:104C80009B068091E10084FF30C08091E20084FFA8
:104C90002CC080E189BD82E189BD09B400FEFDCF51
:104CA0008091D8008F7D8093D8008091E1008F7E25
:104CB0008093E1008091E2008F7E8093E2008091FA
:104CC000E20081608093E20080919C06882311F0CD
:104CD00084E007C08091E30087FD02C081E001C04D
:104CE00083E080939B0680919B068091E10083FF87
:104CF00027C08091E20083FF23C08091E100877F7D
:104D00008093E10082E080939B0610929C06809144
:104D1000E1008E7F8093E1008091E2008E7F80939E
:104D2000E2008091E20080618093E20042E060E076
:104D300080E00E9444258091F00088608093F0001C
:104D4000FF91EF91BF91AF919F918F917F916F9163
:104D50005F914F913F912F910F900FBE0F901F9039
:104D600018952091A3063091A4062617370748F01E
:104D70006115710539F42091E8002E772093E80041
:104D800001C0B901FC0120E06115710579F1809144
:104D90009B068823F1F18530F1F18091E80083FDD5
:104DA0003CC08091E80082FD2EC08091E80080FF29
:104DB000EBCF2091F3008091F20090E0922B6115EF
:104DC000710551F08830910538F421912093F1005C
:104DD000615071090196F3CF21E0089709F020E0B6
:104DE0008091E8008E778093E800CECF2111CFCF5D
:104DF0000AC080919B06882361F0853061F0809124
:104E0000E80083FD0AC08091E80082FFF2CF80E0D5
:104E1000089582E0089583E0089581E008957894EC
:104E20001F920F920FB60F9211248F939F93AF93FF
:104E3000BF938091870690918806A0918906B091D2
:104E40008A060196A11DB11D80938706909388065E
:104E5000A0938906B0938A06BF91AF919F918F91DD
:104E60000F900FBE0F901F901895CF92DF92EF9288
:104E7000FF922FB7F894C0908706D0908806E090F4
:104E80008906F0908A062FBFA7019601261B370BD3
:104E9000480B590BCA01B901FF90EF90DF90CF90FA
:104EA00008959C014FB7F8948091870690918806E9
:104EB000A0918906B0918A064FBF821B930B08957B
:104EC0002FB7F894609187067091880680918906C3
:104ED00090918A062FBF08952FB7F8948091870686
:104EE00090918806A0918906B0918A062FBF0895F7
:104EF0001F920F920FB60F9211248F939F93AF932F
:104F0000BF9380918606811113C08091870690918E
:104F10008806A0918906B0918A064196A11DB11D0F
:104F20008093870690938806A0938906B0938A069B
:104F3000BF91AF919F918F910F900FBE0F901F90D7
:104F400018959C01FC0132969FEF80E04191461735
:104F500089F09F3F19F4411101C0982F8F5F86306F
:104F6000A9F79F3F39F0F901E90FF11D97FDFA9577
:104F7000628308950895209184063091850628174C
:104F8000390771F09093850680938406E09182063C
:104F9000F0918306309721F00084F185E02D09948B
:104FA000089520918006309181062817390771F005
:104FB0009093810680938006E0918206F0918306AB
:104FC000309721F00680F781E02D099408950E9422
:104FD0003615882351F0E0918206F09183063097D0
:104FE00021F00190F081E02D099480E008950F9365
:104FF0001F93CF93DF93C42FD22FFC01828188238C
:10500000C9F040937F060E946C2790937E068093A0
:105010007D0680E28C0F883008F072C0C77081E096
:1050200001C0880FCA95EAF7DF91CF911F910F91C8
:105030000C94EC2380917F0648133DC080917D063F
:1050400090917E060E94512784369105A0F510E2CA
:105050001D0FCD17E9F080E28C0F883040F4C77047
:1050600081E001C0880FCA95EAF70E94E523183055
:1050700090F581E09D2F977001C0880F9A95EAF70F
:105080000E94EC23093369F560E570E089E32CC0E8
:10509000093319F460E570E002C06AE070E0802F27
:1050A0000E94F623183060F5D77081E001C0880FA8
:1050B000DA95EAF70AC080E28C0F883008F5C770ED
:1050C00081E001C0880FCA95EAF7DF91CF911F9167
:1050D0000F910C94E523093351F460E570E089E306
:1050E00009C06AE070E0802F0E94F623DDCF6AE0FD
:1050F00070E0802FDF91CF911F910F910C94F623D8
:10510000DF91CF911F910F91089580917C0690912E
:105110007B06882389F0992369F062E070E08DECCA
:1051200099E00E94BF29892B19F080917B06089590
:1051300010927B0690917B0681E0892708958091EB
:105140007C068823F9F00E946027DC01CB01805A9D
:105150009541AF4FBF4F8093770690937806A09309
:105160007906B0937A0680917B0681110BC062E0CC
:1051700070E08BEC99E00E94BF29892B19F481E043
:1051800080937B0680917B060895CF93DF938A30CE
:1051900011F481E003C08D3029F480E0DF91CF91DC
:1051A0000C94B32EC62F682F8091750690917606C9
:1051B00026E0FC01AFE6B6E001900D922A95E1F7FA
:1051C000603E30F026E0FC0111922A95E9F70AC012
:1051D000F6E06F9FB001112465577B4F46E050E029
:1051E0000E941135C11137C0C0917506D091760665
:1051F00046E050E0BE018FE696E00E94B435892B70
:10520000C9F19E012F563440A90185E05695479576
:105210008A95E1F781E090E0BC0102C0660F771F3C
:105220004A95E2F740916D0450916E04462B572B3E
:105230002B5F3F4F65E0369527956A95E1F702C0F1
:10524000880F991F2A95E2F7842B952B90936E0473
:1052500080936D040FC0E0917506F09176069F0172
:105260002A5F3F4F2E173F0709F4BECF80818095FC
:105270008193F8CF9E012956344040916C04642FED
:1052800070E0C9010E94FD34481B463010F4240F21
:10529000311D211582E0380710F020E030E021595F
:1052A0003B4F3093760620937506DF91CF9108959A
:1052B0001F93CF93DF93EC01162FFE018491882377
:1052C00029F0612F0E94C5282196F7CFDF91CF9159
:1052D0001F9108950E94582981E00C94B32E0F93DA
:1052E0001F938091D5069091D606A091D706B091D4
:1052F000D8068C019D010670112722273327BC0197
:10530000CD01063011052105310511F4686001C099
:10531000677F1F910F910C9446230F931F93CF9398
:10532000DF93EC01FC0101900020E9F78F010150AF
:105330001109C017D10728F460E089910E94C5289F
:10534000F8CFDF91CF911F910F9108959091CF06E3
:105350009370A1F0811102C0946007C0893010F0F1
:10536000906203C0880F880F982B9093CF061092FD
:1053700056018091CE0681608093CE060895EF920B
:10538000FF920F931F93CF93DF93EC017B0164E6B1
:1053900070E088E70E9430328C01EC0EFD1ECE15C5
:1053A000DF0561F017FD0AC0FE01849164E670E03C
:1053B0000E94B1328C012196892B89F30E943533EA
:1053C000C801DF91CF911F910F91FF90EF90089549
:1053D0002F923F924F925F926F927F928F929F9205
:1053E000AF92BF92CF92DF92EF92FF920F931F93F3
:1053F000CF93DF93CDB7DEB72A970FB6F894DEBF11
:105400000FBECDBF9C838B83209153018CE0289FDE
:10541000802D11248987182F145F1B3308F01AE39D
:105420000E943615882319F01E3108F01DE10E94F4
:105430003615811105C039853D3110F48DE189871C
:105440002090A5069985911708F0AAC09985892E04
:10545000912CF401E359FD4F9081809154018923EF
:1054600009F49AC04090D0065090D106EEEBF6E0D9
:10547000FA83E98376EA672E76E0772E1A86312C56
:10548000C401880F991F9C0127503E4F3E832D83F6
:10549000C401880F991FFC01E650FE4FF887EF8387
:1054A000231409F468C0F30181913F01ED81FE816D
:1054B000C080D12CC81AD108EF81F885A080B12C0A
:1054C000F3018781A81AB108CC9C9001CD9C300DC6
:1054D000300D1124AA9CC001AB9C900D900D11249D
:1054E000280F391F2230310514F4022F2AC0213E23
:1054F000FEE13F074CF4C90165E0969587956A95F2
:10550000E1F748E0480F01C04FEF01E0842F90E041
:10551000800F911D95958795889FB001899F700D8B
:10552000700D11242617370718F44FEF480F04C0E9
:105530008F3F31F001E0080F401740F7015001C0E4
:105540000FEF6091D30621E0620F08F46FEFE9815D
:10555000FA8181919191FA83E9830E94C11A7C01B9
:105560009501A601B2018A85EB81FC8109952B0189
:105570008A87339495CF2091D2068A85382F329F1F
:10558000312D1124832FB2010E94DB1A462F282FC0
:10559000672FC4010E948A1A89858F5F898752CF3D
:1055A000812F2A960FB6F894DEBF0FBECDBFDF91D4
:1055B000CF911F910F91FF90EF90DF90CF90BF9010
:1055C000AF909F908F907F906F905F904F903F90A3
:1055D0002F900C94CB1A9091CF06937071F080931A
:1055E000D0066093D106453608F044E64093D206D3
:1055F0008091CE0681608093CE060895EF92FF924F
:105600000F931F93CF93DF937C018B010E94F224B1
:10561000811119C0E70101151105A1F08091E80081
:1056200085FD0AC08091E8008E778093E8000E9493
:10563000F224882381F307C089918093F1000150FF
:105640001109E9CF80E0DF91CF911F910F91FF9079
:10565000EF9008951F93CF93DF93CDB7DEB7AA974E
:105660000FB6F894DEBF0FBECDBFEDE9F6E085EAD8
:1056700096E02091F10021938E179F07D1F780913A
:105680009E06833009F461C030F4813071F08230BD
:1056900009F49BC0B2C08A3009F487C08B3009F48A
:1056A0006CC0893009F0A9C020C080919D06813A64
:1056B00009F0A3C08091E800877F8093E800809183
:1056C000A1069091A206892B21F468E081E996E079
:1056D00003C060E080E090E070E00E94B12680911D
:1056E000E8008B778093E80088C080919D06813226
:1056F00009F083C08091A1069091A206029708F05C
:105700007CC08091E800877F8093E8008091E8006A
:1057100082FD05C080919B068111F8CF6EC020915B
:10572000F3008091F20090E0922B029731F4809187
:10573000F100813011F0863021F48091F1008093E6
:1057400090068091E8008B7754C080919D06813A45
:1057500009F053C08091A1069091A206892B09F00F
:105760004CC08091E800877F8093E8008091E8003A
:1057700080FFFCCF8091520137C080919D0681321D
:10578000E1F58091A1069091A206892BB1F5809157
:10579000E800877F8093E8000E94252580919F067E
:1057A000809352010E94DA2328C080919D068132A5
:1057B00021F58091E800877F8093E8000E942525ED
:1057C0008091A00680938F0618C080919D06813A33
:1057D000A1F48091E800877F8093E8008091E80041
:1057E00080FFFCCF80918F068093F1008091E800CC
:1057F0008E778093E8000E9425258091E80083FF42
:10580000CEC180919D0690919E06492F50E04A306E
:10581000510508F0C4C1FA01E559FF4F0C94AE35AB
:10582000803821F0823809F0BAC108C08091990609
:1058300090919A06992389F082600FC08091A10609
:105840008F70873008F0ABC18093E9008091EB0046
:1058500085FB882780F91092E9009091E800977FF6
:105860009093E8008093F1001092F10065C1282F19
:105870002D7F09F094C1882319F0823061F08FC127
:1058800080919F06813009F08AC1933009F080E051
:1058900080939A062EC080919F0681112AC0809124
:1058A000A1068F702FEF280F263008F078C1809363
:1058B000E9002091EB0020FF1CC0933021F480917F
:1058C000EB00806214C09091EB0090619093EB002C
:1058D00021E030E0A90102C0440F551F8A95E2F78C
:1058E0004093EA001092EA008091EB008860809378
:1058F000EB001092E9008091E800877F20C18111C0
:105900004EC110919F061F778091E3008078812B14
:105910008093E3008091E800877F8093E8000E94F5
:1059200025258091E80080FFFCCF8091E30080680E
:105930008093E300111102C082E001C083E08093F4
:105940009B062DC18058823008F029C180919F06A6
:105950009091A0068C3D53E0950779F583E08A830A
:105960008AE289834FB7F894DE01139620E03EE087
:1059700051E2E32FF0E050935700E49120FF03C081
:10598000E295EF703F5FEF708E2F90E0EA3010F0FD
:10599000C79601C0C0968D939D932F5F243149F720
:1059A0004FBF8091E800877F8093E8006AE270E053
:1059B000CE0101960E94B126AEC04091A106509141
:1059C000A206292F332723303105A9F068F42130AE
:1059D000310509F4F3C02230310509F0E0C08BE352
:1059E00090E0EAE8FAE044C02132310521F12232A8
:1059F000310571F1D4C0992781309105A1F058F09B
:105A0000029709F0CCC0E7EDFAE0E4918E2F90E028
:105A1000E7EDFAE02AC0E5E0FBE0E4918E2F90E0AC
:105A2000E5E0FBE022C0EFEEFAE0E4918E2F90E09B
:105A3000EFEEFAE01AC04115510509F4C4C0413037
:105A4000510509F0ACC089E090E0E5EBFAE010C048
:105A50004115510509F4BCC04130510509F09FC002
:105A60008BE790E0EFECF9E003C0009709F497C0F2
:105A70002091E800277F2093E8002091A306309131
:105A8000A4068217930708F49C0140E02115310514
:105A900089F180919B06882309F43DC08530D9F1B6
:105AA0008091E80083FD37C08091E80082FD2FC01F
:105AB0008091E80080FFEACF4091F3008091F200EE
:105AC00090E0942B2115310559F08830910540F470
:105AD00044914093F1003196215031090196F2CF63
