:100000000C9457050C9474050C9474050C94DA3216
:100010000C9474050C9474050C9474050C9474057C
:100020000C9474050C9474050C9413250C94C8233B
:100030000C94B1260C9474050C9474050C947405FE
:100040000C9474050C9474050C9474050C9474054C
:100050000C9474050C9448260C9474050C94740547
:100060000C9474050C9474050C9474050C9474052C
:100070000C9474050C9474050C9474050C9474051C
:100080000C9474050C9474050C9474050C9474050C
:100090000C9474050C9474050C9474050C947405FC
:1000A0000C9474050C9474050C9474057809780903
:1000B000AA09AA091C0AC90BC90BC90B380A160BD5
:1000C000270B270B202B472BDF2C472BDF2C8F2BCD
:1000D000B22BDF2CA12CB42C00DA0281FFD9F1DB8A
:1000E00020A4A62EAF00A0C000A1C800AED580A855
:1000F0001FD300408D1420003F3F3F20200041646B
:100100006A20200053796D2020004E617620200067
:10011000416C706861002020202020002043415065
:1001200020000A0A0A0A0A0A0A0A0A000A0A0A0037
:100130005370005620005320004820004D6F005798
:10014000494E0A004D41430A004865792020426F1C
:100150006221205F5F5F5F5F00808182838485868C
:100160008788898A8B8C8D8E8F9091929394A0A191
:10017000A2A3A4A5A6A7A8A9AAABACADAEAFB0B1E7
:10018000B2B3B4C0C1C2C3C4C5C6C7C8C9CACBCC48
:10019000CDCECFD0D1D2D3D40000010101010101D5
:1001A000010101020202020202020202030303032E
:1001B00003030303040404040404040505050505FE
:1001C00006060606060707070707080808080909BC
:1001D00009090A0A0A0B0B0B0C0C0C0D0D0D0E0E67
:1001E0000E0F0F0F101011111112121313141415FA
:1001F0001516161717181819191A1A1B1B1C1D1D6E
:100200001E1E1F20202122222324242526262728C3
:1002100029292A2B2C2D2D2E2F30313232333435F3
:10022000363738393A3B3C3D3E3F404142434445F6
:10023000464748494A4C4D4E4F50515354555658D5
:10024000595A5B5D5E5F616264656668696B6C6D7F
:100250006F7072737577787A7B7D7E8082838587F5
:10026000888A8C8E8F91939596989A9C9EA0A2A333
:10027000A5A7A9ABADAFB1B3B5B7BABCBEC0C2C438
:10028000C6C9CBCDCFD1D4D6D8DBDDDFE2E4E7E9F8
:10029000EBEEF0F3F5F8FAFDFF35001E001F00202D
:1002A0000021002200290014001A00080015001780
:1002B000002B0004001600070009000A00E1001DE1
:1002C000001B00060019000500E300E200E000A7A3
:1002D0005D2800A800350027002600250024002303
:1002E000002A00130012000C0018001C0034003318
:1002F000000F000E000D000B00E50038003700363F
:100300000010001100E700E600E400A85D2C00AE3C
:10031000000100010001000100010001000100498D
:100320000046006500000000000100E200E000E17E
:10033000000000390001007A007B007C007D000095
:1003400000010001000100010001000100010001A5
:100350000001000100010001002A00AE5DAB5D520A
:1003600000AA5D4B002A004C004F00510050004E87
:100370000001000000AD5D0000AC5D000001000167
:1003800000010001000100010001003A003B003CB7
:10039000003D003E0035001E001F0020002100220D
:1003A0000001001E021F0220022102220201002E73
:1003B000002D002E022F0230020100010001000179
:1003C0000001000100440043004200410040003FA2
:1003D00000450027002600250024002300310227C5
:1003E00002260225022402230201003100330233D7
:1003F0000030002F00010001000100010001000198
:1004000000000000000000000000000000005CCCC4
:100410005CCA5CC85CC65CC45C0000CD5CCB5CC9DB
:100420005CC75CC55C015D000000000000000000CE
:1004300000010001000100010001000000000000B7
:1004400000000000000000000000000000000000AC
:10045000000000000000000000A900A800AA0000A1
:100460000000000000AB00AE00AC00000001000185
:1004700000010001000100000007087F0807003E9E
:100480005B4F5B3E003E6B4F6B3E001C3E7C3E1C58
:1004900000183C7E3C18001C577D571C001C5E7FDA
:1004A0005E1C0000183C180000FFE7C3E7FF0000D7
:1004B0001824180000FFE7DBE7FF0030483A060E7B
:1004C00000262979292600407F05050700407F0581
:1004D000253F005A3CE73C5A007F3E1C1C080008A0
:1004E0001C1C3E7F0014227F2214005F5F005F5FB0
:1004F0000006097F017F00006689956A00606060E0
:1005000060600094A2FFA2940008047E040800101A
:10051000207E20100008082A1C0800081C2A080851
:10052000001E10101010000C1E0C1E0C0030383E67
:10053000383000060E3E0E060000000000000000ED
:10054000005F000000000700070000147F147F1404
:1005500000242A7F2A1200231308646200364956B9
:10056000205000000807030000001C22410000008A
:1005700041221C00002A1C7F1C2A0008083E080893
:1005800000008070300000080808080800000060C3
:100590006000002010080402003E5149453E000062
:1005A000427F4000007249494946002141494D338C
:1005B000001814127F10002745454539003C4A4970
:1005C00049310041211109070036494949360046A1
:1005D0004949291E000000140000000040340000BA
:1005E00000000814224100141414141400004122C5
:1005F0001408000201590906003E415D594E007C75
:100600001211127C007F49494936003E4141412286
:10061000007F4141413E007F49494941007F09092E
:100620000901003E41415173007F0808087F000026
:10063000417F4100002040413F01007F08142241DA
:10064000007F40404040007F021C027F007F040882
:10065000107F003E4141413E007F09090906003EEE
:100660004151215E007F0919294600264949493236
:100670000003017F0103003F4040403F001F204036
:10068000201F003F4038403F0063140814630003FC
:1006900004780403006159494D4300007F41414102
:1006A00000020408102000004141417F00040201C3
:1006B00002040040404040400000030708000020C2
:1006C00054547840007F2844443800384444442837
:1006D00000384444287F0038545454180000087EE1
:1006E00009020018A4A49C78007F08040478000084
:1006F000447D4000002040403D00007F1028440021
:100700000000417F4000007C04780478007C0804ED
:10071000047800384444443800FC18242418001895
:10072000242418FC007C0804040800485454542471
:100730000004043F4424003C4040207C001C204036
:10074000201C003C4030403C004428102844004C11
:100750009090907C004464544C4400000836410062
:10076000000000770000000041360800000201028E
:100770000402003C2623263C00000000000000404C
:100780004040F0F8F8FF38FFF8F83FF8F8FF38FF7E
:10079000F8F8F040404000000000000080C0C0C0F9
:1007A000800000C0C08000000080C0C000C0C00049
:1007B0000080C0C00000000000C0C0C0C0C000C0B9
:1007C000C000000000000000000000000000000069
:1007D0000000000000000000000000000000000019
:1007E0000000000000000000000000000000000009
:1007F0000000000000000000C0F0F8FC3E1E0601F2
:100800000000007F4141417F007F4141417F000066
:1008100080C0E07E5B4F5BFEC00000C000DCD7DE26
:10082000DEDED7DC00C00000000000000000000099
:10083000000000000000000000000000000000496F
:100840004949FFFFFFFFE0DFBFBF00BFBFDFE0FFA1
:10085000FFFFFF49494900000000001F3F6060E0C2
:10086000BF1F007F7F071E381E077F7F007F7F0E20
:100870001F3B716000000000007F7F0C0C0C007EAD
:100880007E007F7E0303007F7E03037E7E03037F63
:100890007E000F3E703C063C703E0F00327B4949A3
:1008A0003F7E007F7E0303001E3F69696F260000C4
:1008B0000000000000000000030F1F3F3C78706044
:1008C0000000007F4141417F007F4141417F003076
:1008D0007B7F7830202030787F3B0003000F7F0F34
:1008E0000F0F7F0F00030000000000000000000059
:1008F00000000000000000000000000000000001F7
:100900000101070F0F7F0F7F0F0F7E0F0F7F0F7FEC
:100910000F0F0701010100000000000000000000AF
:1009200001010000000000000000000000000000C5
:1009300000000000000000000000000000000000B7
:1009400000000000000000000000000000000000A7
:100950000000000000000000000000000000000097
:100960000000000000000000000000000000000087
:100970000000000000000000000000000000000077
:100980000000000000000000000000000000000067
:100990000000000000000000000000000000000057
:1009A0000000000000000000000000000000000047
:1009B00000000000000000000000AF00AE050109CB
:1009C00080A101850319012AB700150126B70095FA
:1009D0000175108100C0050C0901A10185041901F0
:1009E0002AA002150126A002950175108100C005FC
:1009F000010906A101050719E029E7150025019560
:100A00000875018102950175088101050719002902
:100A1000FF150026FF0095067508810005081901DD
:100A20002905950575019102950175039101C0098C
:100A3000023B00020100A0FA0904000001030101C9
:100A4000000921110100012240000705810308006F
:100A50000109040100010300000009211101000146
:100A6000223200070582032000011201000200006B
:100A7000000832FC87020100010200011603530046
:100A80006F0066006C0065002000430068006F0086
:100A900063000000140342007200690061006E00F0
:100AA00020004C006F0077000000040309041124AB
:100AB0001FBECFEFDAE0DEBFCDBF12E0A0E0B1E0B5
:100AC000EEECFAE602C005900D92AC3AB107D9F708
:100AD00027E0ACEAB2E001C01D92A738B207E1F707
:100AE0000E948A0C0C9465350C9400008F929F92A2
:100AF000AF92BF92CF92DF92EF92FF920F931F932C
:100B0000CF93DF93CDB7DEB72A970FB6F894DEBF49
:100B10000FBECDBFFC010081D18083819481892BE0
:100B200039F01FEFD11206C091E00F3F19F403C056
:100B300091E001C090E090FDDAC67F0185E0DE0122
:100B4000169601900D928A95E1F7F70122818E8128
:100B50009F81222349F00E940E20182F682F8E813A
:100B60009F810E94712203C00E944422182F2CE30F
:100B7000129FF001112436E0D39EE00DF11D1124E7
:100B8000E00FF11DEE0FFF1FE756FD4F0591149189
:100B9000083A8DE5180709F440C0B8F40C37110580
:100BA00009F4BBC048F40A37110509F4ECC00B374F
:100BB000110509F4D6C0F9C00D37110509F4BFC0FD
:100BC000073AEDE51E07E9F0F0C00B3AFDE51F0717
:100BD00009F459C048F4093A3DE5130741F10A3ACE
:100BE0008DE5180781F1E1C00D3A9DE5190709F47B
:100BF00074C008F464C00E3AFDE51F0709F47BC019
:100C0000D4C0F7018281882311F081E00BC081E01C
:100C10000E94A7220E94A828ECC2F70182818823A3
:100C200021F082E00E940623F5CF82E0F1CFF701A8
:100C30008281882321F083E00E940623DAC283E0C8
:100C40000E94A722D6C2F70192818091DB029923EC
:100C500069F080FF02C084E001C081E00E94C414FA
:100C60000E94432380E50E94CF30C3C280FF02C0B0
:100C700084E001C081E00E94C4140E943C2380E50E
:100C80000E949E30B6C2F70192818091DB029923C7
:100C900059F080FF02C084E001C081E00E94C414CA
:100CA0000E9443238FE4DFCF80FF02C084E001C0B5
:100CB00081E00E94C4140E943C238FE4E1CFF7013D
:100CC00092818091DB02992321F080FDC6CF8AE4D6
:100CD000CACF80FDCFCF8AE4D3CFF7019281809134
:100CE000DB02992321F080FDD8CF8DE4BCCF80FDBD
:100CF000DFCF8DE4C5CFF7018281882339F081E011
:100D00000E94C4140E9443238AE2ADCF81E00E9476
:100D1000C4140E943C238AE2B3CFF7018281882366
:100D200039F081E00E94C4140E94432386E09BCFE7
:100D300081E00E94C4140E943C2386E0A1CFF70109
:100D40008281882339F081E00E94C4140E944323E9
:100D500089E189CF81E00E94C4140E943C2389E18B
:100D60008FCFF7018281882339F081E00E94C4147B
:100D70000E9443238BE177CF81E00E94C4140E943C
:100D80003C238BE17DCFF7018281882339F081E01C
:100D90000E94C4140E9443238DE165CF81E00E942C
:100DA000C4140E943C238DE16BCF043F2CE5120755
:100DB00099F406E221EE40EE64EF7CE509C0083DBF
:100DC000ECE51E0711F506E221EE41EE68ED7CE54B
:100DD000C7010E9430270DC2053F3CE5130708F00C
:100DE0005EC1093D8CE5180731F407E225EE45EEBA
:100DF00069ED7CE5EDCF0A3D9CE5190701F708E2B6
:100E000021E045EE6AED7CE5E3CFF701828188239E
:100E100009F47AC1109248060430FDE51F0758F422
:100E20000B3F2CE5120780F4C80182509C45449783
:100E300008F054C109C002363DE5130729F0063A0F
:100E40008DE5180709F04AC10E94E8169093DB026D
:100E50008093DA0201319CE5190709F4C6C008F055
:100E600042C00930FCE51F0709F49BC000F50530BE
:100E70003CE5130709F485C078F403309CE51907B5
:100E800009F478C008F07AC002301C4509F0F7C0B8
:100E90008091DA028160F1C007302CE5120709F475
:100EA00078C008F07AC08091DA028061E6C00D3027
:100EB0008CE5180709F487C058F40B30ECE51E07E1
:100EC00009F479C008F07BC08091DA0288606FC0B5
:100ED0000F302CE5120709F480C008F082C0809121
:100EE000DA02877FCAC00E3F8CE5180709F471C08B
:100EF00000F50531ECE51E0709F485C068F40331FF
:100F00002CE5120709F475C008F095C00E94312342
:100F10008091DA028F77B1C00C3F8CE51807A9F1F8
:100F200008F054C00B3F1C4509F0A9C08091DB02BA
:100F300040C00230FDE51F0709F489C058F40115CF
:100F40003DE5130709F45AC008F069C08091DB023F
:100F500082602FC002369DE5190709F47EC0063A6B
:100F6000EDE51E0709F483C003301D4509F087C075
:100F700060E06EC08091DA0282607FC08091DA0208
:100F800016C08091DA02886078C08091DB028260AE
:100F90004FC08091DA02806270C08091DA02806472
:100FA0006CC00E9431238091DA02806866C0846040
:100FB00064C081603DC08091DA028E7F5EC0809106
:100FC000DA028D7F5AC08091DA0216C08091DB026E
:100FD00018C08091DB028D7F2BC08091DA028F7E5A
:100FE0004CC08091DA028F7D48C08091DA028F7BFD
:100FF00044C08091DA02877F8B7F3FC08091DB0203
:101000008D7F8E7F15C08091DA0282FB222720F926
:1010100091E0922790FB82F990FB83F92EC080919A
:10102000DB02982F909591708E7F892B90FB81F930
:101030008093DB0224C00E9431238091DA0287FB77
:10104000222720F991E0922790FB87F916C061E0F2
:101050008EE090E00E94A23412C08091DA0284FBFC
:10106000222720F991E0922790FB84F906C0809115
:10107000DA02982F909590FB80F98093DA026091C4
:10108000DA021091DB0284E090E00E94A234612F2A
:1010900082E290E00E94A2340E943123AAC0063F5F
:1010A000FCE51F0731F406E221EE42EE66EF7CE537
:1010B0008FCE063F2CE5120730F407E225EE44EE12
:1010C00065EF7CE585CE073F3CE5130709F09DCE33
:1010D00007E225EE46EE67EF7CE57ACE06318CE539
:1010E000180761F580912F048A7A91E009F490E065
:1010F0009093AE02882311F065E301C069E28DEBA5
:1011000093E00E94DA2617C00631FCE51F0709F0BC
:1011100057C08091AE02882309F478C385E3EDEBD4
:10112000F3E023EC33E09281891301C012823196FF
:101130002E173F07C1F70E94501F5BC00B359DE57E
:101140001907C1F158F40115FCE51F07B9F00F3D6F
:101150001C4509F071C00E94D81E4BC00C353DE5FE
:10116000130751F10D351D4509F066C08091DB0272
:1011700082FB882780F991E089271FC00E943123D4
:101180009FEFE4E3FCE09150E040F040E1F700C065
:10119000000087E797E790930108809300089AE0A2
:1011A00088E10FB6F894A895809360000FBE9093E5
:1011B0006000FFCF81E001C080E00E94E9223CC0D6
:1011C00080912F0482720B3C2CE5120709F47DC339
:1011D00008F41EC30F3C3CE5130709F484C308F46C
:1011E00046C3073D2CE5120708F44BC30E351D45D9
:1011F00019F580912504877009F479C3F70182817C
:10120000882309F474C38091DB0282FD70C382E0FD
:101210002A960FB6F894DEBF0FBECDBFDF91CF91F7
:101220001F910F91FF90EF90DF90CF90BF90AF9004
:101230009F908F900C94CC22F70182810081D18005
:10124000882359F0802F9D2D0E940E20182F682F83
:10125000802F9D2D0E94712205C0802F9D2D0E9400
:101260004422182F2CE3129FF001112436E0D39E64
:10127000E00DF11D1124E00FF11DEE0FFF1FE756E9
:10128000FD4F859194910E9407158C01982EF701CE
:10129000D280A580A2943FE0A3228091250487708C
:1012A000B9F0DD20A9F0812F807F803421F080E229
:1012B000800F883068F08091DB0282FD09C082E0F7
:1012C0000E94CC22809125048770CC24C394811184
:1012D000C12CB12EB2949FE0B9228B2D90E08C30BE
:1012E000910508F056C2FC01EA5AFF4F0C944935AB
:1012F000812F807F1F70882311F01295107FDD20D1
:10130000B9F0112309F42DC280E2800F883010F06B
:10131000911006C080912F04182B10932F0405C044
:1013200080912E04182B10932E040E94501F19C276
:10133000802F0E949E30112309F42BC2005E0830DA
:1013400078F1992069F1109580912E04182310935B
:101350002E0429C0812F807F1F70803211F01295DA
:10136000107F992021F0F1E09F16D9F149C08091BA
:10137000DB0282FF1BC0DD2069F0112339F0809170
:101380002F04182B10932F040E94501F80E00E94FE
:10139000CF30FFC180E00E949E30112309F4F9C1D3
:1013A000812F0E94491F0E94501FF3C1DD2081F050
:1013B00080913004AA2051F001E0A01207C0182B40
:1013C000181709F4E6C110933004E3C1812B10C053
:1013D000AA2021F021E0A21609F4DBC10E94431FDC
:1013E00027C0DD2041F035E03A1508F4D2C1812F45
:1013F0000E944323CEC184E08A1508F4CAC118C0F4
:10140000DD2049F0AA2099F3F701858180FFA9C169
:101410008F708583ECCFAA2059F0093309F0B0C151
:10142000FFEF17EE23E0F15010402040E1F7ACC190
:10143000812F0E943C23ADC1812F869586958370B4
:1014400019F0813059F0A5C1DD2019F0C801937061
:1014500002C080E090E00E940A27A1C1DD2019F0BF
:10146000C801937002C080E090E00E94F42697C10A
:10147000812F837009F069C0D1108FC1902F929590
:1014800096959770990F990F802F8F70882E912CB9
:10149000A12CB12C092E04C0880C991CAA1CBB1CC1
:1014A0000A94D2F704FF12C04FE050E060E070E011
:1014B00004C0440F551F661F771F9A95D2F7DB01B2
:1014C000CA0180959095A095B09503C080E090E00A
:1014D000DC0116951695412F4370423019F1C8F47E
:1014E000009131041091320420913304309134047E
:1014F000413059F088299929AA29BB29BC01CD017D
:1015000060237123822393230AC0802A912AA22A6E
:10151000B32ABC01CD01682979298A299B290E9417
:1015200027233BC188299929AA29BB290091310485
:10153000109132042091330430913404BC01CD0168
:101540006027712782279327EACFDD2019F0812FAA
:10155000817001C08695882309F41FC1902F929550
:1015600096959770990F990F802F8F70882E912CD8
:10157000A12CB12C092E04C0880C991CAA1CBB1CE0
:101580000A94D2F704FF12C04FE050E060E070E030
:1015900004C0440F551F661F771F9A95D2F7DB01D1
:1015A000CA0180959095A095B09503C080E090E029
:1015B000DC0116951695412F43704230D9F068F53D
:1015C00000919E0610919F062091A0063091A106E1
:1015D000413059F088299929AA29BB29BC01CD019C
:1015E00060237123822393231EC0802A912AA22A7A
:1015F000B32A13C088299929AA29BB2900919E06DC
:1016000010919F062091A0063091A106BC01CD014A
:10161000602771278227932706C0BC01CD01682966
:1016200079298A299B290E949D22B7C01F70DD203D
:1016300039F0812F0E940623802F0E944323ADC0E2
:10164000802F0E943C23812F0E94A722A6C0802FBA
:1016500092EF991609F443C0991538F0E0EF9E1601
:1016600059F0F1EF9F16B1F177C023EF9216F1F127
:1016700034EF931659F170C0DD2019F184E08A151A
:1016800008F487C01F7181E090E0A0E0B0E0AC01F9
:10169000BD0104C0440F551F661F771F1A95D2F76E
:1016A00080919E0690919F06A091A006B091A10600
:1016B0008A019B01082719272A273B27C901B8015E
:1016C00029C025E02A1508F464C0DCCF8091DB0234
:1016D00082FF23C0DD2029F0812F8F7130C0DD20F3
:1016E000D9F3812F8F710E94A72253C0DD2079F09A
:1016F0001F7181E090E0A0E0B0E0BC01CD0104C02A
:10170000660F771F881F991F1A95D2F703C060E0F4
:1017100070E0CB010E949D223CC0DD2099F01F713A
:10172000812F0E9406238091DB0282FD07C038E0F2
:10173000139FC0011124836080932504812F0E9490
:10174000062327C081E00E94CC2281E08A1508F59B
:1017500082E00E94CC221DC0DD2029F0AA2009F4DD
:10176000BBCF802F14CEAA2009F4BBCF893341F41C
:101770009FEFE7EEF3E09150E040F040E1F704C066
:101780008FE39CE90197F1F700C00000802F0E94D1
:101790009E3088EF8B0D843010F40E942027CC20DF
:1017A000A9F08091250480FD11C0F7011282859572
:1017B000859585950E940623C7010E947605809134
:1017C00025048595859585950E94A72285E0F701DA
:1017D000DE01119601900D928A95E1F789819A8137
:1017E0000E9444229A810CE3809FF001112416E0AC
:1017F000919FE00DF11D11248981E80FF11DEE0F7D
:10180000FF1FE756FD4F8591949171C089E287CC07
:10181000063C9CE5190709F444C0B8F4043CFCE517
:101820001F07A9F1C8F5033C1C4509F005CD9091AF
:10183000980681E08927809398061092580180913C
:101840009706816080939706D4CC083C9CE51907E5
:1018500091F160F1093CFCE51F0791F10A3C1C4540
:1018600009F0EACC4EE65DE26AE77DE237C00D3C66
:10187000ECE51E0779F1A8F547E05DE265E17DE260
:101880002DC0013D1C4508F0B4CC83E02DC040EBD9
:101890005DE269EB7DE222C049EB5DE260EB7DE257
:1018A0001DC04EE95DE267EA7DE218C047EA5DE2ED
:1018B0006EE97DE213C046E85DE262E97DE20EC0BA
:1018C00042E95DE266E87DE209C04AE75DE26EE674
:1018D0007DE204C045E15DE267E07DE20E940B2EFF
:1018E00088CC81E001C082E00E94DF2882CC2A9669
:1018F0000FB6F894DEBF0FBECDBFDF91CF911F9121
:101900000F91FF90EF90DF90CF90BF90AF909F909E
:101910008F900895CF93DF93CDB7DEB72C970FB696
:10192000F894DEBF0FBECDBF84B7877F84BF0FB6EC
:10193000F894A8958091600088618093600010926F
:1019400060000FBE90E080E80FB6F89480936100CD
:10195000909361000FBE85B7806885BF85B78068AA
:1019600085BF87E692E19093AD028093AC020E941E
:101970000C240E94B2248091E20084608093E200F3
:101980007894809164068823A1F01091E9001F707B
:101990009091EC00892F817090FD80E8182B1092B7
:1019A000E9008091E80083FD0E943A2A1F7010939D
:1019B000E90082E084BD93E095BD9AEF97BD8093E6
:1019C0006E001092AF021092B0021092B10210920B
:1019D000B2020E942414809304010E9424148111F5
:1019E0000E9494328091040180910401811102C00F
:1019F00095E001C090E09093BE0285E0891B809342
:101A0000BD0203E611E058E6E52E51E0F52ED801BF
:101A10008D918D018F3F11F00E944714E016F10661
:101A2000B1F708E611E04EE6E42E41E0F42EF801AD
:101A300081918F018F3F11F00E944714E016F1064B
:101A4000B1F78AE0E0ECF2E0DF01282F1D922A9541
:101A5000E9F7E3EBF2E0DF011D928A95E9F780E018
:101A600090E00E948C34893E9E4F11F00E94D81E57
:101A700082E090E00E9484348093CA020E94E816BB
:101A80009093DB028093DA0283E090E00E9484343A
:101A9000682F70E080E090E00E94272310926E068D
:101AA000E7E8F6E087E996E02FEF3FEF21933193E7
:101AB0008E179F07D9F71092A206EBEBF6E08BEC9E
:101AC00096E02FEF3FEF219331938E179F07D9F7C1
:101AD00080E090E00E948C34893E9E4F21F00E946D
:101AE000D81E0E948B1946E050E06CE170E088E956
:101AF00096E00E94743410929706809198068C7F2D
:101B000011F40E948B190E942414811183E08093A8
:101B1000FC0280FD02C080E801C080E280933504B1
:101B20000E9428316DE070E08BEE90E00E94F82872
:101B3000892B09F043C08091FC0263E070E081FDD5
:101B40003AC088EE90E00E94F828892BB9F56DE044
:101B500070E088ED90E00E94F828892B79F50E94CA
:101B60009926DC01CB01805A9541AF4FBF4F80933E
:101B7000400690934106A0934206B0934306E8E3E3
:101B8000F4E080E092E0DF019C011D9221503040A2
:101B9000E1F7F0933F06E0933E068FEF9FEF9093BF
:101BA00037048093360481E0809345068093440691
:101BB0001092FD0203C085EE90E0C5CF8091040134
:101BC000811106C084EF8093120185EF809311018B
:101BD00080911201E82FE295EF70F0E041A1282FEB
:101BE0002F7081E090E0BC0102C0660F771F2A953C
:101BF000E2F79B01362F3095342331A332A1232BFA
:101C000022A320911101E22FE295EF70F0E031A1C3
:101C10002F7001C0880F2A95EAF7982F909593238B
:101C200091A392A1892B82A38FE891E00197F1F70C
:101C300000C0000020911201E22FE295EF70F0E069
:101C400080A190E02F7002C0959587952A95E2F7C4
:101C5000817090911101E92FE295EF70F0E020A1E1
:101C600030E09F7002C0359527959A95E2F720FDE8
:101C700002C090E001C092E0892B8093D90290913C
:101C8000040181E098279093D802891B8093BF02BA
:101C90000E942414811102C00E94973285E091E0D5
:101CA00090934C0680934B0622242394312C8091F0
:101CB0006406853009F059C020E4F22E00E112E1FB
:101CC00080916406853009F04AC0809164068430B2
:101CD00009F433C00E94452E8091D306811105C0BE
:101CE0000E94AA1A80E00E94382E91E09093D306B9
:101CF0000E94BE2710924F06A8E1B0E00FB6F894FC
:101D0000A895A09360000FBEF092600083B7817F1A
:101D1000846083BF83B7816083BF7894889583B7DD
:101D20008E7F83BF0FB6F894A8958091600088617C
:101D300080936000109260000FBE8091630688233C
:101D400009F4BECF0E94F916E0ECF2E08191811116
:101D5000A8C32AEC32E02E173F07C1F7B1CF0E948B
:101D600031230E9420271092D3060E94F916B82E24
:101D700081110E949926E0ECF2E0ABECB2E0E12C9C
:101D8000F12CAE2C11918D91812709F449C1D12CF0
:101D900001E0902F982309F43EC10E9424141023DF
:101DA000882399F0D982AA8281E0111101C080E0D4
:101DB0008B830E94A5268160782F9D838C83498127
:101DC0005A816B818D810E94202FF701E553FD4FD1
:101DD000808108270083112369F086E08E9DF00141
:101DE0008F9DF00D1124EF53FE4FED0DF11D8081FD
:101DF0008F3F11F4712C03C0C82E77247394072DE4
:101E000010E08091A206B801680F711D693071055C
:101E1000ACF188E090E04C01801A910AB8016F5F44
:101E20007F4F6E55794FA40183EA96E00E945C359E
:101E3000B801675F7F4F6E55794FA4018BEA96E03A
:101E40000E945C35A401440F551FB801660F771F2F
:101E5000675E7F4F6E55794F8BEB96E00E945C3545
:101E6000B8016F5E7F4F6E55794FA40183EB96E00A
:101E70000E945C3588E087198093A2068091A206B3
:101E800090E0AC2DB0E09D01220F331F23503E4F58
:101E9000AA0FBB1FBD0162507E4F41E0480F97154E
:101EA000A8F490E0FC01EE55F94FD9015C91518303
:101EB000DB015C915187C18A880F991FFC01EE55A7
:101EC000F94F128E118E91E0842FE7CF8093A206F6
:101ED000809198068C7F803209F0BAC0AFEFAA0DCE
:101EE00061E06A0D5FEF5D0D41E04D0D5D1580F421
:101EF00086E08E9DF0018F9DF00D1124EF57FC4F71
:101F0000E50FF11D208130E1230F08F42FEF20832E
:101F10002D2D30E076E07E9DC0017F9D900D112437
:101F20008F579C4FFC01E20FF31F708110E2710F7D
:101F300008F47FEF7083463049F0FC01E40FF11D97
:101F4000708110E1710F08F47FEF70836A3079F1CE
:101F500070E05D1580F486E0869FF001879FF00DAC
:101F60001124EF57FC4FE50FF11D10810DE0100F0C
:101F700008F41FEF1083E6E0E69FC001E79F900D95
:101F800011248F579C4FFC01E20FF31F608170E119
:101F9000670F08F46FEF6083463049F0FC01E40FEF
:101FA000F11D60817DE0670F08F46FEF6083AA1573
:101FB00008F04EC0B0E05D1580F486E08A9FF00125
:101FC0008B9FF00D1124EF57FC4FE50FF11D508151
:101FD0006DE0560F08F45FEF508386E08A9FF001B2
:101FE0008B9FF00D1124CF018F579C4FFC01E20F06
:101FF000F31F208130E1230F08F42FEF20834630B8
:1020000039F1FC01E40FF11D20813DE0230F08F4BC
:102010002FEF20831DC0D394000F26E0D212B9CE3B
:102020003FEFE31AF30A6AE0E616F10409F0A9CEDD
:102030008FEF8E838F8318860E94A5268160782F6C
:102040009A8789874E815F8168858A850E94202FC3
:102050000E9424140E94452EE091D9025E2F550F54
:10206000550F20911201E22FE295EF70F0E080A170
:1020700090E02F7002C0959587952A95E2F78170C0
:10208000992740911101E42FE295EF70F0E020A133
:1020900030E04F7002C0359527954A95E2F7F90177
:1020A000E170FF2720FF02C0E2E0F0E0E82BF92B0F
:1020B000E52BE093D9021091D802EF70F0E0E259DD
:1020C000FE4F90818091D702890F8093D702823092
:1020D00074F0E12FF0E0EB52FD4F80818F5F808341
:1020E00060E0812F0E948530DD24D39401C0D12C83
:1020F0008091D7028F3F6CF4E12FF0E0EB52FD4F5F
:1021000080818150808361E0812F0E948530DD24B1
:10211000D3948091D702082E000C990B62E070E0F6
:102120000E9435358093D702D1100E94901680917D
:102130004506882309F4A6C18091FE029091FF0212
:102140000E948A26C29708F49BC00E94A5269093FD
:10215000FF028093FE0288E394E090933F06809311
:102160003E060E94241460E0882309F485C089E4B7
:1021700091E00E94A32860919E0670919F06809135
:10218000A0069091A1060E94C82F8330F1F510910E
:10219000980616951695A0909906E0909A06F090EC
:1021A0009B0600919C068091DB0260E080FF03C0EB
:1021B00084E491E002C08FE391E00E94A3288FE5C0
:1021C00091E00E94C62881E00E94C32D612F8CE31C
:1021D00091E00E9418306A2D89E391E00E94183046
:1021E0006E2D86E391E00E9418306F2D83E391E01D
:1021F0000E941830602F80E391E00E94183060E068
:102200008CE291E00E94912812C060E082E291E0AD
:102210000E9491280E94202781FF04C061E08CE188
:1022200091E003C060E086E191E00E94A328609104
:102230009E0670919F068091A0069091A1060E9433
:10224000C82F813069F040F0823071F0833081F422
:1022500060E08EEF90E012C060E080E191E00EC09F
:1022600060E08AE091E00AC060E084E091E006C0AE
:1022700060E088EF90E002C089E591E00E9491283B
:1022800080914506882309F4E2C0209136043091FC
:1022900037042115310509F4DAC08091FD0281115E
:1022A000D6C0482E512C7101082E02C0EE0CFF1C26
:1022B0000A94E2F7A9014E215F21452B11F48F5FAB
:1022C000F0CF9091FC02920175E0220F331F7A95B6
:1022D000E1F790FD12C08295880F807680931501FA
:1022E000220F232F221F330B319520931801815E7B
:1022F000809316011092190112C055E0369527956A
:102300005A95E1F7220F220F220F20931501109208
:102310001801295F2093160183E08093190124E6B8
:1023200030E047E050E063E171E088E70E94DF3190
:10233000892B09F08CC08091FC0280FD23C0C20172
:1023400045E0880F991F4A95E1F7AC01485C5B4F67
:1023500004E610E020E230E060E488E70E94063204
:10236000892B09F074C00E94D827E094F0948091E2
:10237000360490913704E822F922F0923704E09273
:10238000360465C080E2ECEDF2E0DF011D928A9533
:10239000E9F735E0440C551C3A95E1F7E2E8F1E045
:1023A000FC87EB874EE751E0AB85BC858D91BC8700
:1023B000AB87FA019191AF018201090F111D085CF1
:1023C0001B4F90E084529D4FFC0127E0922E9F010D
:1023D000281B390B722C01C0770C2A95EAF7B8013B
:1023E000812CDB01AD90BD01A720292D2819277074
:1023F000622E022E000C330BBA2D01C0BB0F6A9463
:10240000EAF76B2E3195219531092770332701C0EA
:10241000A6942A95EAF76A28A0806A2860828394A5
:1024200028E08212DECF9A9431963FEF9312CFCFFD
:1024300066E871E08B859C856817790709F0B4CF51
:1024400004E610E020E230E04CED52E085CF8091D0
:1024500044068823B9F00E94992600914006109105
:1024600041062091420630914306DC01CB01801BDE
:10247000910BA20BB30B8F3F9F4FAF4FBF4710F491
:102480000E94BE27B11001C0D1100E94D8270E941F
:10249000202790910003891709F409CC8093000349
:1024A00006CC09BD19BD09B400FEFDCF8091D8004E
:1024B0008F7D8093D8008091E00082608093E0005F
:1024C0008091E00081FDFCCF0E943123F9CB80E0B8
:1024D0000895AF92BF92CF92DF92EF92FF920F9347
:1024E0001F93CF93DF937C015B016A0180913D03D1
:1024F0008A3018F001E010E002C00AE010E0C1E00C
:10250000D0E0F894B501C701F601099578948111DE
:1025100015C021960C171D0794F0CC9F9001CD9FFC
:10252000300D300D112480E090E045E34A95F1F73D
:102530000000019682179307C1F7E3CF81E0DF9196
:10254000CF911F910F91FF90EF90DF90CF90BF90B0
:10255000AF900895CF92DF92EF92FF920F931F9367
:10256000CF93DF93C82F7B01D42F6901FB016081DA
:102570007181828193810E946E2664367105810586
:10258000910510F4DD2339F10C2E000CDD0B011543
:102590001105A9F0FE0183E0EE0FFF1F8A95E1F718
:1025A000E65EFE4F81819281835E9C4F408150E0C8
:1025B0000417150708F4A801B6010E945C35CE0186
:1025C0000E948033882341F00E949926F70160839E
:1025D00071838283938381E0DF91CF911F910F916B
:1025E000FF90EF90DF90CF9008950F931F93CF93BC
:1025F000DF93CDB7DEB727970FB6F894DEBF0FBED7
:10260000CDBF86E0E8E9F6E0DE01119601900D927B
:102610008A95E1F78091D3068F8347E050E06EE220
:1026200073E0CE0101960E944F3541E0892B09F4F9
:1026300040E007E010E09E012F5F3F4F69E373E049
:1026400086E00E94AA1227960FB6F894DEBF0FBE4E
:10265000CDBFDF91CF911F910F9108950F931F93DD
:10266000CF93DF93EC0145E050E063E273E00E941A
:102670004F3541E0892B09F440E005E010E09E0170
:1026800065E173E082E00E94AA12DF91CF911F9171
:102690000F9108956F927F928F929F92AF92BF9207
:1026A000CF92DF92EF92FF920F931F93CF93DF931E
:1026B0001F92CDB7DEB7C62E4A015901682E880F8A
:1026C0007708C3010E948033882309F466C0C301E0
:1026D00023E0880F991F2A95E1F7FC01E65EFE4F83
:1026E000438150E04115510511F041E050E0FC01FB
:1026F000E65EFE4F64817581635E7C4FCE0101967C
:102700000E945C35F40160817181828193810E9415
:102710006E26643671058105910538F4B701C8014C
:102720000E94F42D99818917D1F10C2C000CDD0841
:10273000C6010E948033782E8823E1F0E114F10471
:10274000C9F0960183E0220F331F8A95E1F7F90162
:10275000E65EFE4F438150E0E416F50608F4A7015B
:10276000F901E65EFE4F64817581635E7C4FC501B1
:102770000E945C35B701C8010E94F42D91E02981C7
:10278000281390E0D92ED72089F00E949926F401D1
:10279000608371838283938309C0D12C02C0DD24BE
:1027A000D394A701B801C5010E945C358D2D0F900F
:1027B000DF91CF911F910F91FF90EF90DF90CF901D
:1027C000BF90AF909F908F907F906F900895CF9221
:1027D000DF92EF92FF920F931F93CF93DF9300D07E
:1027E00000D01F92CDB7DEB76B0185E0E82EF12C4B
:1027F0000EE113E09E012F5F3F4F41E153E061E0A6
:1028000080E00E944A13882349F095E0FE0131964A
:10281000ACE0B3E001900D929A95E1F795E0ECE021
:10282000F3E0D60101900D929A95E1F70F900F9089
:102830000F900F900F90DF91CF911F910F91FF900C
:10284000EF90DF90CF90089580910B03811118C015
:1028500088EC9091E30097FD0AC0EFE3FCE9319723
:10286000F1F700C000008150A1F782E001C081E0D3
:1028700080930B03823021F40E940C241092640692
:1028800081E090910B03913009F080E00895F89475
:10289000E82FE295EF70F0E031A1282F2F7081E052
:1028A00090E001C0880F2A95EAF7982F909593231E
:1028B00091A392A1892B82A3789408950F931F93DB
:1028C0000E942414882321F01F910F910C949926C3
:1028D0000E9499260091AF021091B0022091B1029E
:1028E0003091B202600F711F821F931F1F910F91D1
:1028F0000895CF93DF9300D000D0CDB7DEB76091BD
:1029000035037091360380913703909138030E940C
:102910006E26643671058105910570F10E945E1482
:10292000DC01CB010296A11DB11D89839A83AB8383
:10293000BC838091430190914401835E9C4F409100
:10294000420150E04530510510F044E050E0BE0136
:102950006F5F7F4F0E945C3585E090E00E9480337E
:10296000882359F00E9499266093350370933603AB
:10297000809337039093380381E00F900F900F906E
:102980000F90DF91CF9108959091DA0292FF0DC0E0
:10299000282F2871283019F4877F846006C0282FDB
:1029A0002471243011F48B7F886093FF0DC0282F91
:1029B0002871283119F4877E846106C0282F24717C
:1029C000243111F48B7E88612091DB0220FF0DC041
:1029D000382F3871383019F4877F816006C0382F5E
:1029E0003171313011F48E7F886021FF0DC0282FA6
:1029F0002871283119F4877E816106C0282F217142
:102A0000213111F48E7E886194FD877E0895CF93E5
:102A1000DF938238910569F1B0F48133910509F4AF
:102A20006FC048F48932910509F465C08A32910576
:102A300009F46BC08AC08533910509F457C0893306
:102A40009105B9F082C0833E910571F138F4803E62
:102A50009105B1F0823E910511F177C0863E910556
:102A6000B9F1873E9105C9F1843E910509F06DC029
:102A700024C02091DA0220FD53C021FD51C065C061
:102A80008091DA0280FD46C08091DB0280FF48C061
:102A90008091DA0284FD3FC183EE90E03EC18091D7
:102AA000DA0282FF3AC0F4CF8091DA0282FD35C0AB
:102AB0008091DB0280FD34C0EBCF8091DB0281FF8F
:102AC00035C08091DA0284FD26C187EE90E025C1F1
:102AD0008091DA0283FF27C0F4CF8091DA0283FD70
:102AE00022C08091DB0281FD21C0EBCF8091DA0210
:102AF00085FD1FC021C08091DA0285FD1DC019C06F
:102B00008091DA0286FD1BC01DC08091DA0286FD2D
:102B100019C015C089E390E000C182EE90E0FDC0CD
:102B200080EE90E0FAC086EE90E0F7C084EE90E090
:102B3000F4C089E290E0F1C085E390E0EEC08AE263
:102B400090E0EBC081E390E0E8C0811532E59307A7
:102B500008F069C0811541E5940728F0982F88276F
:102B6000816F906ADAC0883E910568F5803E9105D4
:102B700008F0D3C0883A9105B8F4853A910548F039
:102B8000855AE82FF0E0EA57FE4F808190E090648C
:102B9000C4C08130910509F4BBC008F4BCC08430C6
:102BA000910508F4B8C0B9C08F3B910508F0B3C0D7
:102BB000885AE82FF0E0EE0FFF1FE757FE4F8081A5
:102BC00091819464AAC0811520E59207F0F09C01E0
:102BD00074E0369527957A95E1F7922F9370482FF8
:102BE000437021E030E002C0220F331F4A95E2F724
:102BF0003C68392B8F70982F9695969540E2949F5C
:102C0000C0011124822B932B88C0811530E49307D7
:102C100018F09F70906A81C09C013A9521153F4140
:102C200008F47BC078C0EC01C11586E5D807E8F54B
:102C3000C11525E5D20748F08C2F0E94C4148F716E
:102C400090E0982F8827906268C0C11534E5D307BB
:102C500028F09C2F8827846F906A5FC0AE01437074
:102C600055272C2F26952695C115D34578F481E05C
:102C700090E002C0880F991F4A95E2F740E2249F36
:102C800090011124822B932B9C6847C081E090E037
:102C900002C0880F991F4A95E2F740E2249F9001F5
:102CA0001124822B932B9A6838C0C1152AE5D207CC
:102CB000F8F4C11539E5D30790F08C2F8F700E947E
:102CC000C41494E0D695C7959A95E1F7CF70D0E0FB
:102CD000DC2FCC27D0699E01282BC9011EC0C1154D
:102CE00048E5D407C0F09C2F8827806F906A15C0F4
:102CF000CE0190568115904270F48D2F8F710E94F5
:102D0000C414282F2F71CE0199279062922B05C0F1
:102D100081E090E002C080E090E0DF91CF910895E3
:102D20000C949926CF92DF92EF92FF920F931F930C
:102D3000CF93DF931F92CDB7DEB7EE24E394F12C4F
:102D400009E213E09E012F5F3F4F49E153E064E049
:102D500083E00E944A13C82E882379F1D090BF02E5
:102D60008D2D90E09C012B523D4F79011981F90185
:102D70008081181B012F80E010165CF40150F701D0
:102D800080818F5F808360E08D2D0E94853081E09F
:102D9000F3CF912F17FD90E0191B112359F01F5FFE
:102DA000F70180818150808361E08D2D0E94853004
:102DB00081E0F3CF81110E9490168C2D0F90DF914E
:102DC000CF911F910F91FF90EF90DF90CF900895DA
:102DD000CF9384E090E00E948434C82F82E290E098
:102DE0000E9484342C2F30E0A901582BCA01CF91C6
:102DF00008957F928F929F92AF92BF92CF92DF926F
:102E0000EF92FF920F931F93CF93DF93CDB7DEB76F
:102E10002F970FB6F894DEBF0FBECDBF9E012F5F78
:102E20003F4F79018AE0D9011D928A95E9F703E6BF
:102E300011E0690188E6A82E81E0B82E88248394E9
:102E4000912CF80180818F3F09F441C0F894E82F5C
:102E5000E295EF70F0E021A18F70A40102C0440F51
:102E6000551F8A95E2F7CA01922F982B91A392A140
:102E70008095892382A3789400C0E8E6F1E0712C64
:102E800031E021912F3F89F0A22FA295AF70B0E0E1
:102E900090968C9190E02F7002C0959587952A9519
:102EA000E2F780FD02C0832F01C080E0782A330F53
:102EB00051E0EE36F50729F7D8018C918F3F11F0DC
:102EC0000E944714B0EABA95F1F7F60170820F5FDD
:102ED0001F4FFFEFCF1ADF0AA016B10609F0B1CFDE
:102EE0004AE050E0B70183EB92E00E944F358C013D
:102EF000892B41F08AE0F701A3EBB2E001900D923B
:102F00008A95E1F7F090BE020115110549F081E0C4
:102F1000809303030E94A5269093020380930103EC
:102F2000809103038823B9F08091010390910203FB
:102F30000E948A26059778F0A3EBB2E0EF2DF0E02F
:102F4000E054FD4F88EB92E02D9121938A179B0767
:102F5000D9F7109203030115110509F0FCC00E9476
:102F60002414E091BE029E01255F3F4F7901882322
:102F700009F46DC085E0D9011D928A95E9F70E2FFD
:102F800010E000541D4F80913D038A3048F447EE15
:102F900053E1B701C8010E946912882359F10AC0A0
:102FA00080910403909105030E948A26843F9140FA
:102FB00070F732C04EE253E1B701C8010E946912B6
:102FC0008823C1F042E956E1B701C8010E946912A5
:102FD000882381F049E754E1B701C8010E946912D2
:102FE000882341F045EF52E1B701C8010E94691200
:102FF0008111B4C080913D038F3F19F08F5F8093A2
:103000003D0380913D038A3008F4AAC00E94A526A2
:10301000909305038093040380910A03811102C0F9
:1030200000E0AFC085E0F70111928A95E9F71092B0
:103030000A03A091BD02B0E0A054BD4F85E0FE019F
:103040003B9601900D928A95E1F701E09AC0F0E07D
:10305000E054FD4FC090BD028C2D90E09C012054A7
:103060003D4F6901F89485E0AEE1B3E001900D9227
:103070008A95E1F765E070E08EE193E00E94F42D1F
:1030800080931D037894F89485E0E3E2F3E0D601A1
:1030900001900D928A95E1F77894F894E091D80226
:1030A000F0E0EB52FD4F80818B878093290361E034
:1030B00070E0C7010E94F42D809328037894F8945F
:1030C000C0902A03D0902B03E0902C03F0902D03A6
:1030D0008091060390910703A0910803B091090322
:1030E000C816D906EA06FB06D1F0C0920603D092B4
:1030F0000703E0920803F09209030E94241481114F
:103100000EC00E949926C61AD70AE80AF90AC09288
:10311000AF02D092B002E092B102F092B202789483
:10312000F89486E0EEE2F3E0A8E9B6E001900D92B3
:103130008A95E1F7F0903403FF2049F08091D3069F
:10314000811105C00E94AA1A80E00E94382EF092D8
:10315000D306789416C001E010E013C010923D032E
:103160008091BD0290E045E050E0B70180549D4F52
:103170000E944F3521E020930A03892B09F059CF93
:103180004FCF802F2F960FB6F894DEBF0FBECDBF66
:10319000DF91CF911F910F91FF90EF90DF90CF9033
:1031A000BF90AF909F908F907F900895EF92FF9285
:1031B0000F939701201B31092F3F310519F010F0B3
:1031C0002FEF30E0322F3095482F430F08F44FEFA8
:1031D000842F620F0F91FF90EF900895EF92FF926E
:1031E0000F93972F093438F4B701601B71096F3FB3
:1031F000710519F010F06FEF70E0485F5F4F4131DB
:10320000510540F0A901485F5F4F4131510510F071
:103210006FEF70E06095482F460F08F44FEF842F52
:1032200037FF02C02D5F3F4F359527953595279580
:1032300060919906620F792F0F91FF90EF9008959A
:103240000F931F93522F10E0F801EE0FFF1FEF5363
:10325000FE4FE5ADF0E0B0979F015203D001539FC0
:10326000B00D1124000F111FF801E350FE4F008133
:1032700010E00057110940039001419F300D1124C7
:103280002A0F3B1F37FF02C021583F4F220F232F29
:10329000221F330B620F1F910F910895482F982F13
:1032A00046FD9095E92FEF739F7046FD9F5FE29575
:1032B000EF70EE0FF0E0E754FE4F2181299F802D43
:1032C000212D112482958F702295207F822B3081B1
:1032D000982F930F892F47FD8195805808950C945E
:1032E000232DFF920F931F93CF93DF93182F062F59
:1032F000F42EC0E0D0E02F2D402F612FCE010E9490
:103300006F192196CA33D105B1F7DF91CF911F9183
:103310000F91FF900895E8E9F6E089E080838091BD
:103320005C0190915D01A0915E0181839283A383F2
:103330008FE784838FEF858346E050E06CE170E097
:10334000CF010E949234109297060895BC018230FA
:10335000910508F40895613E8EE1780748F49B01D9
:1033600095E0369527959A95E1F748E0420F01C020
:103370004FEF91E0242F30E0290F311D359527952F
:10338000229FF001239FF00DF00D11246E177F078F
:1033900018F44FEF420F04C02F3F39F091E0920F25
:1033A000491740F78FEF890F08958FEF08950F9316
:1033B000CF93DF93D72FC82F47FD4195E8E3F0E087
:1033C000CF01841B910947FD9395889FB001899F88
:1033D000700D700D1124229FC001239F900D900D40
:1033E0001124860F971F0E94A619682F660F860F5B
:1033F000682F600F7D2F8C2FDF91CF910F91089553
:1034000020E030E0869F212D969F200D311D112454
:10341000C9010895CF93C82F0E942414882321F056
:1034200081E0CD3128F003C081E0CA3308F080E0AC
:10343000CF910895CF92DF92EF92FF920F931F9357
:10344000CF93DF93F62E472FE82FF0E0711106C0DF
:10345000E756FE4F8491782F682F73C0272F30E0F6
:10346000E756FE4FE491FE2F0E2F10E056E0659FC9
:10347000C0011124CFEFD0E0BE010E94FB335BEA14
:103480005603C001579F900D11248F0D911D8F0D74
:10349000911D982F990F980F7E01E21AF30AE09E72
:1034A000D001E19EB00DF09EB00D11248B2F499FED
:1034B000A0011124452F55277E01E41AF50AE09E4C
:1034C000A001E19E500DF09E500D11246E01C91A0D
:1034D000D108C29E7001C39EF00CD29EF00C112444
:1034E0002F2D3327C21BD30BC09F9001C19F300DDE
:1034F000D09F300D1124932F6230710591F048F464
:1035000061157105E1F061307105B9F49E2FE52F69
:1035100016C06430710569F040F06630710579F0CD
:103520000CC09E2FEB2F832F0AC0EB2F8F2F952FD0
:1035300006C09B2F8E2FE32F02C09B2F852F7E2F3F
:10354000692FDF91CF911F910F91FF90EF90DF9046
:10355000CF9008953F924F925F926F927F928F9299
:103560009F92AF92BF92CF92DF92EF92FF920F9312
:103570001F93CF93DF93C82F80915A018C130DC0F6
:1035800020919806237030E04091590150E081E08D
:103590002417350719F480E001C081E08170809321
:1035A000570180919D0690915601981739F08093AC
:1035B000560140E060E080E00E947119C53009F0DA
:1035C00054C0D09155018CE0D89FD02D11241CE01F
:1035D0001D0F1B3308F01AE30E942414882319F0EE
:1035E0001E3108F01DE10E942414811103C0DD3159
:1035F00008F4DDE160919C06669566958091CF06A2
:103600009091D0060E94001AF82E80E48F0D0E943F
:103610004E19A0E8BA2EB80E8F2D0E944E19B0E8B0
:10362000AB2EA80ED11708F04FC0CD2ED12CF6012D
:10363000EF58FD4F9081809156018923A1F0609150
:10364000990670919A0680919B06EF2C0D2F2A2DDA
:103650004B2D0E9420190E941A1A462F282F672FDF
:10366000C6010E946F19DF5FDDCFC63098F5C2300A
:1036700009F479C008F017C1CC2309F4C6C0C130E1
:1036800009F018C180915501DCE08D9FD02D1124E7
:103690001CE01D0F1B3308F01AE30E942414811153
:1036A000E6C00E942414882309F4E6C060919906BC
:1036B00070919A0680919B060E941A1A062FF72E87
:1036C000E82ED11708F4DDC0812F01C08D2F0E9494
:1036D0000A1A35C0C83009F0A2C0809155010CE02B
:1036E000809F002D1124DCE0D00FDD3308F0DCE3F7
:1036F00080915701882361F040E060E080E00E9403
:1037000071198CE3E1E8F3E0DF011D928A95E9F796
:1037100080915501882309F46EC110E06D2E712C43
:103720003AE0832E912C46E0442E5AEA352E0615B7
:1037300017050CF477C181E0DC3308F096C0909156
:1037400055019F5F90935501811120C382E08093C2
:10375000580180915701811119C3C11117C383E02A
:103760008093580113C3D09155018CE0D89FD02D80
:1037700011241CE01D0F1B3308F01AE30E942414CF
:10378000882319F01E3108F01DE10E9424148111D4
:1037900003C0DD3108F4DDE1F090990600919A064E
:1037A000E0909B0660919C06669566956695809173
:1037B000CF069091D0060E94001A0E944E198058A0
:1037C00087FD8195880F282F3E2D239F212D1124C1
:1037D000822F6F2D702F0E941A1A062FF72EE82EB7
:1037E000D11708F071CFED2FF0E0DF01AF58BD4FDA
:1037F0008C9190915601982331F02E2D402F6F2DF2
:10380000CF010E946F19DF5FEBCF809157018823B2
:1038100061F140E060E080E00E94711926C0C9308B
:1038200008F074C2C63009F080C18091570181113F
:1038300054C160919C0620E1620F08F46FEF809103
:10384000CF069091D0060E94001A65E070E00E94B9
:10385000FB33892B51F40E945B346AE370E00E94D1
:103860003535609156010E94112E80E068CF1E31DF
:1038700008F417CF1DE115CFDD3108F017CFDDE1DA
:1038800015CFED2FF0E0DF01AF58BD4F8C91909137
:103890005601982331F02E2D402F6F2DCF010E941D
:1038A0006F19DF5F0ECF80915501C33049F0C430EE
:1038B00009F44EC0809155018F5F8093550146CF2A
:1038C000DCE08D9FD02D11241CE01D0F1B3308F070
:1038D0001AE30E942414882319F01E3108F01DE118
:1038E0000E942414811103C0DD3108F4DDE16091F0
:1038F0009C066695669521E0620F08F46FEF809153
:10390000CF069091D0060E94001A082FD11708F018
:10391000DBCEED2EF12CF701EF58FD4F9081809119
:103920005601892399F070919A06F701EE0FFF1F57
:10393000E350FE4F6081601B80919B060E941A1A23
:10394000462F282F672FC7010E946F19DF5FDECF38
:10395000DCE08D9FD02D11241CE01D0F1B3308F0DF
:103960001AE30E942414882319F01E3108F01DE187
:103970000E942414811103C0DD3108F4DDE160915F
:103980009C0666958091CF069091D0060E94001A01
:10399000D82ED11708F098CEED2EF12CF701EF5864
:1039A000FD4F908180915601892319F1F701EE0FA7
:1039B000FF1FEF53FE4F25AD30E020523109F701D4
:1039C000EE0FFF1FE350FE4F408150E0405751097A
:1039D0006091990670919A0680919B060D2D0E9428
:1039E000D7190E941A1A462F282F672FC7010E9445
:1039F0006F19DF5FCECF80917F03909180030E948B
:103A00008A2621E08931910508F420E020937E0385
:103A1000499708F482CE0E94A52690938003809354
:103A20007F037BCEC801B4010E9435357B015C0168
:103A30004A9CC0014B9C900D1124FC01EF57FC4F98
:103A4000E60FF71F50808F539E4FFC01E60FF71FC4
:103A500080818F3F59F1C82ED12CF601EF58FD4FD0
:103A6000908180915601892309F1352D25E5321B7E
:103A700008F430E070919A06232D452D240F08F4A8
:103A80002FEF40919B0682E0289F200D11242E5F8E
:103A9000249F212D1124632D631B822F0E941A1A4B
:103AA000462F282F672FC6010E946F1980917E0331
:103AB000882381F0252D31E0231B08F420E04A9C67
:103AC000C0014B9C900D11248F579C4FFC01EE0DB3
:103AD000FF1D20830F5F1F4F2ACE809155010CE000
:103AE000809F002D1124DCE0D00FDB3308F0DAE3F7
:103AF0000E942414882319F0DE3108F0DDE10E94D1
:103B00002414811103C00D3108F40DE110E0ED2EF5
:103B1000F12C0E151F050CF0D9CD60915601C8018E
:103B20000E94112E0F5F1F4FF4CFC73009F0C2CE95
:103B300040917A0350917B0360917C0370917D03E7
:103B40008091CF069091D006A091D106B091D20677
:103B500084179507A607B70708F487CE8091570109
:103B6000882329F040E060E080E00E9471196091B4
:103B7000990670919A0680919B060E941A1AD62F78
:103B8000772E682E0EE313E071ECE72E71E0F72E2E
:103B9000EAE74E2EE3E05E2EF5E0AF2EF8E0BF2E12
:103BA00047016801312CD6018C91882331F0F40152
:103BB0008081262D4D2F672D05C0D4018C9120E0EA
:103BC00040E060E090E00E946F19F6018181D6012B
:103BD0008D936D013394BFEF8B1A9B0AE2E03E1286
:103BE000E2CF4701680162E0362ED60115968C912E
:103BF000882331F0F4018581262D4D2F672D06C0D5
:103C0000D40115968C9120E040E060E090E00E94A5
:103C10006F19F601848185833A94F1E0CF1AD108B7
:103C200021E0821A91083110E0CFD80113968C91CF
:103C3000882331F0F7018381262D4D2F672D06C093
:103C4000D70113968C9120E040E060E090E00E9464
:103C50006F19F8018281882339F0D70112968C916F
:103C6000262D4D2F672D05C0F701828120E040E011
:103C700060E090E00E946F19209152013091530151
:103C80002A9DC0012B9D900D3A9D900D1124875EB9
:103C9000994C9093530180935201890F837091E066
:103CA00009F090E0D80112969C93129713969C937A
:103CB0000A5F1F4FB6E0EB0EF11C4016510609F0EB
:103CC0006FCF20919C0630E1230F08F42FEF60E1C5
:103CD000822F90E00E94001ABC0188EB9BE00E94BA
:103CE000FB338091CF069091D006A091D106B09180
:103CF000D206860F971FA11DB11D80937A03909362
:103D00007B03A0937C03B0937D03AFCDCA3029F42D
:103D100086ED98E10E94212912CDCA3018F48EEE6A
:103D200098E1F8CFCF3F09F0C5CD8091CF069091B3
:103D3000D006A091D106B091D20688279C70AA2700
:103D4000BB272AE0B695A795979587952A95D1F731
:103D500082309105A105B10571F083309105A1056F
:103D6000B10569F040E00197A105B10511F060E0EF
:103D700008C064E102C044E160E080E003C044E1C7
:103D800064E184E10E94711982E0EACCDF91CF9175
:103D90001F910F91FF90EF90DF90CF90BF90AF9069
:103DA0009F908F907F906F905F904F903F9008957D
:103DB00069EE7EEF80E090E00E94C03460E082E037
:103DC00090E00E94A23460E083E090E00E94A23480
:103DD0001092310410923204109233041092340481
:103DE00060E084E090E00E94A23460E082E290E033
:103DF0000E94A23460E085E090E00E94A23460E07E
:103E000086E090E00E94A2346FEF87E090E00E948D
:103E1000A23440E050E0BA0188E090E00E94B4345F
:103E200060E08DE090E00E94A23440E050E0BA01F2
:103E300088E190E00E94B43460E087E190E00E9465
:103E4000A23440E050E0BA018CE190E00E94B4342A
:103E500060E070E080E290E00E94C03440E050E01A
:103E6000BA0188E190E00E94B43440E050E0BA0129
:103E70008FE090E00E94B43440E050E0BA0183E16A
:103E800090E00C94B434809130048111109230048D
:103E90000895809590912F04892380932F0408958D
:103EA00090912F0480912E04982B9093BD038091C4
:103EB0003004882389F0892B8093BD03EFEBF3E076
:103EC00097E080E0915029F021912223D9F38F5F70
:103ED000F9CF81110E94431F48E050E066E274E090
:103EE0008DEB93E00E944F35892BA9F088E0EDEB34
:103EF000F3E0A6E2B4E001900D928A95E1F7E0913B
:103F00004B06F0914C06309731F00280F381E02DA2
:103F10008DEB93E00994089580E090E00E940A27D9
:103F200080E090E00E94F42610922E040C94501F22
:103F3000809124049091F303891719F08F5F8770A3
:103F4000FBCF08950F931F93CF93DF938091F203DC
:103F500082958F7009F05DC08091EF03882309F48A
:103F600058C0809124041091F3036091ED03709187
:103F7000EE03C091F003D091F10391E06F3F09F09F
:103F800090E0292F06E0811709F443C0209721F023
:103F90007F3F21F030E003C031E001C0322F90E0DC
:103FA00030FD34C0089FF001099FF00D1124DF019E
:103FB000AC50BC4F11963C911197371327C03C91E0
:103FC000361324C012963C91129731111FC01396DC
:103FD0004D915C9114974C1B5D0B44365105B0F428
:103FE0008091F2038F7080618093F203E750FC4F61
:103FF00080818F70806180838DEE93E00E947605D2
:10400000DF91CF911F910F910C94981F01968770AB
:10401000BACFDF91CF911F910F9108958F929F9208
:10402000AF92BF92DF92EF92FF920F931F93CF93C5
:10403000DF9380909E0690909F06A090A006B0907F
:10404000A106409131045091320460913304709183
:104050003404842A952AA62AB72ACFE1D0E026E0A4
:10406000929F700111249CE3D92E082F10E0D501F6
:10407000C4010C2E04C0B695A795979587950A9410
:10408000D2F780FD04C0219790F780E014C0DC9E39
:10409000F001DD9EF00D1124EE0DFF1DE00FF11F6C
:1040A000EE0FFF1FE756FD4F859194910E94071573
:1040B000019749F38C2FDF91CF911F910F91FF90C2
:1040C000EF90DF90BF90AF909F908F900895CF9327
:1040D000DF93EC010E940E202CE3829FC00111248B
:1040E000FC0126E0D29FE00DF11D1124EC0FF11D23
:1040F000EE0FFF1FE756FD4F859194910E94071523
:10410000DF91CF910895FC01808191810E94672009
:1041100092959F70963079F010F4925001C09A50A9
:10412000923068F4803F69F018F4883E40F409C08A
:10413000843F29F406C0883E20F0813F11F080E0E2
:10414000089581E008959F92AF92BF92CF92DF923F
:10415000EF92FF920F931F93CF93DF93CDB7DEB70C
:1041600061970FB6F894DEBF0FBECDBF8C0185E01E
:10417000F801DE011D9601900D928A95E1F7F80194
:10418000E2809091ED036091EE034091F003509135
:10419000F1034115510531F06F3F31F481E09F3F4C
:1041A00019F403C081E001C080E0F82FF1709F2E68
:1041B00080FD1AC1F80130812181C380D4808DEE49
:1041C000A82E83E0B82EF090EF03F601E41BF50B68
:1041D000FF2009F4C6C08091F203E436F10508F02F
:1041E00091C0482F407F09F050C0621311C0931353
:1041F0000FC0FE2CE1100CC08F7080618093F20321
:10420000C5010E9476058091F203F801858329C1DA
:10421000CD2831F02F3F31F481E03F3F19F403C046
:1042200081E001C080E080FD03C081E08E2502C0F6
:1042300080E090E0F82FF170FF2E80FF1CC080918D
:1042400024044091F30356E0841709F4E8C090E099
:10425000589FF001599FF00D1124EC50FC4F6181E3
:10426000261306C06081631303C06281E61203C097
:1042700001968770E9CFFE2CEE2009F4F2C0809100
:10428000F20381608093F20349C0621306C0931366
:1042900004C0E11002C0F80186C0C8010E9483205A
:1042A000882351F1EE2041F12091F203822F829573
:1042B0008F7090E0029774F08091ED039091EE037F
:1042C00098878F831986DB86CA862C87CE0107964E
:1042D0000E94760586E0F801ADEEB3E001900D9204
:1042E0008A95E1F70E94A21F0AC06217C9F0C801AF
:1042F0000E94832081111EC0C8010E947605FF2400
:10430000F394AFC0482F407F81F78DEE93E00E9479
:10431000760586E0F50111928A95E9F7F12CA1C0A6
:104320009313E5CFE110E3CFF8018583C8010E9424
:10433000760554C0EE2001F32091F203822F82957E
:104340008F7090E0029734F28091ED039091EE032C
:104350009A8389831B82DD82CC822E83CE010196D3
:10436000B7CFE436F105D0F5FE2CEE2029F262132A
:1043700027C0931325C02091F20320FD18C0822F7F
:1043800082958F70482F50E04115510581F0F8015A
:1043900025834F30510541F08F5F982F9295907F84
:1043A000822F8F70892B8583C8010E94760586E055
:1043B000F801ADEEB3E001900D928A95E1F751C09E
:1043C000C8010E948320811185CF8091F203816012
:1043D0008093F203C8010E94760543C086E0F50190
:1043E00011928A95E9F73DC0EE2009F485CFC80106
:1043F0000E948320F82E882309F47ECF86E0F801FE
:10440000ADEEB3E001900D928A95E1F78091ED0356
:104410009091EE030E9467200E94A21F22C03D8758
:104420002E878D859E850E946720292F22952F70CB
:10443000223028F49F7039F0811105C00BC0243060
:1044400028F49F7049F4805E883020F0C8010E94F3
:1044500076059F2CF92C05C0F8019581907F99F77E
:10446000F9CF8F2D61960FB6F894DEBF0FBECDBF8A
:10447000DF91CF911F910F91FF90EF90DF90CF9040
:10448000BF90AF909F900895292F220F920F990F00
:10449000890F682F669566956695982F977085E0C9
:1044A000689FB001112440E050E080E0FB01E40F80
:1044B000F51FEB53FC4F208130E0092E02C03695EA
:1044C00027950A94E2F721703327042E01C0220FAA
:1044D0000A94EAF7822B4F5F5F4F4530510531F761
:1044E0000895292F220F920F990F890FE82FE69533
:1044F000E695E695877051E001C0550F8A95EAF779
:1045000085E0E89FF0011124EB53FC4F20E030E000
:1045100070E04081CB01022E02C0969587950A94E7
:10452000E2F78170819584278523842781932F5F0B
:104530003F4F2530310569F7089560939E067093CB
:104540009F068093A0069093A1060C948C1F0F9356
:104550001F9341E050E060E070E004C0440F551F3D
:10456000661F771F8A95D2F7409550956095709594
:1045700080919E0690919F06A091A006B091A10601
:104580008A019B01082319232A233B23C901B8016F
:104590001F910F910C949D222091250480958223D8
:1045A00080932504982F977099F430E0482F082EB7
:1045B000000C550B2417350759F09091DB0292FD42
:1045C00007C08595859585950E94A72210922504A0
:1045D0000895CF93C091DB02C2FB992790F99817F9
:1045E00099F080FBC2F9C093DB026091DA0284E0AB
:1045F00090E00E94A2346C2F82E290E00E94A234EC
:1046000082E0CF910C94CC22CF9108950F931F9309
:1046100041E050E060E070E004C0440F551F661FA9
:10462000771F8A95D2F780919E0690919F06A09160
:10463000A006B091A1068A019B01082B192B2A2BF9
:104640003B2BC901B8011F910F910C949D226093DF
:1046500031047093320480933304909334040C94A7
:104660008C1F10922F0486E0EFEBF3E0DF011D9228
:104670008A95E9F70C948C1F882321F00E94491F2A
:104680000C94501F0895882339F090912F04892BA2
:1046900080932F040C94501F08951F93CF93DF93A2
:1046A000182FEB010E94CF30209741F08FE99FE057
:1046B0000197F1F700C000002197F6CF812FDF911D
:1046C000CF911F910C949E300895089580915906C2
:1046D0000895809354067093560660935506809112
:1046E0006406843001F582E08093E9008FEF9091B9
:1046F000E800815095FD06C095ED9A95F1F7000010
:104700008111F5CF8091E80085FF0DC040E050E0B9
:1047100063E070E084E596E00E940E2A8091E80054
:104720008E778093E8000895BC0184E00C9469239F
:10473000BC0183E00C946923CF93DF9321E02093A5
:10474000E9002FEF3091E800215035FD06C035ED2E
:104750003A95F1F700002111F5CF2091E80025FFEF
:1047600014C0EC0140E050E068E070E00E940E2AC6
:104770008091E8008E778093E80088E0FE01AAE54A
:10478000B6E001900D928A95E1F7DF91CF910895FF
:104790001F920F920FB60F9211242F933F934F93B6
:1047A0005F936F937F938F939F93AF93BF93CF93B9
:1047B000DF93EF93FF93C091E900CF708091EC00FD
:1047C000D82FD17080FDD0E81092E9008091F000E0
:1047D000877F8093F00078940E943A2A1092E90033
:1047E0008091F00088608093F000CD2BCF70C09353
:1047F000E900FF91EF91DF91CF91BF91AF919F9130
:104800008F917F916F915F914F913F912F910F9079
:104810000FBE0F901F901895E8EDF0E080818E7F1D
:1048200080831092E2001092DA001092E100A0EE74
:10483000B0E08C9181608C9380818F77808319BCEC
:10484000A7EDB0E08C918E7F8C9380818F7E8083EA
:104850001092570608952091E4003091E50095E606
:104860004091EC00842F817040FF23C08091E800CC
:1048700080FD1DC080916406882399F0853099F0F1
:104880008091EB0085FD11C04091E4005091E5005E
:104890002417350729F3915011F09A01E1CF84E0F4
:1048A000089582E0089583E0089581E0089580E00E
:1048B00008954091E80042FFDDCF0895809166069B
:1048C00087FF11C08091E80082FD05C080916406D9
:1048D0008111F8CF11C08091E8008B770BC08091D7
:1048E0006406882349F08091E80080FFF8CF80912A
:1048F000E8008E778093E8000895982F973068F548
:104900009093E900981739F07091EC002091ED0038
:104910005091F00003C0242F762F50E021FD02C0FB
:104920009F5FECCF3091EB003E7F3093EB003091F6
:10493000ED003D7F3093ED003091EB00316030931E
:10494000EB007093EC002093ED005093F000209169
:10495000EE0027FDE5CF80E008958F708093E90099
:1049600081E00895CF92DF92EF92FF920F931F9311
:10497000CF93DF93C8EDD0E088818F7E8883E7ED09
:10498000F0E080818160808384E082BF81E0809359
:10499000570688818E7F888302EE10E0F80110822E
:1049A0001092DA0081EEC82ED12CF6011082888197
:1049B0008F77888388818068888388818F7D8883CA
:1049C00019BC10926406109265061092630610924C
:1049D000620690EEE92EF12CF70180818B7F8083B7
:1049E00088818160888342E060E080E00E947D24CD
:1049F000F60180818E7F8083F801808181608083D1
:104A0000808188608083F70180818E7F80838881A8
:104A100080618883DF91CF911F910F91FF90EF907C
:104A2000DF90CF9008951F920F920FB60F9211242E
:104A30002F933F934F935F936F937F938F939F93A6
:104A4000AF93BF93EF93FF938091E10082FF09C082
:104A50008091E20082FF05C08091E1008B7F80930E
:104A6000E1008091DA0080FF2AC08091D80080FFA9
:104A700026C08091DA008E7F8093DA008091D90081
:104A800080FF18C080E189BD82E189BD09B400FEC4
:104A9000FDCF81E0809364068091570681110FC09D
:104AA0000E940C240E94B2248091E20084608093D2
:104AB000E20005C019BC109264061092570680915E
:104AC000E10080FF17C08091E20080FF13C0809159
:104AD000E2008E7F8093E2008091E200806180930B
:104AE000E2008091D80080628093D80019BC85E0F4
:104AF000809364068091E10084FF30C08091E200E1
:104B000084FF2CC080E189BD82E189BD09B400FE2B
:104B1000FDCF8091D8008F7D8093D8008091E100F7
:104B20008F7E8093E1008091E2008F7E8093E2008F
:104B30008091E20081608093E20080916506882385
:104B400011F084E007C08091E30087FD02C081E09E
:104B500001C083E080936406809164068091E10047
:104B600083FF27C08091E20083FF23C08091E10092
:104B7000877F8093E10082E080936406109265064F
:104B80008091E1008E7F8093E1008091E2008E7F32
:104B90008093E2008091E20080618093E20042E035
:104BA00060E080E00E947D248091F0008860809326
:104BB000F000FF91EF91BF91AF919F918F917F9105
:104BC0006F915F914F913F912F910F900FBE0F907A
:104BD0001F90189520916C0630916D0626173707A7
:104BE00048F06115710539F42091E8002E77209383
:104BF000E80001C0B901FC0120E06115710579F1FF
:104C0000809164068823F1F18530F1F18091E8000C
:104C100083FD3CC08091E80082FD2EC08091E800B9
:104C200080FFEBCF2091F3008091F20090E0922B77
:104C30006115710551F08830910538F42191209368
:104C4000F100615071090196F3CF21E0089709F056
:104C500020E08091E8008E778093E800CECF21118C
:104C6000CFCF0AC080916406882361F0853061F05F
:104C70008091E80083FD0AC08091E80082FFF2CFB6
:104C800080E0089582E0089583E0089581E008952A
:104C900078941F920F920FB60F9211248F939F93C7
:104CA000AF93BF938091500690915106A091520608
:104CB000B09153060196A11DB11D809350069093AB
:104CC0005106A0935206B0935306BF91AF919F91A6
:104CD0008F910F900FBE0F901F901895CF92DF927B
:104CE000EF92FF922FB7F894C0905006D0905106E3
:104CF000E0905206F09053062FBFA7019601261BA5
:104D0000370B480B590BCA01B901FF90EF90DF90A8
:104D1000CF9008959C014FB7F894809150069091E0
:104D20005106A0915206B09153064FBF821B930BC0
:104D300008952FB7F89460915006709151068091B4
:104D40005206909153062FBF08952FB7F894809183
:104D5000500690915106A0915206B09153062FBF74
:104D600008951F920F920FB60F9211248F939F9365
:104D7000AF93BF9380914F06811113C0809150066D
:104D800090915106A0915206B09153064196A11DF3
:104D9000B11D8093500690935106A0935206B09394
:104DA0005306BF91AF919F918F910F900FBE0F90BF
:104DB0001F9018959C01FC0132969FEF80E0419175
:104DC000461789F09F3F19F4411101C0982F8F5F5A
:104DD0008630A9F79F3F39F0F901E90FF11D97FDE2
:104DE000FA9562830895089520914D0630914E06FC
:104DF0002817390771F090934E0680934D06E09185
:104E00004B06F0914C06309721F00084F185E02D9F
:104E1000099408952091490630914A0628173907C8
:104E200071F090934A0680934906E0914B06F09109
:104E30004C06309721F00680F781E02D0994089503
:104E40000E942414882351F0E0914B06F0914C0607
:104E5000309721F00190F081E02D099480E00895D1
:104E60000F931F93CF93DF93C42FD22FFC01828126
:104E70008823C9F0409348060E94A52690934706D0
:104E80008093460680E28C0F883008F072C0C770AD
:104E900081E001C0880FCA95EAF7DF91CF911F9199
:104EA0000F910C9443238091480648133DC0809194
:104EB0004606909147060E948A2684369105A0F501
:104EC00010E21D0FCD17E9F080E28C0F883040F41E
:104ED000C77081E001C0880FCA95EAF70E943C23A1
:104EE000183090F581E09D2F977001C0880F9A953A
:104EF000EAF70E944323093369F560E570E089E32E
:104F00002CC0093319F460E570E002C06AE070E07B
:104F1000802F0E944D23183060F5D77081E001C0CA
:104F2000880FDA95EAF70AC080E28C0F883008F51E
:104F3000C77081E001C0880FCA95EAF7DF91CF9171
:104F40001F910F910C943C23093351F460E570E0FC
:104F500089E309C06AE070E0802F0E944D23DDCF15
:104F60006AE070E0802FDF91CF911F910F910C9438
:104F70004D23DF91CF911F910F91089580914506A8
:104F800090914406882389F0992369F062E070E0EB
:104F90008BEB99E00E94F828892B19F08091440648
:104FA0000895109244069091440681E0892708955F
:104FB000809145068823F9F00E949926DC01CB01F7
:104FC000805A9541AF4FBF4F809340069093410662
:104FD000A0934206B09343068091440681110BC012
:104FE00062E070E089EB99E00E94F828892B19F4BF
:104FF00081E080934406809144060895CF93DF9327
:105000008A3011F481E003C08D3029F480E0DF9113
:10501000CF910C94C32DC62F682F80913E0690919E
:105020003F0626E0FC01A8E3B6E001900D922A9528
:10503000E1F7603E30F026E0FC0111922A95E9F795
:105040000AC0F6E06F9FB001112467587B4F46E01D
:1050500050E00E946B34C11137C0C0913E06D09120
:105060003F0646E050E0BE0188E396E00E944F35DF
:10507000892BC9F19E0128533440A90185E056953A
:1050800047958A95E1F781E090E0BC0102C0660F88
:10509000771F4A95E2F74091360450913704462B2A
:1050A000572B2B5F3F4F65E0369527956A95E1F7C3
:1050B00002C0880F991F2A95E2F7842B952B9093B5
:1050C0003704809336040FC0E0913E06F0913F060E
:1050D0009F012A5F3F4F2E173F0709F4BECF808103
:1050E00080958193F8CF9E0122533440409135043E
:1050F000642F70E0C9010E94FB33481B463010F456
:10510000240F311D211582E0380710F020E030E037
:10511000285C3B4F30933F0620933E06DF91CF91B2
:1051200008951F93CF93DF93EC01162FFE01849116
:10513000882329F0612F0E94FE272196F7CFDF9167
:10514000CF911F9108950E94912881E00C94C32D66
:105150000F931F9380919E0690919F06A091A006A9
:10516000B091A1068C019D010670112722273327DB
:10517000BC01CD01063011052105310511F468602F
:1051800001C0677F1F910F910C949D220F931F9375
:10519000CF93DF93EC01FC0101900020E9F78F0130
:1051A00001501109C017D10728F460E089910E94CD
:1051B000FE27F8CFDF91CF911F910F910895909125
:1051C00098069370A1F0811102C0946007C08B30E3
:1051D00010F0986203C0880F880F982B9093980660
:1051E00010925801809197068160809397060895E8
:1051F000EF92FF920F931F93CF93DF93EC017B010C
:1052000064E670E088E70E942E318C01EC0EFD1EF2
:10521000CE15DF0561F017FD0AC0FE01849164E63A
:1052200070E00E94AF318C012196892B89F30E9496
:105230003332C801DF91CF911F910F91FF90EF9012
:1052400008952F923F924F925F926F927F928F922A
:105250009F92AF92BF92CF92DF92EF92FF920F9305
:105260001F93CF93DF93CDB7DEB72A970FB6F8948D
:10527000DEBF0FBECDBF9C838B83109155018CE0A8
:10528000189F102D11242CE0210F29832B3310F0AF
:105290003AE339830E942414882329F089818E31CE
:1052A00010F09DE199830E942414811103C01D31E7
:1052B00008F41DE1E0916E06EA838981181708F071
:1052C00080C0A12EB12CF501EF58FD4F9081809147
:1052D0005601892309F473C02090990630909A06EC
:1052E0008EE6882E86E0982E97E8692E96E0792E35
:1052F000512C412CC501880F991F9C0123503E4F12
:105300003E832D83C501880F991FFC01E250FE4F9B
:10531000F887EF83FFEF8F1A9F0A2A81241509F47B
:105320003EC0ED81FE81F0812F2F30E0F4018081BD
:10533000281B31093A872987EF81F885C080D12C55
:10534000F4018085C81AD108C901889F9001899FFE
:10535000300D300D1124CC9CC001CD9C900D900DD2
:105360001124820F931F0E94A619082F60919C069A
:1053700021E0620F08F46FEFF301819191913F01F9
:105380000E94001A7C01960149855A85B101852D3C
:10539000EB81FC8109951B01582E4394BBCF2091D2
:1053A0009B06352D329F312D1124832FB1010E9490
:1053B0001A1A462F282F672FC5010E946F191F5FE9
:1053C0007CCF2A960FB6F894DEBF0FBECDBFDF911B
:1053D000CF911F910F91FF90EF90DF90CF90BF90F2
:1053E000AF909F908F907F906F905F904F903F9085
:1053F0002F900C940A1A90919806937071F08093F4
:10540000990660939A06453608F044E640939B0659
:10541000809197068160809397060895EF92FF929E
:105420000F931F93CF93DF937C018B010E942B245A
:10543000811119C0E70101151105A1F08091E80063
:1054400085FD0AC08091E8008E778093E8000E9475
:105450002B24882381F307C089918093F1000150A8
:105460001109E9CF80E0DF91CF911F910F91FF905B
:10547000EF9008951F93CF93DF93CDB7DEB7AA9730
:105480000FB6F894DEBF0FBECDBFE6E6F6E08EE6BF
:1054900096E02091F10021938E179F07D1F780911C
:1054A0006706833009F461C030F4813071F08230D6
:1054B00009F49BC0B2C08A3009F487C08B3009F46C
:1054C0006CC0893009F0A9C020C080916606813A7D
:1054D00009F0A3C08091E800877F8093E800809165
:1054E0006A0690916B06892B21F468E08AE596E0C4
:1054F00003C060E080E090E070E00E94EA258091C7
:10550000E8008B778093E80088C08091660681323E
:1055100009F083C080916A0690916B06029708F0AB
:105520007CC08091E800877F8093E8008091E8004C
:1055300082FD05C0809164068111F8CF6EC0209174
:10554000F3008091F20090E0922B029731F4809169
:10555000F100813011F0863021F48091F1008093C8
:1055600059068091E8008B7754C080916606813A95
:1055700009F053C080916A0690916B06892B09F05F
:105580004CC08091E800877F8093E8008091E8001C
:1055900080FFFCCF8091540137C080916606813234
:1055A000E1F580916A0690916B06892BB1F58091A7
:1055B000E800877F8093E8000E945E24809168065F
:1055C000809354010E94312328C080916606813265
:1055D00021F58091E800877F8093E8000E945E2497
:1055E000809169068093580618C080916606813ABA
:1055F000A1F48091E800877F8093E8008091E80023
:1056000080FFFCCF809158068093F1008091E800E4
:105610008E778093E8000E945E248091E80083FFEB
:10562000CEC18091660690916706492F50E04A30BE
:10563000510508F0C4C1FA01EE59FF4F0C944935E9
:10564000803821F0823809F0BAC108C08091620622
:1056500090916306992389F082600FC080916A0659
:105660008F70873008F0ABC18093E9008091EB0028
:1056700085FB882780F91092E9009091E800977FD8
:105680009093E8008093F1001092F10065C1282FFB
:105690002D7F09F094C1882319F0823061F08FC109
:1056A00080916806813009F08AC1933009F080E06A
:1056B000809363062EC08091680681112AC0809174
:1056C0006A068F702FEF280F263008F078C180937C
:1056D000E9002091EB0020FF1CC0933021F4809161
:1056E000EB00806214C09091EB0090619093EB000E
:1056F00021E030E0A90102C0440F551F8A95E2F76E
:105700004093EA001092EA008091EB008860809359
:10571000EB001092E9008091E800877F20C18111A1
:105720004EC1109168061F778091E3008078812B2D
:105730008093E3008091E800877F8093E8000E94D7
:105740005E248091E80080FFFCCF8091E3008068B8
:105750008093E300111102C082E001C083E08093D6
:1057600064062DC18058823008F029C180916806F6
:10577000909169068C3D53E0950779F583E08A8323
:105780008AE289834FB7F894DE01139620E03EE069
:1057900051E2E32FF0E050935700E49120FF03C063
:1057A000E295EF703F5FEF708E2F90E0EA3010F0DF
:1057B000C79601C0C0968D939D932F5F243149F702
:1057C0004FBF8091E800877F8093E8006AE270E035
:1057D000CE0101960E94EA25AEC040916A06509122
:1057E0006B06292F332723303105A9F068F42130C7
:1057F000310509F4F3C02230310509F0E0C08BE334
:1058000090E0EFE2FAE044C02132310521F122328A
:10581000310571F1D4C0992781309105A1F058F07C
:10582000029709F0CCC0ECE7FAE0E4918E2F90E00B
:10583000ECE7FAE02AC0EAEAFAE0E4918E2F90E081
:10584000EAEAFAE022C0E4E9FAE0E4918E2F90E07F
:10585000E4E9FAE01AC04115510509F4C4C0413029
:10586000510509F0ACC089E090E0EAE5FAE010C02B
:105870004115510509F4BCC04130510509F09FC0E4
:1058800082E390E0EDEBF9E003C0009709F497C0E4
:105890002091E800277F2093E80020916C0630914A
:1058A0006D068217930708F49C0140E0211531052D
:1058B00089F180916406882309F43DC08530D9F1CF
:1058C0008091E80083FD37C08091E80082FD2FC001
:1058D0008091E80080FFEACF4091F3008091F200D0
:1058E00090E0942B2115310559F08830910540F452
:1058F00044914093F1003196215031090196F2CF45
:1059000041E0089709F040E08091E8008E778093AD
:10591000E800CCCF4111CDCF0AC080916406882326
:1059200051F0853041F08091E80083FD04C0809102
:10593000E80082FFF2CF8091E8008B778093E80047
:105940003EC08038E1F58091E800877F8093E800D1
:10595000809165068093F1008091E8008E778093B6
:10596000E8000E945E242BC0811129C08091680646
:10597000909169069927029714F58091E800877F36
:105980008093E80010916806109365060E945E24DB
:10599000111106C08091E30087FD02C081E001C0C3
:1059A00084E08093640642E061EC81E00E947D2403
:1059B00042E261EC82E00E947D2480916406809145
:1059C000E80083FF1AC08091E800877F8093E80099
:1059D0008091EB0080628093EB000FC082E190E049
:1059E000EAE6FAE055CF89E090E0E1E4FAE050CF52
:1059F00080E490E0EFEEF9E04BCFAA960FB6F89472
:105A0000DEBF0FBECDBFDF91CF911F910895E8E9B2
:105A1000F6E0248130E1231B08F420E02483809108
:105A200097068160809397060895E8E9F6E024815F
:105A300030E1230F08F42FEF2483809197068160D3
:105A4000809397060895FF920F931F93CF93DF9350
:105A5000EC01F62E042F122F0E942414811105C090
:105A6000CD31D1057CF06D9703C0CD31D10554F413
:105A7000CE01880F991FC80FD91FCC52D94FF98278
:105A800008831A83DF91CF911F910F91FF900895A2
:105A9000539A8BB1877F9BB198602FB7F894E4ED50
:105AA000F6E037E0E238F30789F0319148E09BB93E
:105AB000000000C037FF8BB9330F000000C000C0EA
:105AC00000C08BB900C04A9591F7EBCF2FBF8FE58F
:105AD00094E00197F1F700C000000895E8E9F6E0CE
