:100000000C9441050C945E050C945E050C94A4318F
:100010000C945E050C945E050C945E050C945E05D4
:100020000C945E050C945E050C94BD180C94791824
:100030000C94DD290C945E050C945E050C945E0511
:100040000C945E050C945E050C945E050C945E05A4
:100050000C945E050C9496190C945E050C945E0548
:100060000C945E050C945E050C945E050C945E0584
:100070000C945E050C945E050C945E050C945E0574
:100080000C945E050C945E050C945E050C945E0564
:100090000C945E050C945E050C945E050C945E0554
:1000A0000C945E050C945E050C945E0535001E00F4
:1000B0001F00200021002200290014001A0008005F
:1000C000150017002B0004001600070009000A00A5
:1000D000E1001D001B00060019000500E300E2001E
:1000E000E000A75D2800A8003500270026002500B5
:1000F000240023002A00130012000C0018001C002A
:10010000340033000F000E000D000B00E500380036
:100110003700360010001100E700E600E400A85D9B
:100120002C00AE00010001000100010001000100EF
:100130000100490046006500000000000100E200E7
:10014000E000E1000000390001007A007B007C0043
:100150007D0000000100010001000100010001001C
:100160000100010001000100010001002A00AE5D54
:10017000AB5D5200AA5D4B002A004C004F005100BD
:1001800050004E0001000000AD5D0000AC5D0000BD
:1001900001000100010001000100010001003A001E
:1001A0003B003C003D003E0035001E001F002000CB
:1001B0002100220001001E021F0220022102220251
:1001C00001002E002D002E022F023002010001003E
:1001D0000100010001000100440043004200410011
:1001E00040003F0045002700260025002400230092
:1001F00031022702260225022402230201003100D7
:100200003302330030002F00010001000100010023
:1002100001000100000000000000000000000000DC
:10022000005CCC5CCA5CC85CC65CC45C0000CD5C95
:10023000CB5CC95CC75CC55C015D000000000000D0
:1002400000000000010001000100010001000000A9
:10025000000000000000000000000000000000009E
:10026000000000000000000000000000A900A8003D
:10027000AA00000000000000AB00AE00AC000000CF
:1002800001000100010001000100000000DA02810C
:10029000FFD9F1DB20A4A62EAF00A0C000A1C800AA
:1002A000AED580A81FD300408D1420003F3F3F20D3
:1002B000200041646A20200053796D2020004E61A7
:1002C00076202000416C70686100202020202000F2
:1002D0002043415020000A0A0A0A0A0A0A0A0A00B0
:1002E0000A0A0A00537000562000532000482000DC
:1002F0004D6F0057494E0A004D41430A00536F6647
:100300006C6543686F63205F5F5F5F5F0080818221
:10031000838485868788898A8B8C8D8E8F90919235
:100320009394A0A1A2A3A4A5A6A7A8A9AAABACAD8B
:10033000AEAFB0B1B2B3B4C0C1C2C3C4C5C6C7C802
:10034000C9CACBCCCDCECFD0D1D2D3D400000101FD
:100350000101010101010102020202020202020284
:100360000303030303030303040404040404040554
:100370000505050506060606060707070707080818
:100380000808090909090A0A0A0B0B0B0C0C0C0DC9
:100390000D0D0E0E0E0F0F0F101011111112121362
:1003A000131414151516161717181819191A1A1BDD
:1003B0001B1C1D1D1E1E1F2020212222232424253C
:1003C0002626272829292A2B2C2D2D2E2F30313275
:1003D00032333435363738393A3B3C3D3E3F404185
:1003E00042434445464748494A4C4D4E4F5051536D
:1003F00054555658595A5B5D5E5F61626465666824
:10040000696B6C6D6F7072737577787A7B7D7E80A7
:1004100082838587888A8C8E8F91939596989A9CF3
:100420009EA0A2A3A5A7A9ABADAFB1B3B5B7BABC07
:10043000BEC0C2C4C6C9CBCDCFD1D4D6D8DBDDDFD8
:10044000E2E4E7E9EBEEF0F3F5F8FAFDFF07087FE9
:100450000807003E5B4F5B3E003E6B4F6B3E001C4F
:100460003E7C3E1C00183C7E3C18001C577D571CEF
:10047000001C5E7F5E1C0000183C180000FFE7C3F4
:10048000E7FF00001824180000FFE7DBE7FF00305B
:10049000483A060E00262979292600407F050507DF
:1004A00000407F05253F005A3CE73C5A007F3E1C38
:1004B0001C0800081C1C3E7F0014227F2214005FD1
:1004C0005F005F5F0006097F017F00006689956A13
:1004D0000060606060600094A2FFA2940008047E47
:1004E00004080010207E20100008082A1C080008BC
:1004F0001C2A0808001E10101010000C1E0C1E0CE8
:100500000030383E383000060E3E0E060000000077
:1005100000000000005F000000000700070000145A
:100520007F147F1400242A7F2A1200231308646298
:1005300000364956205000000807030000001C2226
:100540004100000041221C00002A1C7F1C2A0008D8
:10055000083E0808000080703000000808080808FD
:10056000000000606000002010080402003E5149B5
:10057000453E0000427F4000007249494946002143
:1005800041494D33001814127F1000274545453965
:10059000003C4A49493100412111090700364949C7
:1005A000493600464949291E000000140000000099
:1005B00040340000000008142241001414141414E4
:1005C000000041221408000201590906003E415D65
:1005D000594E007C1211127C007F49494936003E79
:1005E00041414122007F4141413E007F494949410B
:1005F000007F09090901003E41415173007F08084D
:10060000087F0000417F4100002040413F01007F02
:1006100008142241007F40404040007F021C027FBE
:10062000007F0408107F003E4141413E007F0909E0
:100630000906003E4151215E007F09192946002626
:10064000494949320003017F0103003F4040403FD8
:10065000001F2040201F003F4038403F0063140827
:100660001463000304780403006159494D430000FA
:100670007F41414100020408102000004141417FB8
:100680000004020102040040404040400000030713
:100690000800002054547840007F28444438003833
:1006A0004444442800384444287F003854545418A3
:1006B0000000087E09020018A4A49C78007F0804AA
:1006C00004780000447D4000002040403D00007F51
:1006D000102844000000417F4000007C047804782A
:1006E000007C0804047800384444443800FC182492
:1006F00024180018242418FC007C0804040800486E
:10070000545454240004043F4424003C4040207CC2
:10071000001C2040201C003C4030403C004428107D
:100720002844004C9090907C004464544C44000059
:100730000836410000000077000000004136080044
:10074000000201020402003C2623263C00000000B7
:10075000000000404040F0F8F8FF38FFF8F83FF89C
:10076000F8FF38FFF8F8F0404040000000000000BB
:1007700080C0C0C0800000C0C08000000080C0C039
:1007800000C0C0000080C0C00000000000C0C0C0A9
:10079000C0C000C0C0000000000000000000000059
:1007A0000000000000000000000000000000000049
:1007B0000000000000000000000000000000000039
:1007C000000000000000000000000000C0F0F8FC85
:1007D0003E1E06010000007F4141417F007F4141F4
:1007E000417F000080C0E07E5B4F5BFEC00000C028
:1007F00000DCD7DEDEDED7DC00C000000000000039
:1008000000000000000000000000000000000000E8
:10081000000000494949FFFFFFFFE0DFBFBF00BF05
:10082000BFDFE0FFFFFFFF49494900000000001F54
:100830003F6060E0BF1F007F7F071E381E077F7F7D
:10084000007F7F0E1F3B716000000000007F7F0C67
:100850000C0C007E7E007F7E0303007F7E03037E00
:100860007E03037F7E000F3E703C063C703E0F000F
:10087000327B49493F7E007F7E0303001E3F69694A
:100880006F2600000000000000000000030F1F3F63
:100890003C7870600000007F4141417F007F414112
:1008A000417F00307B7F7830202030787F3B000311
:1008B000000F7F0F0F0F7F0F0003000000000000EC
:1008C0000000000000000000000000000000000028
:1008D000000000010101070F0F7F0F7F0F0F7E0F38
:1008E0000F7F0F7F0F0F07010101000000000000C4
:1008F00000000000010100000000000000000000F6
:1009000000000000000000000000000000000000E7
:1009100000000000000000000000000000000000D7
:1009200000000000000000000000000000000000C7
:1009300000000000000000000000000000000000B7
:1009400000000000000000000000000000000000A7
:100950000000000000000000000000000000000097
:100960000000000000000000000000000000000087
:100970000000000000000000000000000000000077
:100980000000000000000000000000000000AF00B8
:10099000AE05010980A101850319012AB7001501DF
:1009A00026B700950175108100C0050C0901A10151
:1009B000850419012AA002150126A00295017510CF
:1009C0008100C005010906A101050719E029E71505
:1009D00000250195087501810295017508810105C1
:1009E00007190029FF150026FF00950675088100EC
:1009F00005081901290595057501910295017503F1
:100A00009101C009023B00020100A0FA09040000A4
:100A10000103010100092111010001224000070525
:100A200081030800010904010001030000000921FD
:100A3000110100012232000705820320000112018A
:100A400000020000000832FC8702010001020001E0
:100A5000160353006F0066006C0065002000430021
:100A600068006F0063000000140342007200690018
:100A700061006E0020004C006F007700000004034E
:100A8000090411241FBECFEFDAE0DEBFCDBF27E09F
:100A9000ACEAB2E001C01D92A738B207E1F712E05C
:100AA000A0E0B1E0E2EDF8E602C005900D92AC3AAC
:100AB000B107D9F70E94042A0C9446340C94000024
:100AC00090917D07937061F081110BC094609093B9
:100AD0007D0710925B0180917C07816080937C0789
:100AE00008958B3010F09862F2CF880F880F982B02
:100AF000EECF90917D07937071F080937E076093A5
:100B00007F07453608F044E64093800780917C07D4
:100B1000816080937C070895E8EDF0E080818E7F0E
:100B200080831092E2001092DA001092E100A0EEB1
:100B3000B0E08C9181608C9380818F77808319BC29
:100B4000A7EDB0E08C918E7F8C9380818F7E808327
:100B50001092390708952091E4003091E50095E660
:100B6000A9012091EC00822F817020FF06C08091A6
:100B7000E80080FF06C080E008952091E80022FD93
:100B80001AC080914607882389F0853089F08091CA
:100B9000EB0085FD0FC02091E4003091E500421785
:100BA0005307F9F29150E1F684E0089582E0089548
:100BB00083E0089581E00895EF92FF920F931F93D1
:100BC000CF937C018B010E94AB05C82F811117C008
:100BD0008091E80085FD0BC08091E8008E778093BE
:100BE000E8000E94AB05882399F3C82F08C0F701DD
:100BF00081917F018093F1000150110949F78C2FF9
:100C0000CF911F910F91FF90EF9008958091480729
:100C100087FF13C08091E80082FF06C08091E80042
:100C20008B778093E80004C0809146078111F2CF52
:100C30000895809146078823D9F38091E80080FFCA
:100C4000F8CF8091E8008E77ECCF982F9093E90051
:100C5000242F762F50E0891731F07091EC0020910D
:100C6000ED005091F00021FD07C09F5F973071F7B4
:100C70008093E90081E008953091EB003E7F30934E
:100C8000EB003091ED003D7F3093ED003091EB00B3
:100C900031603093EB007093EC002093ED005093A3
:100CA000F0002091EE0027FDE0CF80E00895CF9284
:100CB000DF92EF92FF920F931F93CF93DF93C8EDD4
:100CC000D0E088818F7E8883E7EDF0E080818160CD
:100CD000808384E082BF81E08093390788818E7FA2
:100CE000888302EE10E0F80110821092DA0081EEA3
:100CF000C82ED12CF601108288818F778883888155
:100D00008068888388818F7D888319BC109246070C
:100D100010924707109245071092440790EEE92E73
:100D2000F12CF70180818B7F8083888181608883AB
:100D300042E060E080E00E942506F60180818E7F1F
:100D40008083F801808181608083808188608083D6
:100D5000F70180818E7F8083888180618883DF9125
:100D6000CF911F910F91FF90EF90DF90CF9008955A
:100D7000FC0180914E0790914F0786179707A0F0CE
:100D80006115710529F49091E8009E779093E80031
:100D900090E06115710551F4911108C08091E8004F
:100DA00082FF34C080E00895BC01F2CF80914607F5
:100DB0008823C1F18530C1F18091E80083FD30C006
:100DC0008091E80082FDEACF8091E80080FFE1CFCA
:100DD0008091F3002091F200382F6115710519F010
:100DE0002830310558F091E02830310509F090E0C5
:100DF0002091E8002E772093E800CBCF819180935B
:100E0000F100615071092F5F3F4FE7CF8091460796
:100E1000882341F0853041F08091E80083FFBECF08
:100E200081E0089582E0089583E00895089508958B
:100E300080913B0708952FB7F89460913207709125
:100E4000330780913407909135072FBF08959C0197
:100E5000FC0132969FEF80E04191461751F09F3F91
:100E600019F4411101C0982F8F5F8630A9F79F3F79
:100E700009F40895290F311D97FD3A95F901628310
:100E8000089520912F07309130072817390771F006
:100E90009093300780932F07E0912D07F0912E0754
:100EA000309721F00084F185E02D09940895209178
:100EB0002B0730912C072817390771F090932C07D6
:100EC00080932B07E0912D07F0912E07309721F0AA
:100ED0000680F781E02D09940895FC01680F791FC1
:100EE0008FEF91E32191822728E030E087FF09C04E
:100EF000880F892721503109C9F7E617F70791F7BD
:100F00000895880FF7CFFA01811101C0FB01099400
:100F1000EDE7F7E0248130E1231B08F420E024838F
:100F200080917C07816080937C070895EDE7F7E06E
:100F3000248130E1230F08F42FEF248380917C0774
:100F4000816080937C070895EDE7F7E0438120E11D
:100F5000421B08F440E08181628190E00C947905A5
:100F6000EDE7F7E0438120E1420F08F44FEF818184
:100F7000628190E00C947905EDE7F7E0628120E171
:100F8000621B08F460E08181438190E00C94790554
:100F9000EDE7F7E0628120E1620F08F46FEF8181F5
:100FA000438190E00C947905EDE7F7E0818143817E
:100FB00062818850990B0C947905EDE7F7E0818107
:100FC00090E04381628108960C94790580917D07B9
:100FD00086958695815009F48AE00C94600580918D
:100FE0007D07869586958F5F8B3008F081E00C94A5
:100FF00060058093560180917D0783708093550131
:101000000E94AB0D83E080935B010895EF92FF9205
:101010000F939701201B31092F3F310519F010F074
:101020002FEF30E0322F3095482F430F08F44FEF69
:10103000842F620F0F91FF90EF900895EF92FF922F
:101040000F93972F093438F4B701601B71096F3F74
:10105000710519F010F06FEF70E0485F5F4F41319C
:10106000510540F0A901485F5F4F4131510510F033
:101070006FEF70E06095482F460F08F44FEF842F14
:1010800037FF02C02D5F3F4F359527953595279542
:1010900060917E07620F792F0F91FF90EF90089576
:1010A0000C944A0EFF920F931F93CF93DF93182F48
:1010B000062FF42ED0E0C0E02F2D402F612FCE015F
:1010C0000E9450082196CA33D105B1F7DF91CF9124
:1010D0001F910F91FF9008950F931F93522F10E0CF
:1010E000F801EE0FFF1FEF53FE4FA5ADA052BB0B53
:1010F0009D015203F001539FF00D1124000F111FA9
:10110000D801A350BE4F0C910057110B4003900122
:10111000419F300D11242E0F3F1F37FF02C0215871
:101120003F4F220F232F221F330B620F1F910F916E
:101130000895E82F86FDE0952E2F2F7086FD2F5FF6
:10114000E695E695E695E670F0E0E754FE4F91816E
:10115000929F902D212D112492959F702295207F92
:10116000922B2081920F87FD919580E8890F089539
:10117000AC018230910508F408959FEF413E8EE165
:10118000580740F49A0195E0369527959A95E1F72E
:1011900098E0920F61E0E62FE90FFF27FF1F9F0104
:1011A00035952795822F229FF001239FF00DF00D9A
:1011B00011244E175F0738F49FEF920F961758F7D8
:1011C0008FEF860F08952F3FE9F361E0620FF6CFAE
:1011D0000F93CF93DF93D72FC82F47FD419588E317
:1011E00090E0841B910947FD9395889FB001899FEA
:1011F000700D700D1124229FC001239F900D900D42
:101200001124860F971F0E94B808982F990F890FF5
:10121000682F600F7D2F8C2FDF91CF910F91089554
:1012200030E020E0869F212D969F200D311D112456
:10123000C9010895AF92BF92CF92DF92FF920F93B0
:101240001F93CF93DF93362F472FE82FF0E0E35B18
:10125000FC4F71110FC0E4918E2F2E2F6E2F722F25
:10126000DF91CF911F910F91FF90DF90CF90BF90B2
:10127000AF900895C72FD0E02491F22E022F10E0F6
:1012800056E0659FC0011124EFEFF0E0BF010E941E
:10129000C032832F90E0880F991F35E5369FD0012B
:1012A000379FB00D11248A1B9B0B982F990F980F15
:1012B0006F01CC1ADD0AC09ED001C19EB00DD09E38
:1012C000B00D11248B2F499FA0011124452F5527C4
:1012D0006F01C41AD50AC09EA001C19E500DD09EB8
:1012E000500D11245F01A91AB108AC9E6001AD9E9A
:1012F000D00CBC9ED00C1124CD2CDD24EC19FD09A2
:10130000E09FE001E19FD00DF09FD00D1124ED2F63
:1013100062307105A1F050F46115710509F49ECF9A
:101320006130710581F0EB2F852F98CF6430710506
:1013300069F080F06630710509F490CFF4CFE22FA8
:101340002B2F8D2F8BCFE22F252F88CFEB2F822FA6
:101350002D2F84CF2B2F8F2DE52F80CF80E0089568
:1013600078940895F894E82FE295EF70F0E031A1B9
:10137000282F2F7081E090E001C0880F2A95EAF7AE
:10138000982F9095932391A392A1892B82A30C94DB
:10139000B0099091940392FF06C0282F287128303D
:1013A000F9F4877F846093FF06C0282F28712831C5
:1013B000F1F4877E84612091950320FF06C0382FC9
:1013C00038713830D9F4877F816021FF06C0282F1B
:1013D00028712831D1F4877E816194FD877E08953C
:1013E000282F24712430F9F68B7F8860DCCF282FDA
:1013F0002471243101F78B7E8861DDCF382F317164
:10140000313019F78E7F8860E0CF282F217121318C
:1014100021F78E7E8861E1CFCF93DF93EC01823894
:101420009105A9F1D8F58133910509F496C048F5E5
:101430008932910509F48AC08A9709F495C0C115CB
:1014400022E5D20708F0B6C0C11531E5D30708F090
:1014500026C1C83ED10508F09CC0C03ED10560F54C
:10146000C83AD10508F087C0C53AD10508F0EFC0E9
:10147000C130D10509F12097F9F0C430D105E0F46D
:1014800040C08533910509F45AC0C997C1F68091CF
:101490009403837089F0C0EED0E00EC0833E9105C6
:1014A00099F170F4803E910501F1823E910539F683
:1014B0008091940382FD21C0CE01DF91CF910895E8
:1014C000863E910561F1873E910571F1843E91055B
:1014D00009F0B5CF8091950381FFEECF8091940301
:1014E000C7EED0E084FD0DC0E7CF8091940380FD6E
:1014F00007C19091950390FFDFCFC3EED0E084FF4A
:10150000DBCFD0E0C0E0D8CF8091940382FDFBC058
:101510009091950390FDBFCF84FFCECFF2CF809105
:10152000940383FDDDCFC8CF8091940383FDEEC08B
:101530009091950391FFF0CFC4EED0E0BDCF8091A4
:10154000940385FFB9CFC9E2D0E0B6CF8091940370
:1015500085FFB2CFC5E3D0E0AFCF8091940386FF83
:10156000ABCFCAE2D0E0A8CF8091940386FFA4CF8E
:10157000C1E3D0E0A1CFCF3BD10518F6C85AD0E0E7
:10158000CC0FDD1FCA59DE4F0990D881C02DD4641D
:1015900093CFC11540E5D40708F064C0C11580E4BD
:1015A000D80708F05CC0CE019A9581159F4108F4D8
:1015B00083CFA7CFC11536E5D30718F5C11545E58B
:1015C000D40708F084C0C11584E5D80708F07AC0B4
:1015D0009C2F969596959E0123703327C115D34570
:1015E00008F462C0C1E0D0E002C0CC0FDD1F2A9534
:1015F000E2F730E2939FC0011124C82BD92BDA689F
:101600005BCFC1158AE5D80778F4C11599E5D907EC
:1016100008F068C0C11528E5D20708F472CFDC2FA6
:10162000CC27C06FD06A48CFCE019056811590422A
:1016300008F067CF8D2F8F710E94C90990E0982F15
:10164000882788279F719C012C2BE90149C0C55A26
:10165000D0E0CD59DE4FC881D0E0D0642DCFDF700F
:10166000D06A2ACFCE01E4E096958795EA95E1F716
:1016700083702C2F26952695237040E2249F90019D
:101680001124382B8C2F8370C1E0D0E002C0CC0F26
:10169000DD1F8A95E2F7C22BD32BDC680DCFDC2F40
:1016A000CC27C16FD06A08CFC1E0D0E002C0CC0F18
:1016B000DD1F2A95E2F720E2929FC0011124C82B7A
:1016C000D92BEBCFDC2FCC27C46FD06AF5CE8C2F73
:1016D0000E94C909C82FD0E0DC2FCC27CC27DF71AE
:1016E000D062EACE8C2F8F700E94C90934E0D69563
:1016F000C7953A95E1F7CF709C2FEC01D069DCCE0D
:10170000C9E3D0E0D9CEC2EED0E0D6CEC6EED0E06E
:10171000D3CE0C941B0780912703811110922703CD
:101720000895809590912603982390932603089519
:1017300080911B039091EA02981301C008958F5F76
:101740008770FACFAF92BF92CF92DF92EF92FF9263
:101750000F931F93CF93DF93C0908307D09084079C
:10176000E0908507F0908607409128035091290367
:1017700060912A0370912B03C42AD52AE62AF72AFE
:10178000CFE1D0E0082F10E026E0929F000D111D60
:1017900011249CE3A92EBC2ED701C6010C2E04C037
:1017A000B695A795979587950A94D2F780FD0FC0B7
:1017B000219788F7B12C8B2DDF91CF911F910F913D
:1017C000FF90EF90DF90CF90BF90AF900895AC9EC8
:1017D000F001AD9EF00D1124E00FF11FEE0FFF1F81
:1017E000E455FF4F859194910E940C0A019701F3F3
:1017F000E2CFCF93DF93EC010E94A20BEC2FF0E03D
:1018000096E0D99FE00DF11D11249CE3899FE00D26
:10181000F11D1124EE0FFF1FE455FF4F85919491A8
:10182000DF91CF910C940C0AE92FEE0FE90FEE0F28
:101830008E0F982F977086958695869525E0829FC6
:10184000F0011124E454FD4F50E040E080E021918C
:1018500030E0092E02C0369527950A94E2F72170F0
:101860003327042E01C0220F0A94EAF7822B4F5F20
:101870005F4F4530510559F70895E92FEE0FE90FF5
:10188000EE0F8E0F982F977041E001C0440F9A958C
:10189000EAF786958695869595E0899FF001112453
:1018A000E454FD4F30E020E070E05191DF011197EA
:1018B000CB01022E02C0969587950A94E2F78170BB
:1018C00081958527842385278C932F5F3F4F253073
:1018D000310559F70895FC01808191810E94F90B2F
:1018E00092959F70963091F058F4925F9F7092306D
:1018F00058F4803F19F030F4883E30F481E00895C8
:101900009A5FF4CF843FD1F380E00895883EB0F32E
:10191000813FD1F7F3CFCF92DF92EF92FF926C012C
:10192000EE24FF2420E0C114D104E104F10419F0F5
:10193000C701B60120E1C72ED82EE92EFF24C1141D
:10194000D104E104F10419F0285FC701B6016B016D
:101950007C0154E0F694E794D794C7945A95D1F754
:10196000C114D104E104F10419F02C5FC701B601E0
:101970006B017C0142E0F694E794D794C7944A95B2
:10198000D1F7C114D104E104F10419F02E5FC701AD
:10199000B6019695879577956795672B682B692B88
:1019A00009F02F5F822FFF90EF90DF90CF90089586
:1019B000CF92DF92EF92FF920F931F93CF93DF931B
:1019C0006C017B0164E670E088E70E94FB2FEC016C
:1019D00097FD12C010E000E0F601E00FF11F8491C6
:1019E00064E670E00E947530EC01892B29F40F5FEA
:1019F0001F4F0E151F0581F70E94F830CE01DF91B1
:101A0000CF911F910F91FF90EF90DF90CF900895AD
:101A10008091290790912A07911103C091E08927AD
:101A20000895882369F062E070E08FE899E00E94F1
:101A3000D80C892B19F08091290708951092290755
:101A400080912907EBCFCF93C091290780912A0776
:101A50008823D1F00E941B07605A75418F4F9F4F1A
:101A60006093250770932607809327079093280794
:101A7000C11108C062E070E08DE899E00E94D80CC6
:101A8000892B29F0C09129078C2FCF91089581E0EF
:101A900080932907F7CF80933607709338076093B8
:101AA000370780914607843001F582E08093E90092
:101AB0008FEF9091E800815095FD06C095ED9A95C5
:101AC000F1F700008111F5CF8091E80085FF0DC08E
:101AD00050E040E063E070E086E397E00E94DC05C0
:101AE0008091E8008E778093E8000895BC0184E03F
:101AF0000C944B0DBC0183E00C944B0DCF93DF9302
:101B0000EC0181E08093E9008FEF9091E800815033
:101B100095FD06C095ED9A95F1F700008111F5CF7E
:101B20008091E80085FF14C050E040E068E070E07C
:101B3000CE010E94DC058091E8008E778093E8005A
:101B400088E0FE01ACE3B7E001900D928A95E1F7E1
:101B5000DF91CF910895539A3BB1377F2BB1286025
:101B60004FB7F8948CE694E0FC015191CF0168E006
:101B70002BB9000000C057FF3BB9550F000000C053
:101B800000C000C03BB900C06A9591F7F5E08A310A
:101B90009F0751F74FBF8FE594E00197F1F700C021
:101BA000000008959F92AF92BF92CF92DF92EF9282
:101BB000FF920F931F93CF93DF937C015B016A0128
:101BC0008091680301E010E08A3010F40AE010E030
:101BD000C1E0D0E0F894B501C701F6010995982E4F
:101BE0000E94B009911004C021960C171D076CF4D7
:101BF000892DDF91CF911F910F91FF90EF90DF9092
:101C0000CF90BF90AF909F900895CC9F9001CD9FB3
:101C1000300D300D112490E080E045E34A95F1F756
:101C20000000019682179307C1F7D4CF8091360345
:101C3000811118C088EC9091E30097FD10C0EFE38C
:101C4000FCE93197F1F700C000008150A1F782E074
:101C5000809336030E948C051092460703C081E0F2
:101C60008093360381E090913603913011F080E04B
:101C7000089508950E94160E882351F0E0912D07D3
:101C8000F0912E07309721F00190F081E02D09941A
:101C900080E00895FF920F931F93CF93DF93EC01A1
:101CA000F62E042F122F0E94160E81110FC0CD3177
:101CB000D1057CF06D97FE01EE0FFF1FEC0FFD1FAD
:101CC000E459FB4FF1820083128303C0CD31D1056B
:101CD00094F3DF91CF911F910F91FF900895CF93CF
:101CE000C82F0E94160E882329F081E0CD3128F0FC
:101CF00080E003C081E0CA33D8F7CF9108952F92D6
:101D00003F924F925F926F927F928F929F92AF928B
:101D1000BF92CF92DF92EF92FF920F931F93CF93D8
:101D2000DF9300D000D000D0CDB7DEB79C838B838B
:101D3000209158018CE0289F802D112489835CE03C
:101D4000552E580E3AE3351510F44AE3542E0E94EE
:101D5000160E882329F08DE1851510F43DE1532EF0
:101D60000E94160E811105C099819D3110F4EDE19C
:101D7000E983209050073981232F30E03E832D8363
:101D8000C901880F991FFC01EF53FE4F6F01ED81D0
:101D9000E515D8F0852D26960FB6F894DEBF0FBE58
:101DA000CDBFDF91CF911F910F91FF90EF90DF900A
:101DB000CF90BF90AF909F908F907F906F905F90EB
:101DC0004F903F902F900C946F0EED81FE81EF5855
:101DD000FD4F808190915901892321F130907E0738
:101DE00040907F0729E637E03A83298380E5A82ED3
:101DF00087E0B82E10E08A2D20E537E0821B82159F
:101E0000D0F020918007129F112D1124632D742D85
:101E1000812F0E941A09462F282F672F8D819E81BE
:101E20000E9450088D819E8101969E838D8392E051
:101E3000C90ED11CACCFF60184ACF5018181881AA2
:101E40009908F60165ACF5018185681A7708889CC8
:101E50009001899C300D300D1124669CC001679C57
:101E6000900D900D1124820F931F0E94B808082F27
:101E70006091810721E0620F08F46FEFE981FA8138
:101E800081919191FA83E9830E9410097C01930169
:101E9000A401632D742D812FEB81FC810995362ED1
:101EA000472EFFEFAF1ABF0A182FA5CF0F931F932E
:101EB0000E94160E882321F01F910F910C941B078E
:101EC0000E941B070091690310916A0320916B0324
:101ED00030916C03600F711F821F931F1F910F9130
:101EE0000895CF92DF92EF92FF926B017C010E94E6
:101EF000160E8823A1F02FB7F894609132077091E5
:101F0000330780913407909135072FBF6C197D09F5
:101F10008E099F09FF90EF90DF90CF9008950E9467
:101F2000560FF4CF8091260390912503892B80933F
:101F3000AE0290912703992391F0892B8093AE02F2
:101F400020E080EB92E0FC013191CF0131112F5F55
:101F5000F2E0863B9F07B9F721110E948B0B48E006
:101F600050E06DE173E08EEA92E00E947B33892BB2
:101F7000A9F088E0EEEAF2E0ADE1B3E001900D9265
:101F80008A95E1F7E0912D07F0912E07309731F017
:101F90000280F381E02D8EEA92E00994089590E0AA
:101FA00080E00E94570790E080E00E944107109275
:101FB00025030C94920F609383077093840780939A
:101FC0008507909386070C94CF0F0F931F93609112
:101FD00083077091840780918507909186078B0114
:101FE0009C01067011272227332706301105210591
:101FF000310529F468601F910F910C94DB0F677F06
:10200000FACF0F931F9341E050E060E070E004C00E
:10201000440F551F661F771F8A95D2F7CB01BA016F
:102020006095709580959095009183071091840735
:1020300020918507309186076023712382239323A3
:102040001F910F910C94DB0F90911C0380958923B5
:1020500080931C03282F277091F4282F082E000C42
:10206000330B9217130659F09091950392FD07C018
:102070008595859585950E94011010921C03089501
:102080000F931F9341E050E060E070E004C0440F04
:10209000551F661F771F8A95D2F78091830790910D
:1020A0008407A0918507B09186078A019B01082BC0
:1020B000192B2A2B3B2BC901B8011F910F910C94AE
:1020C000DB0F609328037093290380932A03909376
:1020D0002B030C94CF0F882321F00E94910B0C94BA
:1020E000920F0895882339F090912603982B9093AE
:1020F00026030C94920F0895882381F19CEF980F8A
:10210000913A78F4E0EBF2E026EB32E0919189131A
:1021100003C0DF0111971C922E173F07B9F70C94EB
:10212000920F90E2980F983050F4877091E001C0C0
:10213000990F8A95EAF7892F0E94910BF0CF9BE5C2
:10214000980F933020F490E080E00C945707885A61
:10215000873120F490E080E00C9441070895CF93FC
:10216000C82F882309F44EC08CEF8C0F813AF8F405
:10217000E0EBF2E086EB92E0DF012D91C21759F01F
:102180008A179B07D1F76C2F8EEA92E00E942707EF
:10219000CF910C94920F2191C21303C0DF011197CC
:1021A0001C928E179F07B9F70E94920FECCF80E226
:1021B0008C0F883068F4C77021E030E001C0220F36
:1021C000CA95EAF780912603822B80932603E0CFFD
:1021D000EBE5EC0FE33040F4F0E0ED59FE4F808189
:1021E00090E0CF910C945707C85AC73158F4EC2FA0
:1021F000F0E0EE0FFF1FEA59FE4F80819181CF91F1
:102200000C944107CF9108951F93CF93DF93182F1C
:10221000EB010E94AF108FE99FE00197F1F700C03A
:1022200000002197C1F7812FDF91CF911F910C946E
:102230007C1081110DC0662339F06AE070E089EAF4
:102240000E94041180E008956AE070E08AEAF8CF05
:10225000662321F06AE070E08AEFF2CF6AE070E076
:1022600089EFEECF1F93CF93DF93162F8A3031F48F
:1022700081E0DF91CF911F910C945B128D3011F4AE
:1022800080E0F7CFC0912307D091240796E0FE01AC
:10229000ADE1B7E001900D929A95E1F7803EA8F18B
:1022A00086E0FE0111928A95E9F7C0912307D0914B
:1022B0002407111136C046E050E0BE018DE197E0E1
:1022C0000E947B339E012D513540892BA9F52A5F51
:1022D0003F4F40911A05642F70E0C9010E94C0323F
:1022E000481B463010F4240F311D211572E03707CA
:1022F00010F030E020E0235E3A4F30932407209323
:102300002307DF91CF911F910895F6E08F9FB001D1
:102310001124635B7B4F46E050E0CE010E94723394
:10232000C4CF9E012A5F3F4FFE012E173F0719F2CF
:10233000808180958193F9CFC90145E09695879575
:102340004A95E1F741E050E0BA0102C0660F771FFD
:102350008A95E2F7CB0160911B0570911C05862BD5
:10236000972BB9016B5F7F4FE5E076956795EA950E
:10237000E1F702C0440F551F6A95E2F7842B952BB5
:1023800090931C0580931B05A2CF0F931F93CF93AF
:10239000DF93EC01FC0101900020E9F78F0101506F
:1023A0001109C017D10728F0DF91CF911F910F912C
:1023B000089560E089910E943211F3CF1F93CF936B
:1023C000DF93EC01162FFE018491811104C0DF918F
:1023D000CF911F910895612F0E9432112196F3CF62
:1023E0008F929F92AF92BF92CF92DF92EF92FF9225
:1023F000C62E60E00E94DE1180910401C81205C063
:102400008091BA02803209F44AC0C092040180E28D
:102410008093BA02D12CF12CE12C1092B902C701A1
:10242000B6012AE030E040E050E00E941534605DE3
:10243000603331F0C114D104E104F10409F460E225
:102440006093B80260E28AE0C816D104E104F104A6
:1024500090F08AE0882E912CA12CB12CC701B601F6
:10246000A50194010E941534CA01B901A501940186
:102470000E941534605D6093B70220E284E6C816BE
:10248000D104E104F10448F0C701B60124E630E0CC
:1024900040E050E00E941534205D2093B60286EBA8
:1024A00092E0FF90EF90DF90CF90BF90AF909F9021
:1024B0008F900C94C511CF93382FE0912307F091A2
:1024C0002407ED51F54020911A05622F70E0CF01ED
:1024D0000E94C032281B822F332369F066E00E94DD
:1024E000D432C82FC15010F4CF91089560E080E23B
:1024F0000E943211F7CF9F01280F311D2115324064
:1025000018F080E0F0E0E0E08E0F9F2F911D835ED9
:102510009A4F9093240780932307E6CF0E94DE1101
:1025200081E00C945B1210922603E0EBF2E086E06F
:10253000DF011D928A95E9F70C94CF0F1F93CF937B
:10254000DF93CDB7DEB7AA970FB6F894DEBF0FBE04
:10255000CDBF88E497E02091F100FC012193CF01E9
:10256000F7E080359F07B9F780914907833009F478
:1025700070C0B8F4813009F447C0823009F4B1C0AA
:102580008091E80083FF7EC28091480790914907BF
:102590009A3008F077C2E92FF0E0E85BFB4C0C942E
:1025A000F4328A3009F48CC08B3009F46FC0893062
:1025B00039F780914807813219F780914C07909143
:1025C0004D070297E8F68091E800877F8093E80046
:1025D0008091E80082FF38C09091F3008091F20072
:1025E000029731F48091F100813011F0863021F4AE
:1025F0008091F10080933B078091E8008B77809376
:10260000E8000E940606BCCF80914807813A09F095
:10261000B7CF8091E800877F8093E80080914C07D6
:1026200090914D07892B61F468E08CE397E070E0AE
:102630000E94B8068091E8008B778093E800A0CFD5
:1026400060E090E080E0F3CF809146078111C0CF39
:1026500097CF80914807813A09F092CF80914C073B
:1026600090914D07892B09F08BCF8091E800877FEF
:102670008093E8008091E80080FFFCCF80915701B3
:102680008093F1008091E8008E77B9CF8091480760
:10269000813209F075CF80914C0790914D07892BBD
:1026A00009F06ECF8091E800877F8093E8000E9458
:1026B000060680914A07809357010E94931260CFCB
:1026C00080914807813209F05BCF8091E800877FD5
:1026D0008093E8000E94060680914B0780933A079A
:1026E0004FCF80914807813A09F04ACF8091E800A6
:1026F000877F8093E8008091E80080FFFCCF809185
:102700003A07BECF803899F0823809F0BBC180917A
:102710004C078F70873008F0B5C18093E900809135
:10272000EB0085FB882780F91092E90006C08091B4
:10273000440790914507911182609091E800977F3E
:102740009093E8008093F1001092F1008091E800EE
:102750008E7794C1882309F482C1823009F092C136
:1027600080914A07811185C180914C078F702FEFAE
:10277000280F263008F086C18093E9002091EB00F5
:1027800020FF77C1933031F48091EB008062809319
:10279000EB006FC19091EB0090619093EB0021E012
:1027A00030E001C0220F8A95EAF72093EA001092E8
:1027B000EA008091EB008860EACF811163C110913B
:1027C0004A071F778091E3008078812B8093E30094
:1027D0008091E800877F8093E8000E940606809140
:1027E000E80080FFFCCF8091E30080688093E300E5
:1027F00082E0111183E08093460744C18058823003
:1028000008F040C180914A0790914B078C3D23E02E
:102810009207A1F583E08A838AE289834FB7F8940F
:10282000DE01139620E03EE051E2E32FF0E050930A
:102830005700E49120FF03C0E295EF703F5FEF7017
:102840008E2F90E0EA30C0F0C7968D939D932F5F56
:10285000243159F74FBF8091E800877F8093E800CB
:102860006AE270E0CE0101960E94B8068091E8000D
:102870008B778093E80006C1C096E7CF40914C0764
:1028800050914D07292F33272330310509F444C0D7
:1028900078F52130310509F46FC08BE390E0E3E077
:1028A000FAE02230310509F0EDC02091E800277FE1
:1028B0002093E80020914E0730914F07821793072D
:1028C00008F49C0140E02115310509F064C0411174
:1028D00062C08091E80082FDC9CF809146078823BD
:1028E00029F2853019F28091E80083FFF2CFBECF44
:1028F00021323105A9F12232310509F0C3C0411559
:10290000510509F443C04130510509F0BBC082E3D1
:1029100090E0E1E9F9E0C9CF992781309105C1F054
:10292000009759F0029709F0ADC0E0E5FAE0E491B4
:102930008E2F90E0E0E5FAE007C0EEE7FAE0E491E0
:102940008E2F90E0EEE7FAE0009709F49BC0ADCF40
:10295000E8E6FAE0E4918E2F90E0E8E6FAE0F4CFC2
:102960004115510571F04130510509F08BC089E0E6
:1029700090E0EEE2FAE099CF82E190E0EEE3FAE057
:1029800094CF89E090E0E5E1FAE08FCF80E490E039
:10299000E3ECF9E08ACF80914607882309F466CFFB
:1029A000853009F463CF8091E80083FD5FCF80918B
:1029B000E80082FD8ECF8091E80080FF84CF909167
:1029C000F3008091F2002115310519F0883091054E
:1029D00050F041E0089709F040E08091E8008E77E0
:1029E0008093E80070CF44914093F10031962150DC
:1029F00031090196E8CF803809F044C08091E800A1
:102A0000877F8093E800809147078093F1009ECEF6
:102A1000811138C010914A071230A0F58091E8006A
:102A2000877F8093E800109347070E9406061123D2
:102A300011F084E005C08091E30087FDFACF81E0CA
:102A40008093460742E061EC81E00E94250642E265
:102A500061EC82E00E9425068091460713C08091B8
:102A60004A07813079F481E0933009F080E0809367
:102A700045071092E9008091E800877F8093E80085
:102A80000E9406068091E80083FF0AC08091E8005A
:102A9000877F8093E8008091EB0080628093EB0059
:102AA000AA960FB6F894DEBF0FBECDBFDF91CF91CF
:102AB0001F9108951F93CF93DF93EC01FC01EF5812
:102AC000FD4F80816823C9F00E946233182F0E9455
:102AD00062338F77782F20E8720F08F47FEF612F31
:102AE000809180070E941A09462F282F672FCE0158
:102AF000DF91CF911F910C945008DF91CF911F91DE
:102B00000895EDE7F7E089E0808380915C01909182
:102B10005D01A0915E0181839283A3838FE784830B
:102B20008FEF858346E050E06CE170E0CF010E94BA
:102B3000AF3310927C070895CF9384E090E00E9419
:102B4000A133C82F82E290E00E94A133982F8C2FEE
:102B5000CF9108951F93CF93DF9300D000D0CDB7CE
:102B6000DEB7409160035091610360916203709100
:102B700063032FB7F8948091320790913307A091A7
:102B80003407B09135072FBF841B950BA60BB70BED
:102B900011E084369105A105B10570F10E94560F30
:102BA0006E5F7F4F8F4F9F4F69837A838B839C83A8
:102BB00080912E0190912F01885B9C4F40912D01B7
:102BC00050E04530510510F044E050E0BE016F5F29
:102BD0007F4F0E94883385E090E00E944A32182F90
:102BE000882351F00E941B07609360037093610378
:102BF0008093620390936303812F0F900F900F9047
:102C00000F90DF91CF911F9108954F925F926F9235
:102C10007F928F929F92AF92BF92EF92FF920F930B
:102C20001F93CF93DF937B01FB0140805180628033
:102C300073809FB7F8948090320790903307A090EC
:102C40003407B09035079FBF84189508A608B708C9
:102C5000F4E68F169104A104B10418F4C1E04423F2
:102C600029F1C82F880FDD0BFE0183E0EE0FFF1F57
:102C70008A95E1F7EB5FFE4F81819281885B9C4FE3
:102C8000408150E00417150708F4A801B9010E941B
:102C90008833CE010E944A32C82F882339F00E941F
:102CA0001B07F70160837183828393838C2FDF91ED
:102CB000CF911F910F91FF90EF90BF90AF909F9099
:102CC0008F907F906F905F904F9008950F931F9318
:102CD000CF93DF9300D000D000D00F92CDB7DEB7F6
:102CE00086E0EDE7F7E0DE01119601900D928A95FE
:102CF000E1F780916B048F8347E050E069E573E072
:102D0000CE0101960E947B3341E0892B09F440E01B
:102D100007E010E09E012F5F3F4F64E673E086E01E
:102D20000E94051627960FB6F894DEBF0FBECDBFE2
:102D3000DF91CF911F910F9108950F931F93CF9320
:102D4000DF93EC0145E050E06EE473E00E947B33DA
:102D500041E0892B09F440E005E010E09E0160E4C9
:102D600073E082E00E940516DF91CF911F910F91D1
:102D700008954F925F927F928F929F92AF92BF92EF
:102D8000CF92DF92EF92FF920F931F93CF93DF9337
:102D90000F92CDB7DEB7C62E4A015901482E880FD3
:102DA0005508C2010E944A32782E882309F480C057
:102DB000C20133E0880F991F3A95E1F7FC01EB5F00
:102DC000FE4F438150E04115510511F041E050E0C4
:102DD0008B5F9E4FFC0164817581685B7C4FCE01E7
:102DE00001960E948833F401408151816281738190
:102DF0002FB7F8948091320790913307A091340750
:102E0000B09135072FBF841B950BA60BB70B8436EB
:102E10009105A105B10540F4B701C8010E946D07F5
:102E20009981891709F444C00C2C000CDD08C601F7
:102E30000E944A32782E811113C0712C872D0F9079
:102E4000DF91CF911F910F91FF90EF90DF90CF9086
:102E5000BF90AF909F908F907F905F904F9008951C
:102E6000C60123E0880F991F2A95E1F7FC01EB5F6B
:102E7000FE4F438150E0E416F50608F4A7018B5F8E
:102E80009E4FFC0164817581685B7C4FC5010E9487
:102E90008833B701C8010E946D0799818913CDCF8E
:102EA0000E941B07F4016083718382839383C6CFE2
:102EB000A701B801C5010E948833C0CFCF92DF922D
:102EC000EF92FF920F931F93CF93DF930F92CDB7A3
:102ED000DEB7EE24E394F12C04E513E09E012F5FAE
:102EE0003F4F44E453E064E083E00E94B916082FAA
:102EF000882321F1C09079038C2D90E09C0121570B
:102F00003C4F79011981F9018081181BD12E80E095
:102F10000AC0DA94F70180818F5F808360E08C2D96
:102F20000E941911802F1D14A4F3912F17FD90E01A
:102F3000191B11110EC081110E94890B802F0F9057
:102F4000DF91CF911F910F91FF90EF90DF90CF9085
:102F500008951F5FF70180818150808361E08C2D8F
:102F60000E941911802FE5CFCF92DF92EF92FF924E
:102F70000F931F93CF93DF9300D000D00F92CDB764
:102F8000DEB76B0185E0E82EF12C09E413E09E0129
:102F90002F5F3F4F4CE353E061E080E00E94B916A1
:102FA000882349F095E0FE013196A7E3B3E0019054
:102FB0000D929A95E1F795E0E7E3F3E0D6010190F1
:102FC0000D929A95E1F70F900F900F900F900F9040
:102FD000DF91CF911F910F91FF90EF90DF90CF90F5
:102FE000089569EE7EEF90E080E00E94DD3360E0BE
:102FF00082E090E00E94BF3360E083E090E00E94B6
:10300000BF33109228031092290310922A031092C2
:103010002B0360E084E090E00E94BF3360E082E236
:1030200090E00E94BF3360E085E090E00E94BF33F3
:1030300060E086E090E00E94BF336FEF87E090E0B1
:103040000E94BF3340E050E0BA0188E090E00E9467
:10305000D13360E08DE090E00E94BF3340E050E06B
:10306000BA0188E190E00E94D13360E087E190E00E
:103070000E94BF3340E050E0BA018CE190E00E9432
:10308000D13370E060E080E290E00E94DD3340E008
:1030900050E0BA0188E190E00E94D13340E050E076
:1030A000BA018FE090E00E94D13340E050E0BA01D5
:1030B00083E190E00C94D133CF93C0919503C2FB90
:1030C000992790F9981799F080FBC2F9C09395035E
:1030D0006091940384E090E00E94BF336C2F82E201
:1030E00090E00E94BF3382E0CF910C942410CF91E6
:1030F00008951F920F920FB60F9211242F933F93B2
:103100004F935F936F937F938F939F93AF93BF93EF
:10311000CF93DF93EF93FF93D091E900DF7080911D
:10312000EC00C82FC17080FDC0E81092E9008091CA
:10313000F000877F8093F00078940E949E12109296
:10314000E9008091F00088608093F000CD2BCF7073
:10315000C093E900FF91EF91DF91CF91BF91AF91C3
:103160009F918F917F916F915F914F913F912F919F
:103170000F900FBE0F901F9018951F920F920FB6D1
:103180000F9211242F933F934F935F936F937F93ED
:103190008F939F93AF93BF93EF93FF938091E10041
:1031A00082FF09C08091E20082FF05C08091E100AA
:1031B0008B7F8093E1008091DA0080FF24C08091B2
:1031C000D80080FF20C08091DA008E7F8093DA00E3
:1031D0008091D90080FF9DC080E189BD82E189BDD9
:1031E00009B400FEFDCF81E0809346078091390746
:1031F000811109C00E948C050E9457068091E2004F
:1032000084608093E2008091E10080FF17C080918C
:10321000E20080FF13C08091E2008E7F8093E20085
:103220008091E20080618093E2008091D80080620A
:103230008093D80019BC85E0809346078091E10017
:1032400084FF2BC08091E20084FF27C080E189BD0C
:1032500082E189BD89B5982F917080FFFBCF809165
:10326000D8008F7D8093D8008091E1008F7E80937D
:10327000E1008091E2008F7E8093E2008091E20085
:1032800081608093E20080914707882309F447C05A
:1032900084E080934607809146078091E10083FF98
:1032A00027C08091E20083FF23C08091E100877FE7
:1032B0008093E10082E08093460710924707809157
:1032C000E1008E7F8093E1008091E2008E7F809309
:1032D000E2008091E20080618093E20042E060E0E1
:1032E00080E00E9425068091F00088608093F000C5
:1032F000FF91EF91BF91AF919F918F917F916F91CE
:103300005F914F913F912F910F900FBE0F901F90A3
:10331000189519BC109246071092390774CF809106
:10332000E30087FD93E090934607B5CF78941F9212
:103330001FB61F9211248F939F93AF93BF938091D9
:10334000320790913307A0913407B0913507019669
:10335000A11DB11D8093320790933307A0933407CA
:10336000B0933507BF91AF919F918F911F901FBE72
:103370001F9018959C014FB7F89480913207909157
:103380003307A0913407B09135074FBF821B930BD1
:1033900008952FB7F8948091320790913307A09148
:1033A0003407B09135072FBF08950F931F93CF9324
:1033B000DF93C62FD42F022FFC0182818823A1F036
:1033C00060937B070E94C91990937A0780937907CD
:1033D000C77081E001C0880FCA95EAF7DF91CF91ED
:1033E0001F910F910C94721080917B07681337C066
:1033F0008091790790917A070E94BA1984369105D5
:1034000070F510E21D0FCD17B9F080E28C0F8830F7
:1034100040F4C77081E001C0880FCA95EAF70E94A6
:103420006B10183048F481E09D2F977001C0880F11
:103430009A95EAF70E9472106AE070E0802F0E946D
:103440000411183098F4D77081E001C0880FDA9524
:10345000EAF7DF91CF911F910F910C946B10C77019
:1034600081E001C0880FCA95EAF7F3CFDF91CF91D1
:103470001F910F9108954F925F926F927F928F925A
:103480009F92AF92BF92CF92DF92EF92FF920F93F3
:103490001F93CF93DF9300D000D00F92CDB7DEB74C
:1034A0007C01FC0183819481892B39F01081D180CA
:1034B000812F8D218F3F09F0DAC50F900F900F906B
:1034C0000F900F90DF91CF911F910F91FF90EF9090
:1034D000DF90CF90BF90AF909F908F907F906F9034
:1034E0005F904F9008950E94A20B082F682F89814A
:1034F0009A810E943D0CE12FF0E026E0D29EE00D83
:10350000F11D11243CE3039FE00DF11D1124EE0F8A
:10351000FF1FE455FF4F05911491083A8DE51807F8
:1035200009F400C1D8F50C37110509F45DC128F57F
:103530000A37110509F485C10B37110509F472C169
:10354000043F2CE5120709F48FC108F062C0093D61
:103550008CE5180709F484C10A3D9CE5190709F4B4
:103560008FC1083DECE51E0709F062C026E241EE7E
:1035700061EEC7010E94D519AFC00D37110509F4DE
:1035800042C1073AEDE51E07D9F6F701828188238B
:1035900009F49DC081E00E9440109CC00B3AFDE5FB
:1035A0001F0709F4E2C0E8F4093A3DE5130709F4FE
:1035B000C1C00A3A8DE5180719F68091950381700C
:1035C000F7019281992309F4C3C0882309F4BEC08E
:1035D00084E00E94C9090E94721080E50E94AF1029
:1035E0007BC00D3A9DE5190709F4EBC008F4DAC079
:1035F0000E3AFDE51F0709F0A3CF81E00E94C9093B
:10360000F7019281992309F4EBC00E9472108AE2BB
:10361000E5CF063FFCE51F0709F42EC108F428C1D9
:1036200027E245EE66EE073F3CE5130709F4A1CF1C
:10363000F7018281882309F42BC510927B0704309F
:10364000FDE51F0708F01FC10B3F2CE5120730F402
:10365000C80182509C45449708F01FC10E949C15E8
:10366000909395038093940301319CE5190709F425
:10367000EAC108F068C10930FCE51F0709F4CDC1B3
:1036800008F035C105303CE5130709F4BEC108F068
:103690001BC103309CE5190709F4ADC108F0B1C1A5
:1036A00080919403816002301C4509F4A7C16091A8
:1036B00094031091950384E090E00E94BF33612F42
:1036C00082E290E00E94BF330E94931205C081E025
:1036D0000E9401100E94E50F80911C03877009F47D
:1036E000ECCEF7018281882309F4E7CE809195031F
:1036F00082FDE3CE82E00F900F900F900F900F901D
:10370000DF91CF911F910F91FF90EF90DF90CF90BD
:10371000BF90AF909F908F907F906F905F904F90F1
:103720000C942410F7018281882311F082E033CFBA
:1037300082E0CECFF7018281882321F083E00E94CE
:103740004010CACF83E00E940110C6CF81E041CF74
:10375000882349F084E00E94C9090E946B1080E52B
:103760000E947C10B9CF81E0F6CF809195038170E3
:10377000F7019281992359F0882339F084E00E945F
:10378000C9090E9472108FE429CF81E0F8CF882305
:1037900039F084E00E94C9090E946B108FE4E0CFE9
:1037A00081E0F8CF809195038170F7019281992390
:1037B00021F08111CBCF8AE411CF8111D4CF8AE4DB
:1037C000CFCF809195038170F7019281992321F0E9
:1037D0008111DBCF8DE402CF8111E2CF8DE4C0CF28
:1037E0000E946B108AE2BCCF81E00E94C909F701F8
:1037F0009281992321F00E94721086E0EFCE0E9400
:103800006B1086E0ADCF81E00E94C909F70192817B
:10381000992321F00E94721089E1E0CE0E946B1082
:1038200089E19ECF81E00E94C909F7019281992325
:1038300021F00E9472108BE1D1CE0E946B108BE1BF
:103840008FCF81E00E94C909F7019281992321F06D
:103850000E9472108DE1C2CE0E946B108DE180CF6C
:1038600027E245EE65EE85CE26E241EE60EE81CEA2
:1038700027E245EE64EE7DCE26E241EE62EE79CEA1
:1038800028E241E0EFCF02363DE5130709F4E6CE2A
:10389000063A8DE5180709F4E1CE06312CE512074A
:1038A00009F05DC4809126038A7A91E009F490E0E2
:1038B0009093BB0269E2811165E38EEA92E00E9477
:1038C00027070E94920F08CF8091940380620730EF
:1038D0002CE5120709F492C08091940380610830AE
:1038E0001C4508F48BC080919403806487C00D3020
:1038F0008CE5180709F49BC098F4809194038E7F9F
:103900000B30ECE51E0709F479C0809194038C60BC
:103910000C301C4508F472C0809194038D7F6EC0FA
:10392000809194038F7E0F302CE5120709F466C056
:1039300080919403877F00311C4508F45FC080911B
:1039400094038F7D5BC00E3F8CE5180709F477C0A8
:1039500050F50531ECE51E0709F47FC098F480911D
:103960009403837F03312CE5120709F447C008F460
:103970006EC00E94931290919403892F97FB87F950
:1039800080583CC00C3F8CE5180709F442C008F091
:1039900052C08091950381600B3F1C4509F087CE92
:1039A0008093950384CE0230FDE51F0709F461C0C2
:1039B00090F4809195038C7F01153DE5130781F309
:1039C00090F180919503982F909591708E7F892B1F
:1039D00090FB81F9E5CF02369DE5190709F44FC048
:1039E000063AEDE51E0709F451C003301D4509F004
:1039F0005ECE60E03FC08091940382608093940328
:103A000056CE809194038460F9CF809194038860AE
:103A1000F5CF809195038260C3CF0E94931280916D
:103A200094038068EBCF809195038360B9CF809138
:103A300094038B7FE3CF809195038E7FB1CF8091EC
:103A400095038D7FADCF809194038F7BD7CF0E945C
:103A50009312809194038F77D1CF8091940382FB4E
:103A6000992790F921E0922790FB82F990FB83F946
:103A7000C5CF61E08EE090E00E94BF3318CE9091F8
:103A80009403892F8F7E94FF8061B8CF9091940327
:103A9000892F8E7F90FF8160B1CF8091BB02811111
:103AA0000FC089E2E0EBF2E026EB32E0919189135E
:103AB00003C0DF0111971C922E173F07B9F701CF02
:103AC00085E3F0CF46EE57E06FEE77E00E94830784
:103AD00003CE4FEE57E066EE77E0F8CF44ED57E0C7
:103AE0006DED77E0F3CF4DED57E064ED77E0EECF8D
:103AF0004CEB57E068EC77E0E9CF48EC57E06CEB33
:103B000077E0E4CF40EB57E064EA77E0DFCF46E9C7
:103B100057E068E877E0DACF82E010C30E949312A2
:103B20003FEF84E39CE0315080409040E1F700C0DB
:103B3000000087E797E7909301088093000888E1E9
:103B40009AE00FB6F894A895809360000FBE90930A
:103B50006000FFCF81E023C380E021C3812F902F3D
:103B60000E94140CD82E2EC3212F2F70C22E107F2E
:103B700019F0C29420EFC222DD20B9F0CC2069F008
:103B800080E2800F883010F0811009C080912603F8
:103B9000C82AC09226030E94920F802F4BC08091AA
:103BA0002503C82AC0922503F6CF802F0E947C10DF
:103BB000CC2009F441C0005E083010F0811004C030
:103BC0008C2D0E94910B06C0C09480912503C822C1
:103BD000C09225030E94920F2FC0312F3F70C32E39
:103BE000107F103219F0C29490EFC922882089F01A
:103BF00081E0881609F488C0DD2009F492C099207C
:103C000009F488C0F701858180FFC7CF8F70858355
:103C100081C02091950322FF54C0DD2009F44AC0E1
:103C2000CC2039F080912603C82AC09226030E9436
:103C3000920F80E00E94AF10EA2DE850FF0B3497FE
:103C400010F40E943A0EBB20A9F080911C0380FD65
:103C500011C0F70112828595859585950E944010C7
:103C6000C7010E943B1A80911C0385958595859517
:103C70000E94011085E0F701DE01119601900D927E
:103C80008A95E1F789819A810E94140C9A81E981D1
:103C9000F0E026E0929FE00DF11D11243CE3839FAC
:103CA000E00DF11D1124EE0FFF1FE455FF4F85912C
:103CB000949103CC80E00E947C10CC2009F4BCCF0E
:103CC0007FCFDD20A1F0909127038C2D892B9110BF
:103CD00003C00E947210B0CFE1E09E12FACF22FD25
:103CE000ABCF981709F4A8CF80932703A5CF9110E5
:103CF00006C00E948B0B8C2D0E946B109DCFF1E0B3
:103D00009F1609F499CFF5CFDD2031F025E0291574
:103D100008F492CF8C2DDDCF34E0391508F48CCF28
:103D2000EACF992041F3F9E38F120DC02FEF37EE60
:103D300083E0215030408040E1F700C00000802F38
:103D40000E947C1079CFEFE3FCE93197F1F7F5CFD2
:103D5000812F86958695837061F0813009F06CCF54
:103D6000C8019370D11002C090E080E00E9441072A
:103D700063CFC8019370D11002C090E080E00E9430
:103D800057075ACF812F837009F066C0D11054CFE6
:103D9000802F829586958770880F880F602F6F70AF
:103DA000462E512C712C612C082E04C0440C551C3D
:103DB000661C771C0A94D2F740E050E0BA0104FF79
:103DC0000FC04FE050E060E070E004C0440F551FAA
:103DD000661F771F8A95D2F740955095609570952C
:103DE000812F869586958370823019F1D8F40091E1
:103DF00028031091290320912A0330912B0381304D
:103E000069F04429552966297729CB01BA01602335
:103E10007123822393230E9461100ECF402A512ADE
:103E2000622A732ACB01BA01642975298629972948
:103E3000F2CF44295529662977290091280310914A
:103E4000290320912A0330912B03CB01BA0160276B
:103E5000712782279327DFCF8695DD2011F0812FF0
:103E60008170882309F4E8CE802F8295869587702B
:103E7000880F880F602F6F70462E512C712C612C8B
:103E8000082E04C0440C551C661C771C0A94D2F7FB
:103E900040E050E0BA0104FF0FC04FE050E060E0A6
:103EA00070E004C0440F551F661F771F8A95D2F734
:103EB0004095509560957095812F86958695837075
:103EC000823019F1D8F40091830710918407209172
:103ED000850730918607813069F044295529662984
:103EE0007729CB01BA0160237123822393230E9497
:103EF000DB0FA2CE402A512A622A732ACB01BA01D3
:103F00006429752986299729F2CF442955296629DC
:103F100077290091830710918407209185073091BC
:103F20008607CB01BA016027712782279327DFCF4D
:103F30001F70DD2029F0812F0E944010802FC9CEF4
:103F4000802F0E946B10812F0E94011075CE802F50
:103F5000F2EF8F1609F43FC0F81570F020EF8216CB
:103F6000D1F031EF831691F0DD2009F46CC091108F
:103F700014CE812F8F7133C093EF891699F1E4EF3E
:103F80008E12F2CF8091950382FF3FC0812F8F71F7
:103F9000DD20D1F224C0DD20C9F0F4E0F91508F4E9
:103FA0004BCE1F7161E070E080E090E004C0660FCE
:103FB000771F881F991F1A95D2F7009183071091D8
:103FC00084072091850730918607ADCF25E029151C
:103FD00008F432CEE6CF812F8F71D110B5CF0E9479
:103FE00040102ACE60E070E0CB01DD2009F47FCFE5
:103FF0001F7161E070E080E090E004C0660F771F01
:10400000881F991F1A95D2F772CFDD2089F01F7192
:10401000812F0E9440108091950382FD07C038E0F7
:10402000139FC0011124836080931C03812FD7CF7D
:1040300081E00E94241081E0891508F0FDCD82E026
:104040000E942410F9CD992079F0893341F49FEF33
:10405000E7EEF3E09150E040F040E1F76ECE8FE301
:104060009CE90197F1F769CE812F8F716DCF85E0C3
:10407000DE01119601900D928A95E1F7F7012281F8
:1040800089819A8121112FCA0E94140C082F33CAEA
:104090000631FCE51F0709F400CD809126038272EA
:1040A0000B3C2CE5120709F42DCDA0F5063C9CE550
:1040B000190709F413CDC8F4043CFCE51F0709F403
:1040C00001CD08F006CD033C1C4509F06AC0809183
:1040D0007D0791E0892780937D0710925B01809195
:1040E0007C07816080937C07F7CA083C9CE5190730
:1040F00009F4FECC08F4F7CC093CFCE51F0709F4F1
:10410000FCCC44EA57E060EB77E00A3C1C4509F43C
:10411000DDCC47C00F3C3CE5130709F4FDCC88F427
:104120000D3CECE51E0709F4F2CC48E857E066E9DF
:1041300077E00E3C1C4508F4C9CC81E00E94600584
:10414000CBCA073D2CE5120728F483E0013D1C454E
:10415000A8F3C2CA0E351D4509F4BECA22C00B35EC
:104160009DE5190709F4F6CC58F40115FCE51F0785
:1041700009F4D4CC0F3D1C45A1F40E94F117ACCA40
:104180000C353DE5130709F4E7CC0D351D4549F421
:104190008091950382FB882780F991E089270E940E
:1041A0005C18F701828110810181882309F4D6CC43
:1041B000812F902F0E94A20BD82E682F812F902F35
:1041C0000E943D0CE12FF0E026E0029FE00DF11D82
:1041D00011243CE3D39EE00DF11D1124EE0FFF1FCF
:1041E000E455FF4F859194910E940C0A8C01882E12
:1041F000F701D280958092945FE0952280911C0314
:104200008770C1F0BD2CDD20B1F0812F807F80341C
:1042100021F080E2800F883068F08091950382FD64
:1042200009C082E00E94241080911C038770BB2487
:10423000B3948111B12CA12EA2943FE0A322FBE004
:10424000FA1508F4F9CCEA2DF0E0EE5AFB4C0C9488
:10425000F4321F93CF93DF938091E902807FA9F41A
:104260008091E602882389F080911B03D091EA02B5
:104270006091E4027091E502A091E702B091E8023A
:10428000C62FC72316E0D81304C0DF91CF911F912A
:10429000089590E0109711F0CF3F19F401968770C0
:1042A000F2CF189F9001199F300D1124F901E551AB
:1042B000FD4F41814713F2CF40814613EFCF42813A
:1042C0004111ECCF438154814A1B5B0B44365105AD
:1042D00028F78091E9028F7080618093E902F901EB
:1042E000E051FD4F80818F708061808384EE92E089
:1042F0000E943B1ADF91CF911F910C94980BAF92C3
:10430000BF92CF92DF92EF92FF920F931F93CF93C2
:10431000DF93CDB7DEB761970FB6F894DEBF0FBE5F
:10432000CDBF8C0185E0F801DE011D9601900D9254
:104330008A95E1F7F801E28084EEA82E82E0B82E9B
:104340006091E7027091E8026115710509F432C1CC
:104350009091E4024091E502892F84238F3F09F474
:1043600029C120813181C380D480F090E602F6011A
:10437000E61BF70BFF2009F4E8C08091E902582FF3
:10438000507FE436F10508F0ABC0511177C0FE2C28
:10439000431321C092131FC0E1101DC08F708061B4
:1043A0008093E902C5010E943B1A8091E902F8015D
:1043B00085838F2D61960FB6F894DEBF0FBECDBFFB
:1043C000DF91CF911F910F91FF90EF90DF90CF90F1
:1043D000BF90AF900895CD2829F0822F83238F3F7F
:1043E00009F003C180E0F82FF170DF2E80FF3CC0A0
:1043F00080911B034091EA0256E0841315C02D877B
:104400003E878D859E850E94F90B292F22952F705E
:104410002230F0F0243018F59F70F1F0F80195810A
:10442000907FD1F4D12C1EC090E0589FF001599F8D
:10443000F00D1124E551FD4F6181361306C06081F6
:10444000261303C06281E6120FC001968770D5CF94
:104450009F7011F0882331F3805E883018F3C80113
:104460000E943B1AFD2CA5CFEE2009F4A2CF80912B
:10447000E90281608093E902F12C9BCF431306C0CF
:10448000921304C0F801EE2009F479C0C8010E941B
:104490006B0C882309F1EE20F9F08091E90280325B
:1044A00070F02091E4023091E50238872F8319865D
:1044B000DB86CA868C87CE0107960E943B1A86E06F
:1044C000F801A4EEB2E001900D928A95E1F70E9406
:1044D0002921FF24F3946DCFC8010E943B1AF9CF24
:1044E00051110AC084EE92E00E943B1A86E0F50169
:1044F00011928A95E9F7C0CF43130FC092130DC0F4
:10450000E1100BC0F8018583C8010E943B1A86E0C8
:10451000F50111928A95E9F74CCFC8010E946B0C06
:104520008823D1F2EE20C1F28091E902803238F284
:104530002091E4023091E5023A8329831B82DD82D7
:10454000CC828E83CE010196B8CFE436F105F8F621
:10455000FE2CEE2009F243131FC092131DC0809160
:10456000E90280FD10C0982F907F69F0F8018583E3
:10457000903F31F0982F907F905F8F70892B8583CB
:10458000C8010E943B1A86E0F801A4EEB2E0019057
:104590000D928A95E1F70DCFC8010E946B0C811135
:1045A0008ECF8091E90281608093E902C8010E9468
:1045B0003B1AFFCEEE2009F48FCFC8010E946B0C8E
:1045C000F82E882309F488CF86E0F801A4EEB2E043
:1045D00001900D928A95E1F78091E4029091E502B5
:1045E0000E94F90B0E942921E4CE81E08E25FBCEAA
:1045F0001F93CF93DF93CDB7DEB767970FB6F894CD
:10460000DEBF0FBECDBF4B8B5C8B6D8B7E8B8F8BDC
:104610006111109225031A8A198A85E0FE017396AA
:10462000DE011D9601900D928A95E1F786E0FE016C
:104630003D96DE01179601900D928A95E1F7CE0125
:1046400007960E947F21811112C086E0FE013796F5
:10465000DE01119601900D928A95E1F78A859B857E
:10466000892B29F088859F8189238F3FB1F516E03A
:1046700080911B039091EA0289131DC067960FB6C3
:10468000F894DEBF0FBECDBFDF91CF911F9108958B
:1046900096E0929FD001939FB00D1124A551BD4F7C
:1046A000FE01319601900D929A95E1F78093EA020E
:1046B0000E94980BDCCF819FC001112485519D4F32
:1046C0000E947F218823D1F280911B0390E0019604
:1046D0008770992780931B03CBCF2091EA0230E0AB
:1046E000C90101968770992740911B034817190645
:1046F00079F60E9493121092EA0210921B0386E050
:10470000E4EEF2E0DF011D928A95E9F7B0CF3F9227
:104710004F925F926F927F928F929F92AF92BF92D1
:10472000CF92DF92EF92FF920F931F93CF93DF937D
:10473000682E80915601861124C090917D07937058
:104740002091550130E081E09217130609F480E0D2
:10475000817080935A018091820790915901981736
:1047600039F08093590140E060E080E00E945208F7
:104770002AE0261560F0E62DF0E0E25AFB4C0C949E
:10478000F43281E0E5CF80915A01811102C0C0E08E
:10479000A3C140E060E080E00E945208F8CFC091E1
:1047A00058018CE0C89FC02D11241CE01C0F1B3346
:1047B00008F01AE30E94160E882319F01E3108F043
:1047C0001DE10E94160E811103C0CD3108F4CDE128
:1047D00060917E0770917F07809180070E941A097F
:1047E000062FF72EE82ED0E0C11728F0812F0E9467
:1047F0006F0EC82F71C1FE01EF58FD4F808190915F
:104800005901892331F02E2D402F6F2DCE010E94AA
:1048100050082196E9CFC09158018CE0C89FC02D67
:1048200011241CE01C0F1B3308F01AE30E94160E23
:10483000882319F01E3108F01DE10E94160E811127
:1048400003C0CD3108F4CDE100917E07D0917F0700
:10485000F0908007609181076695669566958091D6
:104860006704909168040E9410090E94990880587A
:1048700087FD8195880F482F2F2D429F412D1124B0
:10488000842F602F7D2F0E941A09062FF72EE82E05
:10489000D0E0C11708F0AACFFE01EF58FD4F80818C
:1048A00090915901892331F02E2D402F6F2DCE018B
:1048B0000E9450082196EDCFC09158018CE0C89F0E
:1048C000C02D11241CE01C0F1B3308F01AE30E94BA
:1048D000160E882319F01E3108F01DE10E94160EF5
:1048E000811103C0CD3108F4CDE160918107669557
:1048F000669521E0620F08F46FEF80916704909154
:1049000068040E941009082FD0E0C11708F06ECF8C
:10491000FE01EF58FD4F808190915901892399F054
:1049200070917F07FE01EE0FFF1FEF53FE4F64AD46
:10493000601B809180070E941A09462F282F672F3D
:10494000CE010E9450082196E0CFC09158018CE022
:10495000C89FC02D11241CE01C0F1B3308F01AE364
:104960000E94160E882319F01E3108F01DE10E94E6
:10497000160E811103C0CD3108F4CDE1609181079D
:10498000669580916704909168040E941009D82E62
:10499000D0E0CE01880F991FDC01AF53BE4F7D01DF
:1049A000C11708F023CFFE01EF58FD4F8081909191
:1049B00059018923C1F0F70125AD2052330B44ADD5
:1049C0004057550B60917E0770917F07809180075B
:1049D0000D2D0E94E8080E941A09462F282F672FE4
:1049E000CE010E945008F2E0EF0EF11C2196D8CFC4
:1049F000C09158018CE0C89FC02D11241CE01C0FF1
:104A00001B3308F01AE30E94160E882319F01E319A
:104A100008F01DE10E94160E811103C0CD3108F48B
:104A2000CDE16091810766956695809167049091CC
:104A300068040E941009F82E80E48F0D0E949908E6
:104A400050E8D52ED80E8F2D0E94990860E8C62E0A
:104A5000C80ED0E0C11708F0C9CEFE01EF58FD4FD7
:104A60008081909159018923A1F060917E07709116
:104A70007F0780918007EF2C0C2F2C2D4D2D0E944D
:104A80006C080E941A09462F282F672FCE010E941A
:104A900050082196DFCFC0915A01C11142C06091E8
:104AA000810720E1620F08F46FEF80916704909115
:104AB00068040E94100965E070E00E94C032892BF2
:104AC00009F065CE0E9462336AE370E00E94E03232
:104AD000609159010E945A15809158018F5F80930F
:104AE0005801C1110CC082E080935B0180915A0192
:104AF000811105C0611003C083E080935B01DF91E9
:104B0000CF911F910F91FF90EF90DF90CF90BF90CA
:104B1000AF909F908F907F906F905F904F903F905D
:104B20000895C09158018CE0C89FC02D11241CE04D
:104B30001C0F1B3308F01AE30E94160E882319F08D
:104B40001E3108F01DE10E94160E811103C0CD3107
:104B500008F4CDE1D0E0E12EF12CCE15DF050CF00C
:104B600045CE60915901CE010E945A152196F5CF8C
:104B70004091F7035091F8036091F9037091FA03A3
:104B80008091670490916804A0916904B0916A04CF
:104B900084179507A607B70708F4F9CD80915A0145
:104BA000882329F040E060E080E00E945208609194
:104BB0007E0770917F07809180070E941A09D62E88
:104BC000C72EB82ECBEBD3E001EC11E045E0E42E8C
:104BD00048E0F42ED8018C9190E0288140E060E01C
:104BE000222319F02B2D4D2D6C2D0E945008298168
:104BF0002883F801818190E0211104C020E040E089
:104C000060E003C02B2D4D2D6C2D0E9450088A8131
:104C10008983D80115968C9190E02D8140E060E069
:104C2000222319F02B2D4D2D6C2D0E9450082C8124
:104C30002D83F801848190E0222309F464C02B2D98
:104C40004D2D6C2D0E9450082B812C83D80113967A
:104C50008C9190E0222309F45AC02B2D4D2D6C2D00
:104C60000E945008F801828190E02A81222309F4F1
:104C700052C02B2D4D2D6C2D0E94500820915301B8
:104C8000309154012E9DC0012F9D900D3E9D900DA1
:104C90001124875E994C9093540180935301890F9E
:104CA000837091E009F090E09A839B8326960A5FD7
:104CB0001F4FF3E0C73FDF0709F08CCF209181073A
:104CC00030E1230F08F42FEF60E1822F90E00E9483
:104CD0001009BC0188EB9BE00E94C0328091670400
:104CE00090916804A0916904B0916A04860F971F9F
:104CF000A11DB11D8093F7039093F803A093F903CE
:104D0000B093FA0344CD20E040E060E09BCF20E088
:104D100040E060E0A5CF20E040E060E0ADCFC09192
:104D200058018CE0C89FC02D11243CE0532E5C0E2E
:104D3000152DFCE3F51508F41CE380915A01882336
:104D400061F040E060E080E00E945208EEEFF3E0A6
:104D50008CE3DF011D928A95E9F78091580181115A
:104D600015C08091FC039091FD030E94BA1921E0C7
:104D70008931910508F420E02093FB03499730F036
:104D80000E94C9199093FD038093FC03D0E0E12EAB
:104D9000F12C8AE0882E912C96E0492E2AEA322EB8
:104DA000CE15DF0534F0C1E0BBE3B51508F094CEB5
:104DB000EECCCE01B4010E94E0326B015C014A9C52
:104DC000C0014B9C900D1124FC01E250FC4FE60FFA
:104DD000F71F70808F539E4FFC01E60FF71F008175
:104DE0000F3F51F110E0F801EF58FD4F8081909195
:104DF0005901892309F1372D25E5321B08F430E0EC
:104E000070917F07232D472D240F08F42FEF409139
:104E10008007822F880F820F8E5F282F249F212DDD
:104E20001124822F632D631B0E941A09462F282FFD
:104E3000672FC8010E9450088091FB03882381F0EE
:104E4000372D41E0341B08F430E04A9CC0014B9CF4
:104E5000900D112482509C4FC80ED91ED6013C9350
:104E600021969ECF8EE198E00E947F0EC2CC86E014
:104E700098E0FACF4F925F926F927F928F929F92BB
:104E8000AF92BF92CF92DF92EF92FF926091630454
:104E90007091640480916504909166040E94710F82
:104EA0006B017C010E94560F4B015C0180926304F0
:104EB00090926404A0926504B0926604A0913A04B2
:104EC000EAE3F4E08A2F90E04FEF5FEF60E070E0FC
:104ED0004C195D096E097F09A91328C080933A0413
:104EE00080916B04811135C090917D07892F83706B
:104EF00019F0892F8695869590915B01913009F480
:104F000041C0992341F1923009F44AC0933009F429
:104F100055C0FF90EF90DF90CF90BF90AF909F90E3
:104F20008F907F906F905F904F900895218D328D7C
:104F30002901712C612C441555056605770520F46F
:104F400081509F5F3296C8CF2C0D3D1D328F218F2F
:104F5000F8CF80E0D1CF10925801809267049092F0
:104F60006804A0926904B0926A0489E2EAE3F4E07A
:104F7000A0E5B7E001900D928A95E1F781E080937A
:104F80005B01C7CFFF90EF90DF90CF90BF90AF90C5
:104F90009F908F907F906F905F904F900C9487239D
:104FA000FF90EF90DF90CF90BF90AF909F908F9049
:104FB0007F906F905F904F900C94F90780917C07E1
:104FC000882351F046E050E06CE170E08DE797E017
:104FD0000E94AF3310927C0760916704709168045F
:104FE0008091690490916A040E94710F603171058B
:104FF0008105910508F48DCF10925B018ACF7F92D5
:105000008F929F92AF92BF92CF92DF92EF92FF92D8
:105010000F931F93CF93DF93CDB7DEB72F970FB6C4
:10502000F894DEBF0FBECDBF8E010F5F1F4F8AE029
:10503000D8011D928A95E9F786E9C82E81E0D82E1D
:10504000F12CE12CAA24A394B12C21EA822E21E098
:10505000922EF60181916F018F3F09F443C0F894BD
:10506000E82FE295EF70F0E021A18F70A50102C05A
:10507000440F551F8A95E2F7CA01922F982B91A3EE
:1050800092A18095892382A30E94B00900C0EBE918
:10509000F1E0712C31E021912F3F09F47AC0A22F69
:1050A000A295AF70B0E090968C9190E02F7002C006
:1050B000959587952A95E2F780FD6BC0832F782A16
:1050C000330F8E169F0639F7F601319780818F3F97
:1050D00011F00E94B20950EA5A95F1F7F801EE0D6D
:1050E000FF1D70828FEFE81AF80A95E0E916F104C7
:1050F00009F0AFCF4AE050E0B8018DE693E00E949E
:105100007B337C01892B41F08AE0F801ADE6B3E006
:1051100001900D928A95E1F710917803E114F10462
:10512000D1F181E080932E030E94C91990932D0341
:1051300080932C0380912C0390912D030E94BA1927
:10514000059778F0ADE6B3E0E12FF0E0E658FC4FCC
:1051500082E793E02D9121938A179B07D9F710924C
:105160002E0381E090E0EF28D1F02F960FB6F8944F
:10517000DEBF0FBECDBFDF91CF911F910F91FF908A
:10518000EF90DF90CF90BF90AF909F908F907F90E7
:10519000089580E094CF80912E038111CBCF0E949F
:1051A000160ED82EE0917803DE011B967D01882330
:1051B00009F47DC085E01D928A95E9F70E2F10E075
:1051C00006581C4F809168038A30E8F544EB57E19C
:1051D000B701C8010E94D20D882309F444C04DE9EB
:1051E00056E1B701C8010E94D20D8823E1F14EE5D6
:1051F00057E1B701C8010E94D20D8823A1F14AEA04
:1052000055E1B701C8010E94D20D882361F146E63D
:1052100056E1B701C8010E94D20D882321F11092F6
:1052200068038091770390E045E050E0B70186582D
:105230009C4F0E947B3321E020933503892B51F54D
:10524000D12C8D2D92CF80912F03909130030E940D
:10525000BA19843F914008F0B9CF8091350381118C
:1052600012C080E082CF809168038F3F29F08F5F6A
:10527000809368038A30A8F20E94C9199093300382
:1052800080932F03EACF85E0F70111928A95E9F721
:1052900010923503A0917703B0E0A658BC4F85E08B
:1052A000FE013B9601900D928A95E1F7CACFF0E09E
:1052B000E658FC4F0091770310E006581C4FF89415
:1052C00085E0A9E4B3E001900D928A95E1F765E0ED
:1052D00070E089E493E00E946D07809348030E9488
:1052E000B009F89485E0EEE4F3E0D80101900D9266
:1052F0008A95E1F70E94B009F894E0919203F0E0FA
:10530000E157FC4F80818B878093540361E070E00C
:10531000C7010E946D07809353030E94B009F8945F
:10532000C0905503D0905603E0905703F090580377
:105330008091310390913203A0913303B0913403F3
:10534000C816D906EA06FB06D1F0C0923103D09206
:105350003203E0923303F09234030E94160E81115F
:105360000EC00E941B07C61AD70AE80AF90AC092A3
:105370006903D0926A03E0926B03F0926C030E947F
:10538000B009F89486E0E9E5F3E0ADE7B7E0019015
:105390000D928A95E1F710915F03112349F08091F6
:1053A0006B04811105C00E94872380E00E94F907E9
:1053B00010936B040E94B00954CF1F921FB61F9226
:1053C00011248F939F93AF93BF93809131078111E5
:1053D00013C08091320790913307A0913407B091A8
:1053E00035074196A11DB11D809332079093330775
:1053F000A0933407B0933507BF91AF919F918F91E0
:105400001F901FBE1F901895CDB7DEB72C970FB613
:10541000F894DEBF0FBECDBF84B7877F84BF0FB6C1
:10542000F894A89580916000886180936000109244
:1054300060000FBE80E890E00FB6F89480936100A2
:10544000909361000FBE85B7806885BF85B780687F
:1054500085BF8EEA99E09093AD028093AC020E94E2
:105460008C050E9457068091E20084608093E200E0
:105470007894809146078823A1F01091E9001F706D
:105480009091EC00892F817090FD80E8182B10928C
:10549000E9008091E80083FD0E949E121F70109326
:1054A000E90082E084BD93E095BD9AEF97BD8093BB
:1054B0006E001092690310926A0310926B031092AF
:1054C0006C030E94160E80933D010E94160E8111FE
:1054D0000E945D3180913D0180913D0195E08111F7
:1054E00090E09093780385E0891B8093770306E929
:1054F00011E08BE9E82E81E0F82ED8018D918D0125
:105500008F3F11F00E94B209E016F106B1F70BE9E6
:1055100011E0B1EAEB2EB1E0FB2EF80181918F0191
:105520008F3F11F00E94B209E016F106B1F78AE050
:10553000EAE7F3E0DF01282F1D922A95E9F7EDE66F
:10554000F3E0DF011D928A95E9F790E080E00E9488
:10555000A933893E9E4F11F00E94F11782E090E03E
:105560000E94A133809384030E949C15909395031D
:105570008093940383E090E00E94A133682F70E051
:1055800090E080E00E946110109250078FEF9FEF33
:1055900090936A078093690790936C0780936B07D9
:1055A00090936E0780936D079093700780936F07B9
:1055B0009093720780937107909374078093730799
:1055C0009093760780937507909378078093770779
:1055D00010923A0490935404809353049093560489
:1055E00080935504909358048093570490935A04E1
:1055F0008093590490935C0480935B0490935E04C1
:1056000080935D049093600480935F0490936204A0
:105610008093610490E080E00E94A933893E9E4F10
:1056200021F00E94F1170E94811546E050E06CE1E4
:1056300070E08DE797E00E94913310927C07809193
:105640007D078C7F11F40E9481150E94160E88231D
:1056500009F4D0C183E08093B60380FDCDC180E81A
:1056600080931A050E94F52F6DE070E08FE992E0BB
:105670000E94D80C892BE9F58091B60363E070E0B5
:1056800081FDBCC18CE992E00E94D80C892B89F580
:105690006DE070E08CE892E00E94D80C892B49F50F
:1056A0000E941B07605A75418F4F9F4F60932507DB
:1056B000709326078093270790932807EDE1F5E084
:1056C00080E092E0DF019C011D9221503040E1F723
:1056D000F0932407E09323078FEF9FEF90931C052F
:1056E00080931B0581E080932A07809329071092FD
:1056F000B70380913D01811106C084EF80934B0177
:1057000085EF80934A0180914B01E82FE295EF707D
:10571000F0E031A18F7041E050E0BA0102C0660FA5
:10572000771F8A95E2F7CB01262F2095232321A30B
:1057300092A1982B92A390914A01E92FE295EF70E4
:10574000F0E021A19F70DA0102C0AA0FBB1F9A9559
:10575000E2F7CD019A2F9095922391A392A1892BE4
:1057600082A3EFE8F1E03197F1F700C0000020914B
:105770004B01E22FE295EF70F0E080A190E02F70F6
:1057800002C0959587952A95E2F7817090914A011C
:10579000E92FE295EF70F0E020A130E09F7002C0A9
:1057A000359527959A95E2F792E020FF90E0892BB6
:1057B0008093930390913D0181E098279093920309
:1057C000891B809379030E94160E811102C00E94EA
:1057D00060318EE391E090932E0780932D078091A6
:1057E000460700E112E1853009F453C10E94FF270A
:1057F000E82E81110E941B07EAE7F3E0A5E8B3E079
:10580000912C812CC82C71908D91871509F440C280
:10581000F12C11E08725982F912309F434C20E94BE
:10582000160E7122882399F0F982CA8281E07110E4
:1058300001C080E08B830E94C9198160782F9D830D
:105840008C8349815A816B818D810E94F822F401F9
:10585000EB57FC4F808118271083772089F086E072
:10586000889DF001899DF00D1124EF53FE4FEF0D3F
:10587000F11D8081712C8F3F19F0D82E77247394FD
:10588000072D10E080913A04800F912F911D099708
:105890006CF1E8E0AE2EB12CA01AB10AB801655C3B
:1058A0007B4FA5018BE394E00E948833B8016D5BC8
:1058B0007B4FA50183E494E00E948833A501440F47
:1058C000551FB801660F771F6D5A7B4F83E594E033
:1058D0000E948833B801655B7B4FA5018BE494E09F
:1058E0000E94883388E0871980933A0480913A04B3
:1058F00090E0AD2DB0E09D01220F331F23503E4FAD
:10590000AA0FBB1FBD0162507E4F41E0480F9715A3
:1059100008F4CBC080933A0480917D078C7F80325D
:1059200009F006C18FEF8C0D21E02C0D9FEF9F0D2C
:10593000A1E0AF0D9F1580F436E0389DF001399D50
:10594000F00D1124E250FC4FE90FF11D308140E1D0
:10595000340F08F43FEF30836F2D70E036E0389D50
:10596000A001399D500D112442505C4FFA01E60F01
:10597000F71F308110E2310F08F43FEF3083A6307B
:1059800009F42FC3FA01EA0FF11D308140E1340F11
:1059900008F43FEF30832A3009F09CC09F1570F463
:1059A00026E0829FF0011124E250FC4FE90FF11D27
:1059B00020813DE0230F08F42FEF208336E0839F02
:1059C000C001112482509C4FFC01E60FF71F20817B
:1059D00030E1230F08F42FEF2083A63009F4A8C08C
:1059E000A80FB92FB11D2C913DE0230F08F42FEF24
:1059F0002C939EC080E02FCE80E232CE89E992E0E7
:105A000043CE80914607843009F434C00E943A277F
:105A100080916B04811105C00E94872380E00E9461
:105A2000F90731E030936B040E94080D10923107A2
:105A300068E170E080E40FB6F894A8956093600088
:105A40000FBE8093600083B7817F846083BF83B77C
:105A5000816083BF7894889583B78E7F83BF0FB6AC
:105A6000F894A895809160008861809360001092FE
:105A700060000FBE80914507882359F00E94FF27E0
:105A8000EAE7F3E08191811192C293E0E438F907EB
:105A9000C9F780914607853009F4B3CF0E9493126D
:105AA0000E943A0E10926B04A1CE90E0FC01E65CDD
:105AB000FB4FD9015C915183DB015C915187D18A05
:105AC000880F991FFC01E65CFB4F128E118E91E04E
:105AD000842F1BCF9F1570F4B6E02B9FF00111248B
