:100000000C94A5050C94C2050C94C2050C944533C0
:100010000C94C2050C94C2050C94C2050C94C20544
:100020000C94C2050C94C2050C942E150C94A11DC1
:100030000C94A62A0C94C2050C94C2050C94C2051B
:100040000C94C2050C94C2050C94C2050C94C20514
:100050000C94C2050C9407160C94C2050C94C205AE
:100060000C94C2050C94C2050C94C2050C94C205F4
:100070000C94C2050C94C2050C94C2050C94C205E4
:100080000C94C2050C94C2050C94C2050C94C205D4
:100090000C94C2050C94C2050C94C2050C94C205C4
:1000A0000C94C2050C94C2050C94C20529001E00D4
:1000B0001F002000210022002B0014001A0008005D
:1000C000150017002A0004001600070009000A00A6
:1000D000E1001D001B00060019000500E200E3001E
:1000E000E000A95D2C00A8002D00270026002500B7
:1000F000240023002E00130012000C0018001C0026
:10010000340033000F000E000D000B00E500380036
:1001100037003600100011004C00E700E600AA5D31
:100120002800115029001E001F002000210022007D
:100130002B0014001A00090013000A002A00040012
:100140001500160017000700E1001D001B00060047
:1001500019000500E200E300E000A95D2C00A80002
:100160002D00270026002500240023002E00330048
:100170001C0018000F000D00340012000C000800D5
:1001800011000B00E50038003700360010000E00AB
:100190004C00E700E600AA5D2800105035003A0048
:1001A0003B003C003D003E0001003F00400041009C
:1001B00042004300010044004500680069006A00F5
:1001C00001006B006C006D006E006F00010001000B
:1001D00001000100010001004600310056006100ED
:1001E00060005F0030002F0057005E005D005C0083
:1001F00030022F0231025B005A0059004D004A00C4
:1002000001005200620063004F00510050000100E5
:100210000100530035003A003B003C003D003E0029
:1002200001003F0040004100420043000100440043
:100230004500680069006A0001006B006C006D00F9
:100240006E006F00010001000100010001000100CB
:10025000460031005600610060005F0030002F0052
:1002600057005E005D005C0030022F0231025B002F
:100270005A0059004D004A0001005200620063001C
:100280004F00510050000100010053000000000029
:100290000000000000000000005CCC5CCA5CC85C90
:1002A000C65CC45C0000CD5CCB5CC95CC75CC55C53
:1002B000015D0000000000000000000001000100DE
:1002C000010001000100000000000000000000002B
:1002D000000000000000000000000000000000001E
:1002E00000000000A900A800AA0000000000000013
:1002F000AB00AE00AC0000000100010001000100F5
:100300000100000000DA0281FFD9F1DB20A4A62E53
:10031000AF00A0C000A1C800AED580A81FD3004088
:100320008D1420003F3F3F202000434C4D4B2000C8
:1003300052474220200046756E63740046756E6316
:100340007400416C70686100202020202000204350
:10035000415020000A0A0A0A0A0A0A0A0A000A0A7E
:100360000A005370005620005320004820004D6FB3
:100370000057494E0A004D41430A00536F666C65B1
:1003800043686F63205F5F5F5F5F0080818283846B
:1003900085868788898A8B8C8D8E8F909192939495
:1003A000A0A1A2A3A4A5A6A7A8A9AAABACADAEAFD5
:1003B000B0B1B2B3B4C0C1C2C3C4C5C6C7C8C9CA4C
:1003C000CBCCCDCECFD0D1D2D3D40000010101010E
:1003D0000101010101020202020202020202030300
:1003E00003030303030304040404040404050505D0
:1003F0000505060606060607070707070808080892
:10040000090909090A0A0A0B0B0B0C0C0C0D0D0D3E
:100410000E0E0E0F0F0F10101111111212131314D4
:1004200014151516161717181819191A1A1B1B1C4C
:100430001D1D1E1E1F2020212222232424252626A6
:10044000272829292A2B2C2D2D2E2F3031323233DB
:100450003435363738393A3B3C3D3E3F40414243E4
:100460004445464748494A4C4D4E4F5051535455C8
:100470005658595A5B5D5E5F616264656668696B78
:100480006C6D6F7072737577787A7B7D7E808283F6
:100490008587888A8C8E8F91939596989A9C9EA03A
:1004A000A2A3A5A7A9ABADAFB1B3B5B7BABCBEC047
:1004B000C2C4C6C9CBCDCFD1D4D6D8DBDDDFE2E410
:1004C000E7E9EBEEF0F3F5F8FAFDFF07087F080720
:1004D000003E5B4F5B3E003E6B4F6B3E001C3E7C24
:1004E0003E1C00183C7E3C18001C577D571C001C0D
:1004F0005E7F5E1C0000183C180000FFE7C3E7FFAA
:1005000000001824180000FFE7DBE7FF0030483A3E
:10051000060E00262979292600407F0505070040A0
:100520007F05253F005A3CE73C5A007F3E1C1C08D3
:1005300000081C1C3E7F0014227F2214005F5F0015
:100540005F5F0006097F017F00006689956A006091
:10055000606060600094A2FFA2940008047E04081A
:100560000010207E20100008082A1C0800081C2A01
:100570000808001E10101010000C1E0C1E0C00307D
:10058000383E383000060E3E0E0600000000000027
:100590000000005F000000000700070000147F1447
:1005A0007F1400242A7F2A12002313086462003675
:1005B0004956205000000807030000001C2241009B
:1005C000000041221C00002A1C7F1C2A0008083E53
:1005D00008080000807030000008080808080000C3
:1005E00000606000002010080402003E5149453EB2
:1005F0000000427F400000724949494600214149BC
:100600004D33001814127F10002745454539003C32
:100610004A49493100412111090700364949493603
:1006200000464949291E0000001400000000403423
:1006300000000000081422410014141414140000D7
:1006400041221408000201590906003E415D594E3D
:10065000007C1211127C007F49494936003E41411D
:100660004122007F4141413E007F49494941007F8D
:1006700009090901003E41415173007F0808087FC4
:100680000000417F4100002040413F01007F0814ED
:100690002241007F40404040007F021C027F007FDB
:1006A0000408107F003E4141413E007F09090906D0
:1006B000003E4151215E007F091929460026494923
:1006C00049320003017F0103003F4040403F001FCB
:1006D0002040201F003F4038403F0063140814634F
:1006E000000304780403006159494D4300007F4131
:1006F000414100020408102000004141417F0004F4
:10070000020102040040404040400000030708008E
:10071000002054547840007F284444380038444432
:10072000442800384444287F0038545454180000AA
:10073000087E09020018A4A49C78007F08040478AD
:100740000000447D4000002040403D00007F102814
:1007500044000000417F4000007C04780478007C65
:100760000804047800384444443800FC1824241851
:100770000018242418FC007C080404080048545481
:1007800054240004043F4424003C4040207C001CCE
:100790002040201C003C4030403C004428102844AD
:1007A000004C9090907C004464544C440000083607
:1007B0004100000000770000000041360800000200
:1007C00001020402003C2623263C00000000000039
:1007D00000404040F0F8F8FF38FFF8F83FF8F8FF25
:1007E00038FFF8F8F040404000000000000080C0F2
:1007F000C0C0800000C0C08000000080C0C000C039
:10080000C0000080C0C00000000000C0C0C0C0C068
:1008100000C0C00000000000000000000000000058
:1008200000000000000000000000000000000000C8
:1008300000000000000000000000000000000000B8
:1008400000000000000000000000C0F0F8FC3E1EA8
:1008500006010000007F4141417F007F4141417F0F
:10086000000080C0E07E5B4F5BFEC00000C000DC8B
:10087000D7DEDEDED7DC00C0000000000000000094
:100880000000000000000000000000000000000068
:1008900000494949FFFFFFFFE0DFBFBF00BFBFDFE7
:1008A000E0FFFFFFFF49494900000000001F3F60D3
:1008B00060E0BF1F007F7F071E381E077F7F007F1D
:1008C0007F0E1F3B716000000000007F7F0C0C0C4E
:1008D000007E7E007F7E0303007F7E03037E7E0317
:1008E000037F7E000F3E703C063C703E0F00327B63
:1008F00049493F7E007F7E0303001E3F69696F26E2
:1009000000000000000000000000030F1F3F3C78C3
:1009100070600000007F4141417F007F4141417F85
:1009200000307B7F7830202030787F3B0003000F41
:100930007F0F0F0F7F0F000300000000000000007A
:1009400000000000000000000000000000000000A7
:1009500000010101070F0F7F0F7F0F0F7E0F0F7F29
:100960000F7F0F0F070101010000000000000000D1
:100970000000010100000000000000000000000075
:100980000000000000000000000000000000000067
:100990000000000000000000000000000000000057
:1009A0000000000000000000000000000000000047
:1009B0000000000000000000000000000000000037
:1009C0000000000000000000000000000000000027
:1009D0000000000000000000000000000000000017
:1009E0000000000000000000000000000000000007
:1009F00000000000000000000000000000000000F7
:100A0000000000000000000000000000AF00AE0584
:100A1000010902A10185020901A1000509190129A5
:100A200008150025019508750181020501093009A5
:100A3000311581257F9502750881060938158125B4
:100A40007F950175088106050C0A38021581257FFE
:100A5000950175088106C0C005010980A1018503C3
:100A600019012AB700150126B700950175108100FC
:100A7000C0050C0901A101850419012AA002150174
:100A800026A002950175108100C005010906A1018B
:100A9000050719E029E71500250195087501810270
:100AA0009501750881010507190029FF150026FF2A
:100AB0000095067508810005081901290595057539
:100AC000019102950175039101C009023B000201E9
:100AD00000A0FA090400000103010100092111012D
:100AE00000012240000705810308000109040100FC
:100AF0000103000000092111010001227B0007050C
:100B00008203200001120100020000000832FC876D
:100B100002010001020001160353006F0066006C21
:100B20000065002000430068006F006300000014AF
:100B30000342007200690061006E0020004C006FEB
:100B40000077000000040309040011241FBECFEF4A
:100B5000DAE0DEBFCDBF12E0A0E0B1E0EEE9FAE6F8
:100B600002C005900D92A83AB107D9F727E0A8EA8C
:100B7000B2E001C01D92AF38B207E1F70E94CD2A62
:100B80000C942E350C94000090918507937061F0C1
:100B900081110BC09460909385071092570180914A
:100BA00084078160809384070895893010F09062F3
:100BB000F2CF880F880F982BEECF90918507937016
:100BC00071F08093860760938707453608F044E606
:100BD00040938807809184078160809384070895FB
:100BE000E8EDF0E080818E7F80831092E200109229
:100BF000DA001092E100A0EEB0E08C9181608C935D
:100C000080818F77808319BCA7EDB0E08C918E7FB7
:100C10008C9380818F7E808310924107089520916C
:100C2000E4003091E50095E6A9012091EC00822FC7
:100C3000817020FF06C08091E80080FF06C080E040
:100C400008952091E80022FD1AC080914E07882364
:100C500089F0853089F08091EB0085FD0FC02091EF
:100C6000E4003091E50042175307F9F29150E1F6A4
:100C700084E0089582E0089583E0089581E0089576
:100C8000EF92FF920F931F93CF937C018B010E94F1
:100C90000F06C82F811117C08091E80085FD0BC099
:100CA0008091E8008E778093E8000E940F068823E9
:100CB00099F3C82F08C0F70181917F018093F1005B
:100CC0000150110949F78C2FCF911F910F91FF907F
:100CD000EF9008958091500787FF13C08091E8003E
:100CE00082FF06C08091E8008B778093E80004C003
:100CF00080914E078111F2CF089580914E0788238D
:100D0000D9F38091E80080FFF8CF8091E8008E77DA
:100D1000ECCF982F9093E900242F762F50E089177D
:100D200031F07091EC002091ED005091F00021FD28
:100D300007C09F5F973071F78093E90081E00895C5
:100D40003091EB003E7F3093EB003091ED003D7F22
:100D50003093ED003091EB0031603093EB007093F5
:100D6000EC002093ED005093F0002091EE0027FD61
:100D7000E0CF80E00895CF92DF92EF92FF920F9341
:100D80001F93CF93DF93C8EDD0E088818F7E888357
:100D9000E7EDF0E080818160808384E082BF81E0C4
:100DA0008093410788818E7F888302EE10E0F801EE
:100DB00010821092DA0081EEC82ED12CF60110823A
:100DC00088818F77888388818068888388818F7DF8
:100DD000888319BC10924E0710924F0710924D074E
:100DE00010924C0790EEE92EF12CF70180818B7F59
:100DF000808388818160888342E060E080E00E9497
:100E00008906F60180818E7F8083F8018081816070
:100E10008083808188608083F70180818E7F8083DA
:100E2000888180618883DF91CF911F910F91FF901E
:100E3000EF90DF90CF900895FC018091560790913C
:100E4000570786179707A0F06115710529F490914F
:100E5000E8009E779093E80090E06115710551F4E9
:100E6000911108C08091E80082FF34C080E00895AD
:100E7000BC01F2CF80914E078823C1F18530C1F1CA
:100E80008091E80083FD30C08091E80082FDEACFC8
:100E90008091E80080FFE1CF8091F3002091F20083
:100EA000382F6115710519F02830310558F091E09F
:100EB0002830310509F090E02091E8002E7720934A
:100EC000E800CBCF81918093F100615071092F5FD1
:100ED0003F4FE7CF80914E07882341F0853041F0A6
:100EE0008091E80083FFBECF81E0089582E00895FD
:100EF00083E0089508958091430708952FB7F894EB
:100F000060913A0770913B0780913C0790913D07B3
:100F10002FBF08959C01FC0132969FEF80E0419124
:100F2000461751F09F3F19F4411101C0982F8F5F70
:100F30008630A9F79F3F09F40895290F311D97FDC9
:100F40003A95F90162830895209137073091380767
:100F50002817390771F09093380780933707E0918D
:100F60003507F0913607309721F00084F185E02DA8
:100F700009940895209133073091340728173907D1
:100F800071F09093340780933307E0913507F09127
:100F90003607309721F00680F781E02D09940895F7
:100FA000FC01680F791F8FEF91E32191822728E0E0
:100FB00030E087FF09C0880F892721503109C9F720
:100FC000E617F70791F70895880FF7CFFA01811117
:100FD00001C0FB010994E5E8F7E0248130E1231B1F
:100FE00008F420E024838091840781608093840743
:100FF0000895E5E8F7E0248130E1230F08F42FEFAE
:101000002483809184078160809384070895E5E8B4
:10101000F7E0438120E1421B08F440E081816281D6
:1010200090E00C94DD05E5E8F7E0438120E1420F14
:1010300008F44FEF8181628190E00C94DD05E5E8D2
:10104000F7E0628120E1621B08F460E08181438166
:1010500090E00C94DD05E5E8F7E0628120E1620FA5
:1010600008F46FEF8181438190E00C94DD05E5E8A1
:10107000F7E08181438162818850990B0C94DD05F2
:10108000E5E8F7E0818190E04381628108960C9465
:10109000DD058091850786958695815009F488E065
:1010A0000C94C40580918507869586958F5F89305D
:1010B00008F081E00C94C405EF92FF920F93970122
:1010C000201B31092F3F310519F010F02FEF30E0D0
:1010D000322F3095482F430F08F44FEF842F620FC3
:1010E0000F91FF90EF900895EF92FF920F93972F3B
:1010F000093438F4B701601B71096F3F710519F0AD
:1011000010F06FEF70E0485F5F4F4131510540F0E4
:10111000A901485F5F4F4131510510F06FEF70E05A
:101120006095482F460F08F44FEF842F37FF02C019
:101130002D5F3F4F3595279535952795609186070B
:10114000620F792F0F91FF90EF9008950C94890F03
:10115000FF920F931F93CF93DF93182F062FF42E38
:10116000D0E0C0E02F2D402F612FCE010E94A608B5
:101170002196CA33D105B1F7DF91CF911F910F911D
:10118000FF9008950F931F93522F10E0F801EE0F78
:10119000FF1FE354FE4FA5ADA052BB0B9D015203B0
:1011A000F001539FF00D1124000F111FD801A7501B
:1011B000BE4F0C910057110B40039001419F300D21
:1011C00011242E0F3F1F37FF02C021583F4F220F1F
:1011D000232F221F330B620F1F910F910895E82FC9
:1011E00086FDE0952E2F2F7086FD2F5FE695E69504
:1011F000E695E670F0E0EB54FE4F9181929F902DC2
:10120000212D112492959F702295207F922B208171
:10121000920F87FD919580E8890F089530E020E0D6
:10122000869F212D969F200D311D1124C9010895FF
:10123000AF92BF92CF92DF92FF920F931F93CF9303
:10124000DF93362F472FE82FF0E0E553FC4F711165
:101250000FC0E4918E2F2E2F6E2F722FDF91CF9122
:101260001F910F91FF90DF90CF90BF90AF900895A6
:10127000C72FD0E02491F22E022F10E056E0659F98
:10128000C0011124EFEFF0E0BF010E946134832F11
:1012900090E0880F991F35E5369FD001379FB00D3C
:1012A00011248A1B9B0B982F990F980F6F01CC1A52
:1012B000DD0AC09ED001C19EB00DD09EB00D11249C
:1012C0008B2F499FA0011124452F55276F01C41A68
:1012D000D50AC09EA001C19E500DD09E500D112474
:1012E0005F01A91AB108AC9E6001AD9ED00CBC9EF6
:1012F000D00C1124CD2CDD24EC19FD09E09FE00178
:10130000E19FD00DF09FD00D1124ED2F62307105BB
:10131000A1F050F46115710509F49ECF613071059B
:1013200081F0EB2F852F98CF6430710569F080F044
:101330006630710509F490CFF4CFE22F2B2F8D2F5B
:101340008BCFE22F252F88CFEB2F822F2D2F84CF0D
:101350002B2F8F2DE52F80CF4091C0038D3E59F468
:101360008091C10387FF0DC01092C10341110BC0D2
:101370001092B80308C08E3E81F48091C103181604
:101380009CF3442381F08091C2039091C303892B85
:1013900009F05AC01092B70308958F3E49F447FFF1
:1013A000F0CF1092C0038091C1038111ECCFE0CF48
:1013B000803F19F41416ACF3E4CF9091C203893F37
:1013C00029F41916F4F61092C203DBCF8A3F19F400
:1013D00097FFD7CFF8CF9091C3038B3F29F497FFA6
:1013E000D0CF1092C303CDCF8C3F19F41916CCF394
:1013F000C8CF9FE0980F983090F4815F990B21E05F
:1014000030E0B90102C0660F771F8A95E2F7CB0181
:1014100080959091BF0389238093BF03B2CF8D3F06
:1014200031F48091B9038E7F8093B903AACF8E3FA8
:1014300021F48091B9038D7FF7CF8F3F09F0A1CFC1
:101440008091B9038B7FF0CF08958091B90380FD1F
:1014500016C081FD16C082FD16C08091B703882397
:10146000A1F0883280F428E0829FC001112468E254
:1014700070E00E948134862F672B39F0089582E056
:10148000089584E0089588E0089581E008958091AA
:10149000B90380FD14C081FD14C082FD16C0809187
:1014A000B803882381F08E3180F420E5829FC0014B
:1014B00011246EE170E00E948134862F089584E14A
:1014C000089588E2089588E0089580E508958D3EA6
:1014D00031F40E94470A81958093C10308958E3E9E
:1014E00019F40E94470AF8CF8F3E31F40E94470A50
:1014F00081958093C0030895803F19F40E94470AA4
:10150000F8CF893F29F40E94250A8093C2030895E9
:101510008A3F21F40E94250A8195F7CF8B3F31F451
:101520000E94250A81958093C30308958C3F19F486
:101530000E94250AF8CF9FE0980F983070F4815FE1
:10154000990B21E030E001C0220F8A95EAF78091E3
:10155000BF03822B8093BF0308958D3F31F48091A8
:10156000B90381608093B90308958E3F21F480917F
:10157000B9038260F7CF8F3FB9F78091B9038460D8
:10158000F1CF80E0089578940895F894E82FE295DB
:10159000EF70F0E031A1282F2F7081E090E001C0C2
:1015A000880F2A95EAF7982F9095932391A392A1FB
:1015B000892B82A30C94C30A9091900392FF06C0DA
:1015C000282F28712830F9F4877F846093FF06C0A4
:1015D000282F28712831F1F4877E846120919103AE
:1015E00020FF06C0382F38713830D9F4877F8160EA
:1015F00021FF06C0282F28712831D1F4877E816110
:1016000094FD877E0895282F24712430F9F68B7F6E
:101610008860DCCF282F2471243101F78B7E88610C
:10162000DDCF382F3171313019F78E7F8860E0CFF0
:10163000282F2171213121F78E7E8861E1CFCF9350
:10164000DF93EC0182389105A9F1D8F5813391053A
:1016500009F496C048F58932910509F48AC08A9741
:1016600009F495C0C11521E5D20708F0BCC0C11529
:1016700030E5D30708F014C1C83ED10508F09CC07E
:10168000C03ED10560F5C83AD10508F087C0C53A1B
:10169000D10508F0FDC0C130D10509F12097F9F05E
:1016A000C430D105E0F440C08533910509F45AC037
:1016B000C997C1F680919003837089F0C0EED0E0A5
:1016C0000EC0833E910599F170F4803E910501F1C1
:1016D000823E910539F68091900382FD21C0CE01B2
:1016E000DF91CF910895863E910561F1873E910586
:1016F00071F1843E910509F0B5CF8091910381FF8E
:10170000EECF80919003C7EED0E084FD0DC0E7CF0F
:101710008091900380FD12C19091910390FFDFCFE3
:10172000C3EED0E084FFDBCFD0E0C0E0D8CF809123
:10173000900382FD06C19091910390FDBFCF84FF7D
:10174000CECFF2CF8091900383FDDDCFC8CF8091C3
:10175000900383FDF9C09091910391FFF0CFC4EE07
:10176000D0E0BDCF8091900385FFB9CFC9E2D0E032
:10177000B6CF8091900385FFB2CFC5E3D0E0AFCF65
:101780008091900386FFABCFCAE2D0E0A8CF8091D2
:10179000900386FFA4CFC1E3D0E0A1CFCF3BD1051A
:1017A00018F6C85AD0E0CC0FDD1FCE59DE4F099095
:1017B000D881C02DD46493CFC11540E2D40758F42A
:1017C000C11581E0D80708F08ACFCD3ED10508F4D5
:1017D000ABCFD06584CFC11590E4D90708F4A4CF6E
:1017E000DF70D06A7CCFC11525E5D20700F5C115A1
:1017F00034E5D30708F08AC0C11543E5D40708F0E3
:1018000071C0C11582E5D80708F467C0CE018370A6
:10181000992721E030E002C0220F331F8A95E2F7BA
:10182000C695C69580E2C89FE001112452C0C1153B
:1018300099E5D907A8F4C11528E5D20708F06BC0CF
:10184000C11536E5D30708F06FCF8C2F0E94DC0A54
:10185000C82FD0E0DC2FCC27CC27DF71D0623FCF60
:10186000C1154AE5D40708F45BC0CE019056811536
:10187000904208F059CF8D2F8F710E94DC0A90E0C2
:10188000982F882788279F719C012C2BE901E6CF90
:10189000C55AD0E0C15ADE4FC881D0E0D0641FCF16
:1018A000CE01E4E096958795EA95E1F783702C2FB9
:1018B00026952695237040E2249F90011124382B11
:1018C0008C2F8370C1E0D0E002C0CC0FDD1F8A9561
:1018D000E2F7C22BD32BDC6802CFDC2FCC27C16F01
:1018E000D06AFDCECE018370992721E030E002C09E
:1018F000220F331F8A95E2F7C695C69590E2C99FDD
:10190000E0011124C22BD32BDA68E9CEDC2FCC27DF
:10191000C46FD06AE4CEDC2FCC27C06FD06ADFCE94
:101920008C2F8F700E94DC0A34E0D695C7953A95CB
:10193000E1F7CF709C2FEC01D069D1CEC9E3D0E0A4
:10194000CECEC2EED0E0CBCEC6EED0E0C8CE0C9468
:101950007E078091230381111092230308958095BF
:101960009091220398239093220308958091170366
:101970009091E602981301C008958F5F8770FACFA7
:10198000AF92BF92CF92DF92EF92FF920F931F938D
:10199000CF93DF93C0908B07D0908C07E0908D079A
:1019A000F0908E0740912403509125036091260307
:1019B00070912703C42AD52AE62AF72ACFE1D0E07E
:1019C000082F10E026E0929F000D111D11249CE3CA
:1019D000A92EBC2ED701C6010C2E04C0B695A79522
:1019E000979587950A94D2F780FD0FC0219788F7C5
:1019F000B12C8B2DDF91CF911F910F91FF90EF9024
:101A0000DF90CF90BF90AF900895AC9EF001AD9E57
:101A1000F00D1124E00FF11FEE0FFF1FE455FF4FF3
:101A2000859194910E941F0B019701F3E2CFCF9310
:101A3000DF93EC010E94C00CEC2FF0E096E0D99F00
:101A4000E00DF11D11249CE3899FE00DF11D11248F
:101A5000EE0FFF1FE455FF4F85919491DF91CF91D9
:101A60000C941F0BE92FEE0FE90FEE0F8E0F982F3E
:101A7000977086958695869525E0829FF0011124C2
:101A8000E854FD4F50E040E080E0219130E0092E25
:101A900002C0369527950A94E2F721703327042E69
:101AA00001C0220F0A94EAF7822B4F5F5F4F453047
:101AB000510559F70895E92FEE0FE90FEE0F8E0F3C
:101AC000982F977041E001C0440F9A95EAF78695E8
:101AD0008695869595E0899FF0011124E854FD4F85
:101AE00030E020E070E05191DF011197CB01022E30
:101AF00002C0969587950A94E2F7817081958527B3
:101B0000842385278C932F5F3F4F2530310559F76C
:101B10000895FC01808191810E94170D92959F701C
:101B2000963091F058F4925F9F70923058F4803F55
:101B300019F030F4883E30F481E008959A5FF4CFD4
:101B4000843FD1F380E00895883EB0F3813FD1F720
:101B5000F3CFCF92DF92EF92FF926C01EE24FF243D
:101B600020E0C114D104E104F10419F0C701B60169
:101B700020E1C72ED82EE92EFF24C114D104E104A0
:101B8000F10419F0285FC701B6016B017C0154E034
:101B9000F694E794D794C7945A95D1F7C114D10419
:101BA000E104F10419F02C5FC701B6016B017C015F
:101BB00042E0F694E794D794C7944A95D1F7C114BC
:101BC000D104E104F10419F02E5FC701B601969526
:101BD000879577956795672B682B692B09F02F5FA1
:101BE000822FFF90EF90DF90CF900895CF92DF92F9
:101BF000EF92FF920F931F93CF93DF936C017B01C2
:101C000064E670E088E70E949C31EC0197FD12C009
:101C100010E000E0F601E00FF11F849164E670E04F
:101C20000E941632EC01892B29F40F5F1F4F0E150D
:101C30001F0581F70E949932CE01DF91CF911F914C
:101C40000F91FF90EF90DF90CF9008958091310732
:101C500090913207911103C091E08927089588235C
:101C600069F062E070E08DE09AE00E94F60D892B49
:101C700019F0809131070895109231078091310752
:101C8000EBCFCF93C0913107809132078823D1F0F9
:101C90000E947E07605A75418F4F9F4F60932D07BA
:101CA00070932E0780932F0790933007C11108C0BF
:101CB00062E070E08BE09AE00E94F60D892B29F03B
:101CC000C09131078C2FCF91089581E08093310727
:101CD000F7CF80933E077093400760933F07809152
:101CE0004E07843001F582E08093E9008FEF9091F8
:101CF000E800815095FD06C095ED9A95F1F700003A
:101D00008111F5CF8091E80085FF0DC050E040E0E3
:101D100063E070E08EE397E00E9440068091E80067
:101D20008E778093E8000895BC0184E00C94690EDE
:101D3000BC0183E00C94690E9C0182E08093E90071
:101D40009FEF8091E800915085FD06C085ED8A9552
:101D5000F1F700009111F5CF8091E80085FF0CC0EC
:101D600050E040E066E070E0C9010E9440068091CA
:101D7000E8008E778093E8000895CF93DF93EC011D
:101D800081E08093E9008FEF9091E800815095FD0C
:101D900006C095ED9A95F1F700008111F5CF80917D
:101DA000E80085FF14C050E040E068E070E0CE013C
:101DB0000E9440068091E8008E778093E80088E0DA
:101DC000FE01A4E4B7E001900D928A95E1F7DF915E
:101DD000CF910895539A3BB1377F2BB128604FB70D
:101DE000F89484E794E0FC015191CF0168E02BB9AD
:101DF000000000C057FF3BB9550F000000C000C0F5
:101E000000C03BB900C06A9591F7F5E082329F07A8
:101E100051F74FBF8FE594E00197F1F700C0000044
:101E200008959F92AF92BF92CF92DF92EF92FF926E
:101E30000F931F93CF93DF937C015B016A01809125
:101E4000640301E010E08A3010F40AE010E0C1E021
:101E5000D0E0F894B501C701F6010995982E0E94CB
:101E6000C30A911004C021960C171D076CF4892D2C
:101E7000DF91CF911F910F91FF90EF90DF90CF9066
:101E8000BF90AF909F900895CC9F9001CD9F300D53
:101E9000300D112490E080E045E34A95F1F7000011
:101EA000019682179307C1F7D4CF80913203811135
:101EB00018C088EC9091E30097FD10C0EFE3FCE9B7
:101EC0003197F1F700C000008150A1F782E08093C4
:101ED00032030E94F00510924E0703C081E0809308
:101EE000320381E090913203913011F080E0089547
:101EF00008950E94550F882351F0E0913507F09125
:101F00003607309721F00190F081E02D099480E0B0
:101F10000895FF920F931F93CF93DF93EC01F62E5A
:101F2000042F122F0E94550F81110FC0CD31D10502
:101F30007CF06D97FE01EE0FFF1FEC0FFD1FEC58BC
:101F4000FB4FF1820083128303C0CD31D10594F39E
:101F5000DF91CF911F910F91FF900895CF93C82FDC
:101F60000E94550F882329F081E0CD3128F080E0D0
:101F700003C081E0CA33D8F7CF9108952F923F92E2
:101F80004F925F926F927F928F929F92AF92BF9289
:101F9000CF92DF92EF92FF920F931F93CF93DF9335
:101FA00000D000D000D0CDB7DEB79C838B832091CA
:101FB00054018CE0289F802D112489831CE0512E30
:101FC000580E3AE3351510F4BAE35B2E0E94550F14
:101FD000882329F06DE1651510F4ADE15A2E0E94B9
:101FE000550F811105C079817D3110F48DE1898310
:101FF00020905807F981EF2FF0E0FE83ED83CF01A9
:10200000880F991F9C0123543E4F69018D818515CE
:10201000D8F0852D26960FB6F894DEBF0FBECDBF43
:10202000DF91CF911F910F91FF90EF90DF90CF90B4
:10203000BF90AF909F908F907F906F905F904F90E8
:102040003F902F900C94AE0FED81FE81E359FD4F30
:10205000808190915501892321F13090860740902D
:10206000870761E777E07A836983E8E5AE2EE7E0EA
:10207000BE2E10E08A2D28E537E0821B8215D8F0AD
:1020800020918807129F112D1124632D742D812F0B
:102090000E941809462F282F672F8D819E810E944C
:1020A000A6086D817E816F5F7F4F7E836D8372E0B6
:1020B000C70ED11CABCFF60184ACF5018181881A23
:1020C0009908F60165ACF5018185681A7708889C46
:1020D0009001899C300D300D1124669CC001679CD5
:1020E000900D900D1124820F931F082F82309105BF
:1020F00024F14FEF813EFEE19F073CF4AC0175E017
:10210000569547957A95E1F7485F51E0652F640F42
:102110007727771F9B0135952795022F229FB001C6
:10212000239F700D700D11248617970720F54FEF30
:10213000420F451758F70FEF050F6091890771E0BF
:10214000670F08F46FEFE981FA8181919191FA8329
:10215000E9830E940E097C019301A401632D742D73
:10216000812FEB81FC810995362E472EFFEFAF1AA8
:10217000BF0A182F7FCF2F3F01F351E0520FD9CF65
:102180000F931F930E94550F882321F01F910F91E9
:102190000C947E070E947E070091650310916603F0
:1021A0002091670330916803600F711F821F931F96
:1021B0001F910F910895CF92DF92EF92FF926B01E2
:1021C0007C010E94550F8823A1F02FB7F8946091ED
:1021D0003A0770913B0780913C0790913D072FBFD4
:1021E0006C197D098E099F09FF90EF90DF90CF90C9
:1021F00008950E94C010F4CF809122039091210392
:10220000892B8093AA0290912303992391F0892B23
:102210008093AA0220E08CEA92E0FC013191CF0188
:1022200031112F5FF2E0823B9F07B9F721110E9425
:10223000A90C48E050E069E173E08AEA92E00E946C
:10224000C634892BA9F088E0EAEAF2E0A9E1B3E01C
:1022500001900D928A95E1F7E0913507F0913607EC
:10226000309731F00280F381E02D8AEA92E0099400
:102270000895882321F00E94AF0C0C94FC1008955F
:10228000882339F090912203982B909322030C9489
:10229000FC1008951F93CF93DF93162F8A3031F4EB
:1022A00081E0DF91CF911F910C9473128D3011F466
:1022B00080E0F7CFC0912B07D0912C0796E0FE016C
:1022C000A5E2B7E001900D929A95E1F7803EA8F162
:1022D00086E0FE0111928A95E9F7C0912B07D09113
:1022E0002C07111136C046E050E0BE0185E297E0B0
:1022F0000E94C6349E0125523540892BA9F52A5FDC
:102300003F4F40912205642F70E0C9010E94613463
:10231000481B463010F4240F311D211572E0370799
:1023200010F030E020E02B5D3A4F30932C072093E3
:102330002B07DF91CF911F910895F6E08F9FB00199
:10234000112465537B4F46E050E0CE010E94BD341E
:10235000C4CF9E012A5F3F4FFE012E173F0719F29F
:10236000808180958193F9CFC90145E09695879545
:102370004A95E1F741E050E0BA0102C0660F771FCD
:102380008A95E2F7CB016091230570912405862B95
:10239000972BB9016B5F7F4FE5E076956795EA95DE
:1023A000E1F702C0440F551F6A95E2F7842B952B85
:1023B0009093240580932305A2CF0F931F93CF936F
:1023C000DF93EC01FC0101900020E9F78F0101503F
:1023D0001109C017D10728F0DF91CF911F910F91FC
:1023E000089560E089910E944A11F3CF1F93CF9323
:1023F000DF93EC01162FFE018491811104C0DF915F
:10240000CF911F910895612F0E944A112196F3CF19
:102410008F929F92AF92BF92CF92DF92EF92FF92F4
:10242000C62E60E00E94F61180910001C81205C01E
:102430008091B602803209F44AC0C092000180E265
:102440008093B602D12CF12CE12C1092B502C70179
:10245000B6012AE030E040E050E00E949534605D33
:10246000603331F0C114D104E104F10409F460E2F5
:102470006093B40260E28AE0C816D104E104F1047A
:1024800090F08AE0882E912CA12CB12CC701B601C6
:10249000A50194010E949534CA01B901A5019401D6
:1024A0000E949534605D6093B30220E284E6C81612
:1024B000D104E104F10448F0C701B60124E630E09C
:1024C00040E050E00E949534205D2093B20282EB00
:1024D00092E0FF90EF90DF90CF90BF90AF909F90F1
:1024E0008F900C94DD11CF93382FE0912B07F09152
:1024F0002C07E552F54020912205622F70E0CF01B4
:102500000E946134281B822F332369F066E00E9409
:102510007534C82FC15010F4CF91089560E080E267
:102520000E944A11F7CF9F01280F311D211532401B
:1025300018F080E0F0E0E0E08E0F9F2F911D8B5DA2
:102540009A4F90932C0780932B07E6CF0E94F611A9
:1025500081E00C947312E5E8F7E089E080838091D4
:10256000580190915901A0915A0181839283A383CC
:102570008FE784838FEF858346E050E06CE170E065
:10258000CF010E94FA34109284070895CF9384E01B
:1025900090E00E94EC34C82F82E290E00E94EC347C
:1025A000982F8C2FCF9108951F93CF93DF9300D056
:1025B00000D0CDB7DEB740915C0350915D036091D0
:1025C0005E0370915F032FB7F89480913A07909162
:1025D0003B07A0913C07B0913D072FBF841B950B93
:1025E000A60BB70B11E084369105A105B10570F17A
:1025F0000E94C0106E5F7F4F8F4F9F4F69837A8319
:102600008B839C8380912A0190912B018C5B9C4F42
:102610004091290150E04530510510F044E050E070
:10262000BE016F5F7F4F0E94D33485E090E00E942F
:10263000EB33182F882351F00E947E0760935C03D0
:1026400070935D0380935E0390935F03812F0F90DF
:102650000F900F900F90DF91CF911F9108954F929F
:102660005F926F927F928F929F92AF92BF92EF9202
:10267000FF920F931F93CF93DF937B01FB01408069
:102680005180628073809FB7F89480903A07909051
:102690003B07A0903C07B0903D079FBF841895086A
:1026A000A608B708F4E68F169104A104B10418F443
:1026B000C1E0442329F1C82F880FDD0BFE0183E020
:1026C000EE0FFF1F8A95E1F7EF5FFE4F8181928148
:1026D0008C5B9C4F408150E00417150708F4A8015B
:1026E000B9010E94D334CE010E94EB33C82F882356
:1026F00039F00E947E07F7016083718382839383A0
:102700008C2FDF91CF911F910F91FF90EF90BF9091
:10271000AF909F908F907F906F905F904F900895B3
:102720000F931F93CF93DF9300D000D000D00F9270
:10273000CDB7DEB786E0E5E8F7E0DE01119601905F
:102740000D928A95E1F71F8247E050E065E573E05E
:10275000CE0101960E94C63441E0892B09F440E085
:1027600007E010E09E012F5F3F4F60E673E086E0D8
:102770000E942F1327960FB6F894DEBF0FBECDBF71
:10278000DF91CF911F910F9108950F931F93CF93D6
:10279000DF93EC0145E050E06AE473E00E94C63448
:1027A00041E0892B09F440E005E010E09E016CE374
:1027B00073E082E00E942F13DF91CF911F910F9160
:1027C00008954F925F927F928F929F92AF92BF92A5
:1027D000CF92DF92EF92FF920F931F93CF93DF93ED
:1027E0000F92CDB7DEB7C62E4A015901482E880F89
:1027F0005508C2010E94EB33782E882309F480C06B
:10280000C20133E0880F991F3A95E1F7FC01EF5FB1
:10281000FE4F438150E04115510511F041E050E079
:102820008F5F9E4FFC01648175816C5B7C4FCE0194
:1028300001960E94D334F4014081518162817381F9
:102840002FB7F89480913A0790913B07A0913C07ED
:10285000B0913D072FBF841B950BA60BB70B843699
:102860009105A105B10540F4B701C8010E94D00748
:102870009981891709F444C00C2C000CDD08C601AD
:102880000E94EB33782E811113C0712C872D0F908D
:10289000DF91CF911F910F91FF90EF90DF90CF903C
:1028A000BF90AF909F908F907F905F904F900895D2
:1028B000C60123E0880F991F2A95E1F7FC01EF5F1D
:1028C000FE4F438150E0E416F50608F4A7018F5F40
:1028D0009E4FFC01648175816C5B7C4FC5010E9439
:1028E000D334B701C8010E94D00799818913CDCF95
:1028F0000E947E07F4016083718382839383C6CF35
:10290000A701B801C5010E94D334C0CFCF92DF9296
:10291000EF92FF920F931F93CF93DF9300D000D0DD
:102920000F92CDB7DEB76B0185E0E82EF12C05E400
:1029300013E09E012F5F3F4F48E353E061E080E0EA
:102940000E94E113882349F095E0FE013196A3E34C
:10295000B3E001900D929A95E1F795E0E3E3F3E09F
:10296000D60101900D929A95E1F70F900F900F907C
:102970000F900F90DF91CF911F910F91FF90EF90EB
:10298000DF90CF90089569EE7EEF90E080E00E94A6
:10299000283560E082E090E00E940A3560E083E044
:1029A00090E00E940A3510922403109225031092A1
:1029B00026031092270360E084E090E00E940A352D
:1029C00060E082E290E00E940A3560E085E090E0FD
:1029D0000E940A3560E086E090E00E940A356FEFC1
:1029E00087E090E00E940A3540E050E0BA0188E0BC
:1029F00090E00E941C3560E08DE090E00E940A3576
:102A000040E050E0BA0188E190E00E941C3560E0AF
:102A100087E190E00E940A3540E050E0BA018CE185
:102A200090E00E941C3570E060E080E290E00E943F
:102A3000283540E050E0BA0188E190E00E941C3562
:102A400040E050E0BA018FE090E00E941C3540E089
:102A500050E0BA0183E190E00C941C351F920F9274
:102A60000FB60F9211242F933F934F935F936F9361
:102A70007F938F939F93AF93BF93EF93FF93809137
:102A8000E10082FF09C08091E20082FF05C08091D1
:102A9000E1008B7F8093E1008091DA0080FF24C009
:102AA0008091D80080FF20C08091DA008E7F8093D3
:102AB000DA008091D90080FF9DC080E189BD82E16C
:102AC00089BD09B400FEFDCF81E080934E0780915F
:102AD0004107811109C00E94F0050E94BB06809148
:102AE000E20084608093E2008091E10080FF17C0E3
:102AF0008091E20080FF13C08091E2008E7F80937E
:102B0000E2008091E20080618093E2008091D80031
:102B100080628093D80019BC85E080934E07809135
:102B2000E10084FF2BC08091E20084FF27C080E198
:102B300089BD82E189BD89B5982F917080FFFBCF57
:102B40008091D8008F7D8093D8008091E1008F7EA6
:102B50008093E1008091E2008F7E8093E20080917B
:102B6000E20081608093E20080914F07882309F49E
:102B700047C084E080934E0780914E078091E1002A
:102B800083FF27C08091E20083FF23C08091E10092
:102B9000877F8093E10082E080934E0710924F0779
:102BA0008091E1008E7F8093E1008091E2008E7F32
:102BB0008093E2008091E20080618093E20042E035
:102BC00060E080E00E9489068091F0008860809338
:102BD000F000FF91EF91BF91AF919F918F917F9105
:102BE0006F915F914F913F912F910F900FBE0F907A
:102BF0001F90189519BC10924E071092410774CF80
:102C00008091E30087FD93E090934E07B5CF7894D1
:102C10001F921FB61F9211248F939F93AF93BF9360
:102C200080913A0790913B07A0913C07B0913D07F6
:102C30000196A11DB11D80933A0790933B07A09385
:102C40003C07B0933D07BF91AF919F918F911F902B
:102C50001FBE1F9018959C014FB7F89480913A07BA
:102C600090913B07A0913C07B0913D074FBF821B5D
:102C7000930B08952FB7F89480913A0790913B07F2
:102C8000A0913C07B0913D072FBF08953F924F920E
:102C90005F926F927F928F929F92AF92BF92CF92EC
:102CA000DF92EF92FF920F931F93CF93DF93609188
:102CB000ED037091EE038091EF039091F0030E9479
:102CC000DB106B017C010E94C0104B015C01809203
:102CD000ED039092EE03A092EF03B092F003A09167
:102CE000C403E4ECF3E08A2F90E04FEF5FEF60E085
:102CF00070E04C195D096E097F09A9132AC0809301
:102D0000C40380918507282F2370722E19F0782E26
:102D10007694769490915701913009F444C09923A8
:102D200059F1923009F42EC3933009F433C3DF9183
:102D3000CF911F910F91FF90EF90DF90CF90BF90B8
:102D4000AF909F908F907F906F905F904F903F904B
:102D50000895218D328D2901712C612C4415550562
:102D60006605770520F481509F5F3296C6CF2C0D03
:102D70003D1D328F218FF8CF109254018092700444
:102D800090927104A0927204B092730489E2E4EC10
:102D9000F3E0A8E5B7E001900D928A95E1F781E0B4
:102DA00080935701C4CF90915201791223C0837050
:102DB0002091510130E091E08217130609F490E070
:102DC000892F81708093560180918A0790915501D7
:102DD000981739F08093550140E060E080E00E9450
:102DE000A80838E0371588F0E72DF0E0E05DFA4CF0
:102DF0000C94B73481E0E5CF80915601882389F1A6
:102E000040E060E080E00E94A80880E02AC0C09115
:102E100054018CE0C89FC02D11241CE01C0F1B33F3
:102E200008F01AE30E94550F882319F01E3108F0AC
:102E30001DE10E94550F811103C0CD3108F4CDE191
:102E40006091860770918707809188070E94180912
:102E5000062FF72EE82ED0E0C117A8F0812F0E9490
:102E6000AE0F909154019F5F9093540181115FCFF9
:102E700082E08093570180915601811158CF7110E3
:102E800056CF83E08DCFFE01E359FD4F80819091B5
:102E90005501892331F02E2D402F6F2DCE010E9438
:102EA000A6082196D9CFC09154018CE0C89FC02DAF
:102EB00011241CE01C0F1B3308F01AE30E94550F6D
:102EC000882319F01E3108F01DE10E94550F811171
:102ED00003C0CD3108F4CDE100918607D09187077A
:102EE000F090880760918907669566956695809150
:102EF0007004909171040E940E090E94EF0880589E
:102F000087FD8195880F282F3F2D239F212D112488
:102F1000822F602F7D2F0E941809062FF72EE82E92
:102F2000D0E0C11708F09ACFFE01E359FD4F808130
:102F300090915501892331F02E2D402F6F2DCE0118
:102F40000E94A6082196EDCFC09154018CE0C89F45
:102F5000C02D11241CE01C0F1B3308F01AE30E9443
:102F6000550F882319F01E3108F01DE10E94550FFE
:102F7000811103C0CD3108F4CDE1609189076695D8
:102F8000669521E0620F08F46FEF809170049091D4
:102F900071040E940E09082FD0E0C11708F05ECF1F
:102FA000FE01E359FD4F808190915501892399F0ED
:102FB00070918707FE01EE0FFF1FE354FE4F64ADD3
:102FC000601B809188070E941809462F282F672FC1
:102FD000CE010E94A6082196E0CFC09154018CE05A
:102FE000C89FC02D11241CE01C0F1B3308F01AE3EE
:102FF0000E94550F882319F01E3108F01DE10E9430
:10300000550F811103C0CD3108F4CDE160918907DE
:103010006695669580917004909171040E940E09E6
:10302000F82E80E48F0D0E94EF0850E8D52ED80EC0
:103030008F2D0E94EF0860E8C62EC80ED0E0C117A1
:1030400008F00CCFFE01E359FD4F808190915501AE
:103050008923A1F060918607709187078091880786
:10306000EF2C0C2F2C2D4D2D0E94C2080E94180908
:10307000462F282F672FCE010E94A6082196DFCF6A
:1030800040912D0450912E0460912F0470913004D2
:103090008091700490917104A0917204B0917304B6
:1030A00084179507A607B70708F4AFCE809156019D
:1030B000882329F040E060E080E00E94A808609149
:1030C000860770918707809188070E941809D62E7D
:1030D000C72EB82EC1EFD3E00DEB11E045E0E42E92
:1030E00048E0F42ED8018C9190E0288140E060E027
:1030F000222319F02B2D4D2D6C2D0E94A60829811D
:103100002883F801818190E0211104C020E040E093
:1031100060E003C02B2D4D2D6C2D0E94A6088A81E6
:103120008983D80115968C9190E02D8140E060E074
:10313000222319F02B2D4D2D6C2D0E94A6082C81D9
:103140002D83F801848190E0222309F464C02B2DA3
:103150004D2D6C2D0E94A6082B812C83D80113962F
:103160008C9190E0222309F45AC02B2D4D2D6C2D0B
:103170000E94A608F801828190E02A81222309F4A6
:1031800052C02B2D4D2D6C2D0E94A60820914F0171
:10319000309150012E9DC0012F9D900D3E9D900DB0
:1031A0001124875E994C9093500180934F01890FB1
:1031B000837091E009F090E09A839B8326960A5FE2
:1031C0001F4FF4E0CD32DF0709F08CCF2091890743
:1031D00030E1230F08F42FEF60E1822F90E00E948E
:1031E0000E09BC0188EB9BE00E9461348091700461
:1031F00090917104A0917204B0917304860F971F8F
:10320000A11DB11D80932D0490932E04A0932F0433
:10321000B0933004FACD20E040E060E09BCF20E0A6
:1032200040E060E0A5CF20E040E060E0ADCFC0919D
:1032300054018CE0C89FC02D11243CE0532E5C0E3D
:10324000152DFCE3F51508F41CE380915601882345
:1032500061F040E060E080E00E94A808E4E3F4E070
:103260008CE3DF011D928A95E9F780915401811169
:1032700015C080913204909133040E942B1621E0F6
:103280008931910508F420E020933104499730F00A
:103290000E943A169093330480933204D0E0E12EDA
:1032A000F12C8AE0882E912C96E0492E2AEA322EC3
:1032B000CE15DF0534F081E0BBE3B51508F0D1CDC4
:1032C000A4CDCE01B4010E9481346B015C014A9C03
:1032D000C0014B9C900D1124FC01EC5CFB4FE60FF0
:1032E000F71F608083549E4FFC01E60FF71F00819B
:1032F0000F3F51F110E0F801E359FD4F80819091AB
:103300005501892309F1362D25E5321B08F430E0FB
:1033100070918707232D462D240F08F42FEF40913D
:103320008807822F880F820F8E5F282F249F212DE0
:103330001124822F632D631B0E941809462F282F0A
:10334000672FC8010E94A60880913104882381F06C
:10335000362D41E0341B08F430E04A9CC0014B9C00
:10336000900D11248C5C9B4FC80ED91ED6013C9346
:1033700021969ECF84E798E00E94BE0F72CD8CE527
:1033800098E0FACF709252018370809351010E94AD
:10339000EA0E77CD80918407882351F046E050E013
:1033A0006CE170E085E897E00E94FA34109284079F
:1033B0006091700470917104809172049091730413
:1033C0000E94DB10603171058105910508F4AFCCD6
:1033D00010925701ACCC0E943A169C019091C00308
:1033E0008091C103982B21F03093BD032093BC033F
:1033F0009091C2038091C303982B21F03093BB03BB
:103400002093BA03E0913507F0913607309749F0E1
:1034100082E08093BE030480F581E02D8EEB93E083
:103420000994089590E080E00E94BA0790E080E05F
:103430000E94A407109221030E94FC1086E0EEEB8C
:10344000F3E0DF011D928A95E9F71092B80310921C
:10345000B7031092B9030C94EB1960938B07709328
:103460008C0780938D0790938E070C94121A0F93FC
:103470001F9360918B0770918C0780918D079091BD
:103480008E078B019C010C701127222733270C30EB
:1034900011052105310529F460611F910F910C94EC
:1034A0002D1A6F7EFACF0F931F9341E050E060E03A
:1034B00070E004C0440F551F661F771F8A95D2F72E
:1034C000CB01BA01609570958095909500918B071E
:1034D00010918C0720918D0730918E076023712306
:1034E000822393231F910F910C942D1A909118030E
:1034F0008095892380931803282F277091F4282F13
:10350000082E000C330B9217130659F0909191037B
:1035100092FD07C08595859585950E94531A109256
:1035200018030895CF93C0919103C2FB992790F996
:10353000981799F080FBC2F9C093910360919003B2
:1035400084E090E00E940A356C2F82E290E00E94B5
:103550000A3582E0CF910C94761ACF9108950F939B
:103560001F9341E050E060E070E004C0440F551F3D
:10357000661F771F8A95D2F780918B0790918C07F1
:10358000A0918D07B0918E078A019B01082B192B02
:103590002A2B3B2BC901B8011F910F910C942D1AB6
:1035A000609324037093250380932603909327034D
:1035B0000C94121A10922203ECEAF2E086E0DF018A
:1035C0001D928A95E9F70C94121A1F93CF93DF93FB
:1035D000CDB7DEB7AA970FB6F894DEBF0FBECDBF4A
:1035E00080E597E02091F100FC012193CF01F7E005
:1035F00088359F07B9F780915107833009F470C06F
:10360000B8F4813009F447C0823009F4B1C0809128
:10361000E80083FF7EC280915007909151079A3055
:1036200008F077C2E92FF0E0E75CFA4C0C94B7346D
:103630008A3009F48CC08B3009F46FC0893039F7B7
:1036400080915007813219F7809154079091550766
:103650000297E8F68091E800877F8093E8008091E8
:10366000E80082FF38C09091F3008091F200029749
:1036700031F48091F100813011F0863021F4809195
:10368000F100809343078091E8008B778093E800F6
:103690000E946A06BCCF80915007813A09F0B7CFEB
:1036A0008091E800877F8093E80080915407909193
:1036B0005507892B61F468E084E497E070E00E948C
:1036C0001C078091E8008B778093E800A0CF60E032
:1036D00090E080E0F3CF80914E078111C0CF97CF6B
:1036E00080915007813A09F092CF809154079091D0
:1036F0005507892B09F08BCF8091E800877F809355
:10370000E8008091E80080FFFCCF80915301809316
:10371000F1008091E8008E77B9CF80915007813217
:1037200009F075CF8091540790915507892B09F0C6
:103730006ECF8091E800877F8093E8000E946A0640
:1037400080915207809353010E94DA1A60CF8091D2
:103750005007813209F05BCF8091E800877F80932A
:10376000E8000E946A0680915307809342074FCF7A
:1037700080915007813A09F04ACF8091E800877F15
:103780008093E8008091E80080FFFCCF80914207A1
:10379000BECF803899F0823809F0BBC180915407C0
:1037A0008F70873008F0B5C18093E9008091EB00FD
:1037B00085FB882780F91092E90006C080914C07AC
:1037C00090914D07911182609091E800977F9093BE
:1037D000E8008093F1001092F1008091E8008E776C
:1037E00094C1882309F482C1823009F092C180918A
:1037F0005207811185C1809154078F702FEF280FD8
:10380000263008F086C18093E9002091EB0020FF6C
:1038100077C1933031F48091EB0080628093EB00AC
:103820006FC19091EB0090619093EB0021E030E04C
:1038300001C0220F8A95EAF72093EA001092EA006D
:103840008091EB008860EACF811163C1109152072B
:103850001F778091E3008078812B8093E300809133
:10386000E800877F8093E8000E946A068091E80064
:1038700080FFFCCF8091E30080688093E30082E0CA
:10388000111183E080934E0744C18058823008F0C4
:1038900040C180915207909153078C3D23E09207DD
:1038A000A1F583E08A838AE289834FB7F894DE0129
:1038B000139620E03EE051E2E32FF0E050935700F2
:1038C000E49120FF03C0E295EF703F5FEF708E2F11
:1038D00090E0EA30C0F0C7968D939D932F5F24311E
:1038E00059F74FBF8091E800877F8093E8006AE234
:1038F00070E0CE0101960E941C078091E8008B7752
:103900008093E80006C1C096E7CF409154075091DC
:103910005507292F33272330310509F444C078F5A2
:103920002130310509F46FC08BE390E0EAECFAE056
:103930002230310509F0EDC02091E800277F209367
:10394000E80020915607309157078217930708F433
:103950009C0140E02115310509F064C0411162C0AD
:103960008091E80082FDC9CF80914E07882329F21B
:10397000853019F28091E80083FFF2CFBECF21326B
:103980003105A9F12232310509F0C3C041155105B5
:1039900009F443C04130510509F0BBC08BE790E00A
:1039A000EFE0FAE0C9CF992781309105C1F0009787
:1039B00059F0029709F0ADC0E7E1FBE0E4918E2FEA
:1039C00090E0E7E1FBE007C0E5E4FBE0E4918E2F47
:1039D00090E0E5E4FBE0009709F49BC0ADCFEFE297
:1039E000FBE0E4918E2F90E0EFE2FBE0F4CF411595
:1039F000510571F04130510509F08BC089E090E02C
:103A0000E5EFFAE099CF82E190E0E5E0FBE094CFCA
:103A100089E090E0ECEDFAE08FCF80E490E0EAE816
:103A2000FAE08ACF80914E07882309F466CF85306B
:103A300009F463CF8091E80083FD5FCF8091E800B7
:103A400082FD8ECF8091E80080FF84CF9091F300BB
:103A50008091F2002115310519F08830910550F060
:103A600041E0089709F040E08091E8008E7780936C
:103A7000E80070CF44914093F10031962150310914
:103A80000196E8CF803809F044C08091E800877F34
:103A90008093E80080914F078093F1009ECE8111C2
:103AA00038C0109152071230A0F58091E800877F4E
:103AB0008093E80010934F070E946A06112311F0CB
:103AC00084E005C08091E30087FDFACF81E0809318
:103AD0004E0742E061EC81E00E94890642E261EC1F
:103AE00082E00E94890680914E0713C080915207A0
:103AF000813079F481E0933009F080E080934D07C4
:103B00001092E9008091E800877F8093E8000E948E
:103B10006A068091E80083FF0AC08091E800877FF1
:103B20008093E8008091EB0080628093EB00AA967E
:103B30000FB6F894DEBF0FBECDBFDF91CF911F91BE
:103B400008951F920F920FB60F9211242F933F9357
:103B50004F935F936F937F938F939F93AF93BF9395
:103B6000CF93DF93EF93FF93D091E900DF708091C3
:103B7000EC00C82FC17080FDC0E81092E900809170
:103B8000F000877F8093F00078940E94E51A1092ED
:103B9000E9008091F00088608093F000CD2BCF7019
:103BA000C093E900FF91EF91DF91CF91BF91AF9169
:103BB0009F918F917F916F915F914F913F912F9145
:103BC0000F900FBE0F901F9018958823B1F19CEFB6
:103BD000980F913A70F4ECEAF2E09191891303C0E6
:103BE000DF0111971C9292E0E23BF907B1F70C94C8
:103BF000FC1090E2980F983050F4877091E001C06B
:103C0000990F8A95EAF7892F0E94AF0CF0CF9BE5B8
:103C1000980F933020F490E080E00C94BA0798E578
:103C2000980F973120F490E080E00C94A4078D3E2B
:103C300020F00E94AC090C94EB190895CF93C82F83
:103C4000882309F456C08CEF8C0F813AF8F4ECEA23
:103C5000F2E082EB92E0DF012D91C21759F08A1752
:103C60009B07D1F76C2F8AEA92E00E948A07CF91D6
:103C70000C94FC102191C21303C0DF0111971C9218
:103C80008E179F07B9F70E94FC10ECCF80E28C0FD3
:103C9000883068F4C77021E030E001C0220FCA9577
:103CA000EAF780912203822B80932203E0CFEBE599
:103CB000EC0FE33040F4F0E0E15AFE4F808190E0F9
:103CC000CF910C94BA07E8E5EC0FE73150F4F0E03F
:103CD000EE0FFF1FEE59FE4F80819181CF910C9422
:103CE000A407CD3E30F08C2F0E94670ACF910C9430
:103CF000EB19CF9108951F93CF93DF93182FEB010A
:103D00000E941E1E8FE99FE00197F1F700C000009E
:103D10002197C1F7812FDF91CF911F910C94E51D61
:103D20000F931F93CF93DF93C62FD42F022FFC0145
:103D300082818823A1F0609383070E943A169093B2
:103D4000820780938107C77081E001C0880FCA9500
:103D5000EAF7DF91CF911F910F910C944011809160
:103D60008307681337C080918107909182070E9472
:103D70002B168436910570F510E21D0FCD17B9F0A2
:103D800080E28C0F883040F4C77081E001C0880F5A
:103D9000CA95EAF70E943911183048F481E09D2F46
:103DA000977001C0880F9A95EAF70E9440116AE067
:103DB00070E0802F0E947B1E183098F4D77081E04D
:103DC00001C0880FDA95EAF7DF91CF911F910F912B
:103DD0000C943911C77081E001C0880FCA95EAF7C9
:103DE000F3CFDF91CF911F910F91089581110DC0F5
:103DF000662339F06AE070E089EA0E947B1E80E069
:103E000008956AE070E08AEAF8CF662321F06AE05C
:103E100070E089EFF2CF6AE070E08AEFEECFCF92E8
:103E2000DF92EF92FF920F931F93CF93DF930F9246
:103E3000CDB7DEB7EE24E394F12C00E513E09E014C
:103E40002F5F3F4F40E453E064E083E00E94E113C2
:103E5000082F882321F1C09075038C2D90E09C01E0
:103E600025573C4F79011981F9018081181BD12E0A
:103E700080E00AC0DA94F70180818F5F808360E080
:103E80008C2D0E94F61E802F1D14A4F3912F17FD78
:103E900090E0191B11110EC081110E94A70C802FF8
:103EA0000F90DF91CF911F910F91FF90EF90DF90D6
:103EB000CF9008951F5FF70180818150808361E07A
:103EC0008C2D0E94F61E802FE5CF4F925F926F924D
:103ED0007F928F929F92AF92BF92CF92DF92EF929A
:103EE000FF920F931F93CF93DF9300D000D00F92D8
:103EF000CDB7DEB77C01FC0183819481892B39F039
:103F00001081D180812F8D218F3F09F000C60F9045
:103F10000F900F900F900F90DF91CF911F910F9105
:103F2000FF90EF90DF90CF90BF90AF909F908F90D9
:103F30007F906F905F904F9008950E94C00C082F63
:103F4000682F89819A810E945B0DE12FF0E026E0C5
:103F5000D29EE00DF11D11243CE3039FE00DF11D05
:103F60001124EE0FFF1FE455FF4F05911491093AFC
:103F70008DE5180709F4BEC008F040C00C371105E4
:103F800009F470C128F50A37110509F491C10B37FE
:103F9000110509F47EC1043FFCE51F0709F4A9C11E
:103FA00008F095C1093D3CE5130709F49EC10A3D9F
:103FB0008CE5180709F4A9C1083D9CE5190709F02B
:103FC000C1C026E241EE61EEC7010E94901E5EC0B4
:103FD000073AEDE51E0709F44AC008F07DC00D3729
:103FE0001105C9F681E00E94DC0AF701928199234C
:103FF00009F44BC10E94401189E13EC10D3A2DE503
:10400000120709F4F0C0D8F4F70192810B3AFDE5EC
:104010001F0709F481C008F47BC08091910381706F
:10402000992309F484C0882309F47FC084E00E94A6
:10403000DC0A0E94401180E50E941E1E83C00F3AD8
:104040003DE5130709F4FBC008F4EAC0003B9DE519
:10405000190709F0A0CF81E00E94DC0AF7019281E4
:10406000992309F4FBC00E9440118AE2E5CFF701D1
:104070008281882359F061E083E090E00E940A3554
:1040800061E070E080E090E00E94D01A8091180317
:10409000877009F43CCFF7018281882309F437CF78
:1040A0008091910382FD33CF82E00F900F900F90AB
:1040B0000F900F90DF91CF911F910F91FF90EF9094
:1040C000DF90CF90BF90AF909F908F907F906F9038
:1040D0005F904F900C94761AF70182818823B1F299
:1040E00062E083E090E00E940A3562E070E080E0E8
:1040F00090E0CACFF7018281882331F082E00E94EC
:10410000AF1A0E94371AC2CF82E00E94531AF9CF29
:1041100083E09923D1F3F3CF84E0992319F00E942F
:10412000AF1AB4CF0E94531AB1CF81E080CF882359
:1041300009F457C084E00E94DC0A0E94391180E52E
:104140000E94E51DF7018281882309F4F1C41092D1
:1041500083070430FDE51F0708F0DAC00B3F2CE5AC
:10416000120730F4C80182509C45449708F0DAC029
:104170000E94C612909391038093900301319CE5B5
:10418000190709F4A5C108F023C10930FCE51F0790
:1041900009F488C108F0F0C005303CE5130709F4C4
:1041A00079C108F0D6C003309CE5190709F468C14D
:1041B00008F06CC180919003816002301C4509F4C5
:1041C00062C1609190031091910384E090E00E949D
:1041D0000A35612F82E290E00E940A350E94DA1AC5
:1041E00055CF81E0A8CF809191038170F701928132
:1041F000992359F0882339F084E00E94DC0A0E9458
:1042000040118FE419CF81E0F8CF882339F084E0A2
:104210000E94DC0A0E9439118FE492CF81E0F8CF2E
:10422000809191038170F7019281992321F081118E
:104230007CCF8AE401CF8111D4CF8AE481CF8091F1
:1042400091038170F7019281992321F08111DBCFD5
:104250008DE4F2CE8111E2CF8DE472CF0E9439114C
:104260008AE26ECF81E00E94DC0AF70192819923F5
:1042700031F00E94401186E00E941E1E07CF0E946E
:10428000391186E00E94E51D01CF0E94391189E1B4
:10429000F9CF81E00E94DC0AF7019281992321F095
:1042A0000E9440118BE1E8CF0E9439118BE1EACFE7
:1042B00081E00E94DC0AF7019281992321F00E949B
:1042C00040118DE1D9CF0E9439118DE1DBCF063F3E
:1042D000ECE51E07B1F088F0073F2CE5120709F066
:1042E00031CF27E245EE66EE6FCE27E245EE65EE72
:1042F0006BCE26E241EE60EE67CE27E245EE64EE3D
:1043000063CE26E241EE62EE5FCE28E241E0EFCFDF
:1043100002363DE5130709F42BCF063A8DE5180761
:1043200009F426CF06312CE5120709F068C4809104
:1043300022038A7A91E009F490E09093B70269E24F
:10434000811165E38AEA92E00E948A070E94FC10CC
:104350009DCE80919003806207302CE5120709F40E
:1043600092C080919003806108301C4508F48BC096
:1043700080919003806487C00D308CE5180709F4A4
:104380009BC098F4809190038E7F0B30ECE51E0764
:1043900009F479C0809190038C600C301C4508F4BE
:1043A00072C0809190038D7F6EC0809190038F7E4C
:1043B0000F302CE5120709F466C080919003877FC7
:1043C00000311C4508F45FC0809190038F7D5BC075
:1043D0000E3F8CE5180709F477C050F50531ECE580
:1043E0001E0709F47FC098F480919003837F033106
:1043F0002CE5120709F447C008F46EC00E94DA1ACF
:1044000090919003892F97FB87F980583CC00C3F0F
:104410008CE5180709F442C008F052C0809191035E
:1044200081600B3F1C4509F0CCCE80939103C9CE2F
:104430000230FDE51F0709F461C090F480919103FB
:104440008C7F01153DE5130781F390F18091910375
:10445000982F909591708E7F892B90FB81F9E5CFF5
:1044600002369DE5190709F44FC0063AEDE51E072F
:1044700009F451C003301D4509F0A3CE60E03FC0F0
:10448000809190038260809390039BCE80919003F3
:104490008460F9CF809190038860F5CF809191037B
:1044A0008260C3CF0E94DA1A809190038068EBCFBC
:1044B000809191038360B9CF809190038B7FE3CF8C
:1044C000809191038E7FB1CF809191038D7FADCF8D
:1044D000809190038F7BD7CF0E94DA1A809190034E
:1044E0008F77D1CF8091900382FB992790F921E0BB
:1044F000922790FB82F990FB83F9C5CF61E08EE0B3
:1045000090E00E940A355DCE90919003892F8F7EB6
:1045100094FF8061B8CF90919003892F8E7F90FF98
:104520008160B1CF8091B70281110FC089E2ECEABE
:10453000F2E022EB32E09191891303C0DF01119781
:104540001C922E173F07B9F701CF85E3F0CF49E45E
:1045500058E062E578E00E94E60798CD42E558E031
:1045600069E478E0F8CF47E358E060E478E0F3CF1F
:1045700040E458E067E378E0EECF4FE158E06BE2CB
:1045800078E0E9CF4BE258E06FE178E0E4CF43E137
:1045900058E067E078E0DFCF49EF57E06BEE77E077
:1045A000DACF82E01BC30E94DA1A3FEF84E39CE07B
:1045B000315080409040E1F700C0000087E797E766
:1045C000909301088093000888E19AE00FB6F89470
:1045D000A895809360000FBE90936000FFCF81E0AC
:1045E0002EC380E02CC3812F902F0E94320DD82E35
:1045F00039C3212F2F70C22E107F19F0C29420EFE3
:10460000C222DD20B9F0CC2069F080E2800F883032
:1046100010F0811009C080912203C82AC0922203A1
:104620000E94FC10802F4BC080912103C82AC092A9
:104630002103F6CF802F0E94E51DCC2009F441C054
:10464000005E083010F0811004C08C2D0E94AF0C69
:1046500006C0C09480912103C822C09221030E9409
:10466000FC102FC0312F3F70C32E107F103219F075
:10467000C29490EFC922882089F081E0881609F45D
:1046800088C0DD2009F492C0992009F488C0F701A0
:10469000858180FFC7CF8F70858381C02091910372
:1046A00022FF54C0DD2009F44AC0CC2039F08091AB
:1046B0002203C82AC09222030E94FC1080E00E94BC
:1046C0001E1EEA2DE850FF0B349710F40E94790F5C
:1046D000BB20A9F08091180380FD11C0F701128260
:1046E0008595859585950E94AF1AC7010E94651F23
:1046F000809118038595859585950E94531A85E0CC
:10470000F701DE01119601900D928A95E1F78981FA
:104710009A810E94320D9A81E981F0E026E0929F11
:10472000E00DF11D11243CE3839FE00DF11D1124E8
:10473000EE0FFF1FE455FF4F85919491E8CB80E089
:104740000E94E51DCC2009F4BCCF7FCFDD20A1F075
:1047500090912303892F8C29911003C00E9440114E
:10476000B0CFE1E09E12FACF22FDABCF981709F44B
:10477000A8CF80932303A5CF911006C00E94A90C57
:104780008C2D0E9439119DCFF1E09F1609F499CF2D
:10479000F5CFDD2031F025E0291508F492CF8C2DDE
:1047A000DDCF34E0391508F48CCFEACF992041F3FE
:1047B000F9E38F120DC02FEF37EE83E02150304028
:1047C0008040E1F700C00000802F0E94E51D79CFF6
:1047D000EFE3FCE93197F1F7F5CF812F86958695C8
:1047E000837061F0813009F06CCFC8019370D110F3
:1047F00002C090E080E00E94A40763CFC8019370DC
:10480000D11002C090E080E00E94BA075ACF802FFA
:10481000DD2029F00E94670A0E94EB1952CF0E9406
:10482000AC09FACF812F837009F066C0D11049CF4F
:10483000802F829586958770880F880F602F6F7004
:10484000462E512C712C612C082E04C0440C551C92
:10485000661C771C0A94D2F740E050E0BA0104FFCE
:104860000FC04FE050E060E070E004C0440F551FFF
:10487000661F771F8A95D2F7409550956095709581
:10488000812F869586958370823019F1D8F4009136
:1048900024031091250320912603309127038130B2
:1048A00069F04429552966297729CB01BA0160238B
:1048B0007123822393230E94D01A03CF402A512AC6
:1048C000622A732ACB01BA0164297529862997299E
:1048D000F2CF4429552966297729009124031091A4
:1048E00025032091260330912703CB01BA016027CD
:1048F000712782279327DFCF8695DD2011F0812F46
:104900008170882309F4DDCE802F8295869587708B
:10491000880F880F602F6F70462E512C712C612CE0
:10492000082E04C0440C551C661C771C0A94D2F750
:1049300040E050E0BA0104FF0FC04FE050E060E0FB
:1049400070E004C0440F551F661F771F8A95D2F789
:104950004095509560957095812F869586958370CA
:10496000823019F1D8F400918B0710918C072091B7
:104970008D0730918E07813069F0442955296629C9
:104980007729CB01BA0160237123822393230E94EC
:104990002D1A97CE402A512A622A732ACB01BA01D6
:1049A0006429752986299729F2CF44295529662932
:1049B000772900918B0710918C0720918D073091FA
:1049C0008E07CB01BA016027712782279327DFCF9B
:1049D0001F70DD2029F0812F0E94AF1A802FBECEDC
:1049E000802F0E943911812F0E94531A6ACE802F86
:1049F000F2EF8F1609F43FC0F81570F020EF821621
:104A0000D1F031EF831691F0DD2009F46CC09110E4
:104A100009CE812F8F7133C093EF891699F1E4EF9E
:104A20008E12F2CF8091910382FF3FC0812F8F7150
:104A3000DD20D1F224C0DD20C9F0F4E0F91508F43E
:104A400040CE1F7161E070E080E090E004C0660F2E
:104A5000771F881F991F1A95D2F700918B07109125
:104A60008C0720918D0730918E07ADCF25E0291559
:104A700008F427CEE6CF812F8F71D110B5CF0E94D9
:104A8000AF1A1FCE60E070E0CB01DD2009F47FCFCC
:104A90001F7161E070E080E090E004C0660F771F56
:104AA000881F991F1A95D2F772CFDD2089F01F71E8
:104AB000812F0E94AF1A8091910382FD07C038E0D8
:104AC000139FC0011124836080931803812FD7CFD7
:104AD00081E00E94761A81E0891508F0F2CD82E02B
:104AE0000E94761AEECD992079F0893341F49FEF38
:104AF000E7EEF3E09150E040F040E1F763CE8FE362
:104B00009CE90197F1F75ECE812F8F716DCF85E023
:104B1000DE01119601900D928A95E1F7F70122814D
:104B200089819A81211109CA0E94320D082F0DCA6C
:104B30000631FCE51F0709F4F5CC8091220382724F
:104B40000B3C2CE5120709F422CDA0F5063C9CE5B0
:104B5000190709F408CDC8F4043CFCE51F0709F463
:104B6000F6CC08F0FBCC033C1C4509F06AC08091F0
:104B7000850791E0892780938507109257018091DE
:104B8000840781608093840781CA083C9CE51907EB
:104B900009F4F3CC08F4ECCC093CFCE51F0709F45C
:104BA000F1CC47E058E063E178E00A3C1C4509F4A9
:104BB000D2CC47C00F3C3CE5130709F4F2CC88F493
:104BC0000D3CECE51E0709F4E7CC4BEE57E069EF2E
:104BD00077E00E3C1C4508F4BECC81E00E94C40581
:104BE00055CA073D2CE5120728F483E0013D1C451A
:104BF000A8F34CCA0E351D4509F448CA22C00B352E
:104C00009DE5190709F4EBCC58F40115FCE51F07E5
:104C100009F4C9CC0F3D1C45A1F40E94C31436CA47
:104C20000C353DE5130709F4DCCC0D351D4549F481
:104C30008091910382FB882780F991E089270E9467
:104C4000921AF701828110810181882309F4CBCC6B
:104C5000812F902F0E94C00CD82E682F812F902F6B
:104C60000E945B0DE12FF0E026E0029FE00DF11DB8
:104C700011243CE3D39EE00DF11D1124EE0FFF1F24
:104C8000E455FF4F859194910E941F0B8C01882E53
:104C9000F701D280958092945FE09522809118036D
:104CA0008770C1F0BD2CDD20B1F0812F807F803472
:104CB00021F080E2800F883068F08091910382FDBE
:104CC00009C082E00E94761A809118038770BB2485
:104CD000B3948111B12CA12EA2943FE0A322FBE05A
:104CE000FA1508F4EECCEA2DF0E0ED5BFA4C0C94EA
:104CF000B7341F93CF93DF938091E502807FA9F4AF
:104D00008091E202882389F080911703D091E60216
:104D10006091E0027091E102A091E302B091E4029F
:104D2000C62FC72316E0D81304C0DF91CF911F917F
:104D3000089590E0109711F0CF3F19F40196877015
:104D4000F2CF189F9001199F300D1124F901E951FC
:104D5000FD4F41814713F2CF40814613EFCF42818F
:104D60004111ECCF438154814A1B5B0B4436510502
:104D700028F78091E5028F7080618093E502F90148
:104D8000E451FD4F80818F708061808380EE92E0DE
:104D90000E94651FDF91CF911F910C94B60CAF92CA
:104DA000BF92CF92DF92EF92FF920F931F93CF9318
:104DB000DF93CDB7DEB761970FB6F894DEBF0FBEB5
:104DC000CDBF8C0185E0F801DE011D9601900D92AA
:104DD0008A95E1F7F801E28080EEA82E82E0B82EF5
:104DE0006091E3027091E4026115710509F432C12A
:104DF0009091E0024091E102892F84238F3F09F4D2
:104E000029C120813181C380D480F090E202F60173
:104E1000E61BF70BFF2009F4E8C08091E502582F4C
:104E2000507FE436F10508F0ABC0511177C0FE2C7D
:104E3000431321C092131FC0E1101DC08F70806109
:104E40008093E502C5010E94651F8091E502F8018B
:104E500085838F2D61960FB6F894DEBF0FBECDBF50
:104E6000DF91CF911F910F91FF90EF90DF90CF9046
:104E7000BF90AF900895CD2829F0822F83238F3FD4
:104E800009F003C180E0F82FF170DF2E80FF3CC0F5
:104E9000809117034091E60256E0841315C02D87D8
:104EA0003E878D859E850E94170D292F22952F7094
:104EB0002230F0F0243018F59F70F1F0F801958160
:104EC000907FD1F4D12C1EC090E0589FF001599FE3
:104ED000F00D1124E951FD4F6181361306C0608148
:104EE000261303C06281E6120FC001968770D5CFEA
:104EF0009F7011F0882331F3805E883018F3C80169
:104F00000E94651FFD2CA5CFEE2009F4A2CF809151
:104F1000E50281608093E502F12C9BCF431306C02C
:104F2000921304C0F801EE2009F479C0C8010E9470
:104F3000890D882309F1EE20F9F08091E502803295
:104F400070F02091E0023091E10238872F831986BA
:104F5000DB86CA868C87CE0107960E94651F86E095
:104F6000F801A0EEB2E001900D928A95E1F70E945F
:104F70007926FF24F3946DCFC8010E94651FF9CFF5
:104F800051110AC080EE92E00E94651F86E0F50193
:104F900011928A95E9F7C0CF43130FC092130DC049
:104FA000E1100BC0F8018583C8010E94651F86E0EF
:104FB000F50111928A95E9F74CCFC8010E94890D3D
:104FC0008823D1F2EE20C1F28091E502803238F2DE
:104FD0002091E0023091E1023A8329831B82DD8235
:104FE000CC828E83CE010196B8CFE436F105F8F677
:104FF000FE2CEE2009F243131FC092131DC08091B6
:10500000E50280FD10C0982F907F69F0F80185833C
:10501000903F31F0982F907F905F8F70892B858320
:10502000C8010E94651F86E0F801A0EEB2E0019081
:105030000D928A95E1F70DCFC8010E94890D81116B
:105040008ECF8091E50281608093E502C8010E94C5
:10505000651FFFCEEE2009F48FCFC8010E94890D95
:10506000F82E882309F488CF86E0F801A0EEB2E09C
:1050700001900D928A95E1F78091E0029091E10212
:105080000E94170D0E947926E4CE81E08E25FBCE8A
:105090001F93CF93DF93CDB7DEB767970FB6F89422
:1050A000DEBF0FBECDBF4B8B5C8B6D8B7E8B8F8B32
:1050B0006111109221031A8A198A85E0FE01739604
:1050C000DE011D9601900D928A95E1F786E0FE01C2
:1050D0003D96DE01179601900D928A95E1F7CE017B
:1050E00007960E94CF26811112C086E0FE013796F6
:1050F000DE01119601900D928A95E1F78A859B85D4
:10510000892B29F088859F8189238F3FB1F516E08F
:10511000809117039091E60289131DC067960FB620
:10512000F894DEBF0FBECDBFDF91CF911F910895E0
:1051300096E0929FD001939FB00D1124A951BD4FCD
:10514000FE01319601900D929A95E1F78093E60267
:105150000E94B60CDCCF819FC001112489519D4F64
:105160000E94CF268823D1F28091170390E0019608
:105170008770992780931703CBCF2091E60230E008
:10518000C90101968770992740911703481719069E
:1051900079F60E94DA1A1092E6021092170386E05E
:1051A000E0EEF2E0DF011D928A95E9F7B0CF7F9241
:1051B0008F929F92AF92BF92CF92DF92EF92FF9227
:1051C0000F931F93CF93DF93CDB7DEB72F970FB613
:1051D000F894DEBF0FBECDBF8E010F5F1F4F8AE078
:1051E000D8011D928A95E9F782E9C82E81E0D82E70
:1051F000F12CE12CAA24A394B12C2DE9822E21E0DC
:10520000922EF60181916F018F3F09F443C0F8940B
:10521000E82FE295EF70F0E021A18F70A50102C0A8
:10522000440F551F8A95E2F7CA01922F982B91A33C
:1052300092A18095892382A30E94C30A00C0E7E956
:10524000F1E0712C31E021912F3F09F47AC0A22FB7
:10525000A295AF70B0E090968C9190E02F7002C054
:10526000959587952A95E2F780FD6BC0832F782A64
:10527000330F8E169F0639F7F601319780818F3FE5
:1052800011F00E94C50A50EA5A95F1F7F801EE0DA7
:10529000FF1D70828FEFE81AF80A95E0E916F10415
:1052A00009F0AFCF4AE050E0B80189E693E00E94F0
:1052B000C6347C01892B41F08AE0F801A9E6B3E00D
:1052C00001900D928A95E1F710917403E114F104B5
:1052D000D1F181E080932A030E943A16909329032A
:1052E0008093280380912803909129030E942B1614
:1052F000059778F0A9E6B3E0E12FF0E0EA58FC4F1B
:105300008EE693E02D9121938A179B07D9F710928F
:105310002A0381E090E0EF28D1F02F960FB6F894A1
:10532000DEBF0FBECDBFDF91CF911F910F91FF90D8
:10533000EF90DF90CF90BF90AF909F908F907F9035
:10534000089580E094CF80912A038111CBCF0E94F1
:10535000550FD82EE0917403DE011B967D01882342
:1053600009F47DC085E01D928A95E9F70E2F10E0C3
:105370000A581C4F809164038A30E8F546E854E1EE
:10538000B701C8010E94110F882309F444C045ECFD
:1053900053E1B701C8010E94110F8823E1F14FE0EA
:1053A0005FE1B701C8010E94110F8823A1F144ED0C
:1053B00052E1B701C8010E94110F882361F140E951
:1053C00053E1B701C8010E94110F882321F1109207
:1053D00064038091730390E045E050E0B7018A5880
:1053E0009C4F0E94C63421E020933103892B51F554
:1053F000D12C8D2D92CF80912B0390912C030E9464
:105400002B16843F914008F0B9CF80913103811170
:1054100012C080E082CF809164038F3F29F08F5FBC
:10542000809364038A30A8F20E943A1690932C036A
:1054300080932B03EACF85E0F70111928A95E9F773
:1054400010923103A0917303B0E0AA58BC4F85E0DD
:10545000FE013B9601900D928A95E1F7CACFF0E0EC
:10546000EA58FC4F0091730310E00A581C4FF8945F
:1054700085E0A5E4B3E001900D928A95E1F765E03F
:1054800070E085E493E00E94D007809344030E947B
:10549000C30AF89485E0EAE4F3E0D80101900D92A4
:1054A0008A95E1F70E94C30AF894E0918E03F0E038
:1054B000E557FC4F80818B878093500361E070E05B
:1054C000C7010E94D00780934F030E94C30AF8943B
:1054D000C0905103D0905203E0905303F0905403D6
:1054E00080912D0390912E03A0912F03B091300352
:1054F000C816D906EA06FB06D1F0C0922D03D09259
:105500002E03E0922F03F09230030E94550F811179
:105510000EC00E947E07C61AD70AE80AF90AC0928E
:105520006503D0926603E0926703F09268030E94DD
:10553000C30AF89486E0E5E5F3E0A5E8B7E001905A
:105540000D928A95E1F70E94C30A63CF1F921FB69E
:105550001F9211248F939F93AF93BF93809139072C
:10556000811113C080913A0790913B07A0913C07AD
:10557000B0913D074196A11DB11D80933A079093CC
:105580003B07A0933C07B0933D07BF91AF919F911C
:105590008F911F901FBE1F901895CDB7DEB76297F1
:1055A0000FB6F894DEBF0FBECDBF84B7877F84BF30
:1055B0000FB6F894A8958091600088618093600090
:1055C000109260000FBE80E890E00FB6F8948093D0
:1055D0006100909361000FBE85B7806885BF85B775
:1055E000806885BF81EC9AE09093A9028093A8021D
:1055F0000E94F0050E94BB068091E20084608093C7
:10560000E200789480914E078823A1F01091E90080
:105610001F709091EC00892F817090FD80E8182B0D
:105620001092E9008091E80083FD0E94E51A1F7046
:105630001093E90082E084BD93E095BD9AEF97BD99
:1056400080936E00109265031092660310926703B8
:10565000109268030E94550F809339010E94550FE4
:1056600081110E94FE32809139018091390195E0CB
:10567000811190E09093740385E0891B80937303FC
:1056800002E911E087E9C82E81E0D82ED8018D917A
:105690008D018F3F11F00E94C50AC016D106B1F7E7
:1056A00007E911E0BDE9CB2EB1E0DB2EF8018191D5
:1056B0008F018F3F11F00E94C50AC016D106B1F7C5
:1056C0008AE0E6E7F3E0DF01282F1D922A95E9F74B
:1056D000E9E6F3E0DF011D928A95E9F790E080E0CA
:1056E0000E94F434893E9E4F11F00E94C31482E060
:1056F00090E00E94EC34809380030E94C612909345
:1057000091038093900383E090E00E94EC34682F33
:1057100070E090E080E00E94D01A109258078FEF5E
:105720009FEF909372078093710790937407809313
:10573000730790937607809375079093780780930B
:10574000770790937A078093790790937C078093EB
:105750007B0790937E0780937D07909380078093CB
:105760007F071092C4039093DE038093DD03909330
:10577000E0038093DF039093E2038093E10390932F
:10578000E4038093E3039093E6038093E50390930F
:10579000E8038093E7039093EA038093E9039093EF
:1057A000EC038093EB0390E080E00E94F434893EA8
:1057B0009E4F21F00E94C3140E94AB1246E050E0BD
:1057C0006CE170E085E897E00E94DC341092840779
:1057D000809185078C7F11F40E94AB120E94550FB7
:1057E000882309F4D6C183E08093B20380FDD3C13E
:1057F00080E8809322050E9496316DE070E087E199
:1058000093E00E94F60D892BE9F58091B20363E0E5
:1058100070E081FDC2C184E193E00E94F60D892B06
:1058200089F56DE070E084E093E00E94F60D892B2D
:1058300049F50E947E07605A75418F4F9F4F6093D4
:105840002D0770932E0780932F0790933007E5E282
:10585000F5E080E092E0DF019C011D922150304094
:10586000E1F7F0932C07E0932B078FEF9FEF9093D6
:1058700024058093230581E08093320780933107CC
:105880001092B30380913901811106C084EF809397
:10589000470185EF8093460180914701E82FE2950B
:1058A000EF70F0E031A18F7041E050E0DA0102C00A
:1058B000AA0FBB1F8A95E2F7CD012A2F209523233B
:1058C00021A392A1982B92A390914601E92FE295F2
:1058D000EF70F0E021A19F70BA0102C0660F771F40
:1058E0009A95E2F7CB01962F9095922391A392A1DE
:1058F000892B82A38FE891E00197F1F700C00000A7
:1059000020914701E22FE295EF70F0E080A190E056
:105910002F7002C0959587952A95E2F78170909136
:105920004601E92FE295EF70F0E020A130E09F7092
:1059300002C0359527959A95E2F792E020FF90E016
:10594000892B80938F039091390181E09827909360
:105950008E03891B809375030E94550F811102C02D
:105960000E9401338AE391E09093360780933507D4
:1059700080914E07853049F480914E07853009F4B7
:105980000FC10E94DA1A0E94790F0E94D728D82EE0
:1059900081110E947E07E6E7F3E0A1E8B3E0912CD5
:1059A000812CC82C71908D91871509F4F1C2F12CCE
:1059B00011E08725982F912309F4E5C20E94550F25
:1059C0007122882399F0FF82C88681E0711001C09E
:1059D00080E089870E943A168160782F9B878A87AA
:1059E0004F81588569858B850E944828F401EF57BF
:1059F000FC4F808118271083772089F086E0889DEE
:105A0000F001899DF00D1124E354FE4FEF0DF11DBF
:105A10008081712C8F3F19F0E82E77247394072D25
:105A200010E08091C403800F912F911D09976CF1B4
:105A3000E8E0AE2EB12CA01AB10AB8016B537C4F2E
:105A4000A50185EC93E00E94D334B80163537C4FE9
:105A5000A5018DEC93E00E94D334A501440F551F9E
:105A6000B801660F771F63527C4F8DED93E00E9463
:105A7000D334B8016B527C4FA50185ED93E00E94B1
:105A8000D33488E087198093C4038091C40390E0E5
:105A9000AE2DB0E09D01220F331F27503E4FAA0FBD
:105AA000BB1FBD0166507E4F41E0480F971508F4BB
:105AB000B4C08093C403809185078C7F883109F03E
:105AC000EFC08FEF8C0D21E02C0D9FEF9F0DA1E01B
:105AD000AF0D9F1580F436E0389DF001399DF00D33
